:020000040800F2
:10000000D08E0020DD010008430C0008C107000865
:100010003F0C0008C5050008E71D000800000000AF
:100020000000000000000000000000004501000882
:10003000C905000800000000890100080513000838
:10004000F7010008F7010008F7010008F7010008B0
:10005000F7010008F7010008F7010008F7010008A0
:10006000F7010008F7010008F7010008F701000890
:10007000F7010008F7010008F7010008F701000880
:10008000F7010008F7010008F7010008F701000870
:10009000F7010008F7010008F7010008CB05000888
:1000A000F7010008F7010008F7010008F701000850
:1000B000B5150008CD150008E5150008F701000882
:1000C000F7010008F7010008F7010008F701000830
:1000D000F70100089D1B0008CD1B0008F701000870
:1000E000F7010008F7010008F7010008F701000810
:1000F000F7010008F7010008F7010008F701000800
:10010000F7010008F7010008FD150008F7010008D5
:10011000F7010008F701000815160008F7010008AC
:10012000F7010008F7010008F7010008F7010008CF
:10013000DFF80CD000F024FA00480047E92B000853
:10014000D08E0020224B19680868B0E8F00F80F3C9
:100150000988BFF36F8F4FF0000080F311884EF0D5
:100160000D0E70470000000006480068006880F32C
:10017000088862B661B6BFF34F8FBFF36F8F00DFA1
:1001800000BF00BF08ED00E0EFF30980BFF36F8F01
:100190000F4B1A6820E9F00F106008B54FF05000BF
:1001A00080F31188BFF34F8FBFF36F8F03F098FF79
:1001B0004FF0000080F31188BDE808401968086816
:1001C000B0E8F00F80F30988BFF36F8F704700BF6E
:1001D00054000020EFF30580704700000648804778
:1001E00006480047FEE7FEE7FEE7FEE7FEE7FEE71C
:1001F000FEE7FEE7FEE7FEE7151300083101000801
:1002000040EA01039B0703D009E008C9121F08C098
:10021000042AFAD203E011F8013B00F8013B521E18
:10022000F9D27047D2B201E000F8012B491EFBD28F
:1002300070470022F6E710B513460A4604461946F1
:10024000FFF7F0FF204610BDF0B480EA0102D40FA2
:100250004200B2EB410F02D20246084611464A0064
:1002600042D0C30DDDB2C1F3C752AD1A202D35DA2D
:10027000C1F3160141F4000204B15242C5F1200657
:1002800002FA06F12A411044B3EBD05F23D0C4B187
:10029000012DA0EBC35009DCF0BC4FF0004202EA94
:1002A000C352DBB200F5000000F0DEB8400000F100
:1002B000807000EBC350A0F1807040EAD17049001B
:1002C00009E0490841EAC071A0EBC35000F5000005
:1002D000400800EBC350F0BC00F0BDB86142012201
:1002E00002EB4101001BF6E7F0BC704781F00041D2
:1002F000AAE780F00040A7E780EA010210B502F00B
:100300000043400022D04A001FD0010E01EB1261D1
:10031000C0F35600C2F3560240F4000042F400025B
:10032000A0FB022000047F39140400D0401C50EAD6
:10033000124001D44000491EC2B20C0604EBD0109A
:10034000401C4008802A02D003E0002010BD20F0AD
:100350000100002900DA0020184310BDC10F80EA17
:10036000E0700844CA079623002100F07DB80EB55E
:10037000C10F80EAE0700844CA07002140F233430D
:100380008DE80E000A460B4600F0ABF803B000BD46
:1003900000F0004220F00040C10DC0F3160040F410
:1003A00000007F2901DA00207047962903DCC1F1A3
:1003B0009601C84001E096398840002AF4D04042B6
:1003C0007047000030B5041E71F1000404DB4FF0EB
:1003D0000044404264EB0101141E73F1000405DB8C
:1003E0001C464FF00043524263EB04038B4208BFAC
:1003F000824230BD30B5041E71F1000404DB4FF0C1
:100400000044404264EB0101141E73F1000405DB5B
:100410001C464FF00043524263EB0403994208BF6D
:10042000904230BD002801DBC0F10040002901DB13
:10043000C1F1004188427047202A04DB203A00FACB
:1004400002F1002070479140C2F1200320FA03F32B
:100450001943904070470029A8BF7047401C4900CD
:1004600008BF20F00100704710B4B0FA80FC00FA19
:100470000CF050EA010404BF10BC704749B1CCF144
:10048000200421FA04F411FA0CF118BF01212143D0
:100490000843A3EB0C01CB1D4FEA00614FEA10208B
:1004A00042BF002010BC704700EBC350104400292D
:1004B000A4BF10BC7047401C490008BF20F00100D9
:1004C00010BC704710B5141E73F1000408DA401C0C
:1004D00041F1000192185B411A4301D120F0010063
:1004E00010BD2DE9F04D92469B4611B1B1FA81F253
:1004F00002E0B0FA80F220329046FFF79DFF0446FA
:100500000F4640EA0A0041EA0B0153465A460843A7
:1005100013D0114653EA010019D0C8F140025046E9
:1005200000F040F805460E46504659464246FFF751
:1005300083FF084305D0012004E020463946BDE88A
:10054000F08D0020054346EAE0762C4337430A98B5
:100550006305E40AA0EB08000022FD0A44EA4754C0
:100560000A3002D500200146E9E70105101969416A
:10057000DDE9084500196941BDE8F04DA2E700003A
:10058000064C074D06E0E06840F0010394E80700E0
:1005900098471034AC42F6D3FFF7CEFD144E000856
:1005A000344E0008202A04DB203A21FA02F0002110
:1005B000704721FA02F3D040C2F120029140084373
:1005C0001946704700BFFEE7704710B5202000F0C5
:1005D0000BF8202000F002F810BD0000014908606F
:1005E0007047000014040140014600200022074B20
:1005F0001B6803EA0102054B14331B680B4013B15F
:100600000AB1012000E00020704700000004014012
:100610002DE9F04102460025002600200023002499
:10062000002791F803C00CF00F0591F803C00CF0FF
:10063000100CBCF1000F03D091F802C04CEA050584
:1006400091F800C0BCF1000F31D0146800202BE0FD
:100650004FF0010C0CFA00F3B1F800C00CEA0306ED
:100660009E4220D183004FF00F0C0CFA03F7BC43DD
:1006700005FA03FC4CEA040491F803C0BCF1280F0E
:1006800006D14FF0010C0CFA00FCC2F814C00AE0CD
:1006900091F803C0BCF1480F05D14FF0010C0CFAE2
:1006A00000FCC2F810C0401C0828D1D31460B1F877
:1006B00000C0BCF1FF0F34DD546800202EE000F1D3
:1006C000080C4FF0010808FA0CF3B1F800C00CEA6E
:1006D00003069E4221D183004FF00F0C0CFA03F762
:1006E000BC4305FA03FC4CEA040491F803C0BCF1D6
:1006F000280F05D100F1080C08FA0CF8C2F8148094
:1007000091F803C0BCF1480F07D100F1080C4FF07D
:10071000010808FA0CF8C2F81080401C0828CED353
:100720005460BDE8F0810000F0B50A4600230024C3
:100730000021002500F00046B6F1004F02D11D4E09
:10074000F16901E01B4E7168C0F3034583B200F408
:100750004016B6F5401F08D121F07061154E76683D
:1007600026F07066134F7E6012E000F48016B6F536
:10077000801F06D1032606FA05F4A14341F07061FB
:1007800006E0460D360103FA06F6B14341F070610A
:1007900022B1460D360103FA06F6314300F0004659
:1007A000B6F1004F02D1034EF16101E0014E7160DC
:1007B000F0BD0000000001404161704701617047D9
:1007C00000BFFEE710B580210A48FFF7F7FF2021A0
:1007D0000848FFF7F3FF00F011F980210548FFF703
:1007E000EBFF00F00BF920210248FFF7E5FF00F0D6
:1007F00005F910BD0008014010B580210648FFF73B
:10080000DBFF20210448FFF7D9FF00F0F7F8802133
:100810000148FFF7D3FF10BD0008014010B580214B
:100820000848FFF7CBFF00F0E9F820210548FFF763
:10083000C5FF00F0E3F820210248FFF7BDFF00F0FC
:10084000DDF810BD0008014010B50020094908601E
:1008500000F098FC00200849C1F8AC0100F0D6F87F
:1008600001200449086000F0D1F800200249C1F8D5
:10087000A80110BDA88121420080214210B50020AE
:100880000949086000F07EFC01200849C1F8AC016C
:1008900000F0BCF801200449086000F0B7F800201F
:1008A0000249C1F8A80110BDA8812142008021425F
:1008B00070B50546002400F053FC002614E000202B
:1008C0000E49086000F0A2F801200D49C1F8A80106
:1008D0006006040E09487C38006808B1601CC4B288
:1008E00000F094F8701CC6B2082EE8DB15B9FFF7CB
:1008F000C5FF01E0FFF7A8FF204670BDA881214297
:100900000080214270B5044600F03CFC00200D49F7
:100910000860002512E0E0090A49091D0860600628
:10092000040E01200849C1F8A80100F06FF800206A
:100930000449086000F06AF8681CC5B2082DEADBBB
:1009400070BD0000A88121420080214210B500F056
:1009500019FC0120084908600849C1F8A80100F005
:1009600055F800200449086000F050F800200349C1
:10097000C1F8A80110BD0000AC81214200802142D5
:1009800010B500F0FFFB0020074908600749C1F8D7
:10099000AC0100F03BF80120034908600349C1F8AD
:1009A000AC0100F033F810BDA88121420080214243
:1009B00010B5002400F0D4FB01200E49086000F0BF
:1009C00025F801200C49C1F8A80100F01FF807E044
:1009D000601CC4B2FA2C03DDFFF7D2FF012010BD6A
:1009E0000448803800680028F2D10249091F0860D5
:1009F00000BFF4E7AC81214200802142032000BF08
:100A0000011EA0F10102D0B2FAD1704710B5022048
:100A100002F0AAF810BD000008B50121082000F07E
:100A200025FB4FF48060ADF8000003208DF8020034
:100A300014208DF8030069460B48FFF7E9FD4FF4D9
:100A40000060ADF8000003208DF8020014208DF83E
:100A5000030069460448FFF7DBFD012003490860F5
:100A60000349C1F8AC0108BD000C0140A881214236
:100A70000080214210B5FFF7CFFF80226B21682054
:100A800000F0B7F8642002F04DF800226B216820D6
:100A900000F0AFF8032000F065F8002000F059F8EE
:100AA000C82000F088F801223821682000F0A1F861
:100AB00000226A21682000F09CF80022232168208F
:100AC00000F097F89C223721682000F092F87521F9
:100AD000682000F019F80B4908700846007868286B
:100AE0000CD101226B2100F084F800226C216820D7
:100AF00000F07FF8C82000F05EF801E0012010BD92
:100B00000020FCE73800002070B504460D460026A2
:100B1000FFF71CFF002141EA4401C8B2FFF7F2FED3
:100B2000FFF746FF2846FFF7EDFEFFF741FFFFF70F
:100B30000DFF012101EB4401C8B2FFF7E3FEFFF70F
:100B400037FF0020FFF7B4FE0646FFF719FF3046D7
:100B500070BD10B50446E006020E1C21682000F0AE
:100B600048F810BD10B50446032000EBC400C2B223
:100B70001B21682000F03DF810BD70B5044600252B
:100B8000BC2C01DB012510E0622C01DB02250CE00E
:100B90002A2C01DB032508E0142C01DB042504E0EA
:100BA0000A2C01DB052500E006252A461A216820CB
:100BB00000F01FF870BD70B50446B4F57A7F01DD12
:100BC0004FF47A74042C00DA04244FF47A7090FB0A
:100BD000F4F0401EC5B22A461921682000F009F839
:100BE0000546264604EBD671C1F34F00FFF7C5FF5B
:100BF00070BD70B504460D461646FFF7A7FE0021EE
:100C000041EA4401C8B2FFF77DFEFFF7D1FE18B1FB
:100C1000FFF7B6FE012070BD2846FFF773FEFFF711
:100C2000C7FE3046FFF76EFEFFF7C2FE18B1FFF7B2
:100C3000A7FE0120EFE7FFF7A3FE0020EBE700BFD0
:100C4000FEE7704770B5002100230F22C47804B37B
:100C5000154C246804F4E064C4F5E064210AC1F191
:100C60000403CA40447804FA03F184781440214311
:100C700009010E4C0678A155047804F01F050124E3
:100C8000AC4005786D11AD0005F1E025C5F80041D7
:100C900009E0047804F01F050124AC40044D0678F7
:100CA000761145F8264070BD0CED00E000E400E050
:100CB00080E100E002490143024A116070470000F0
:100CC0000000FA050CED00E070B500240CE00025F2
:100CD00006E00020074901EBC5010855681CC5B2B4
:100CE000802DF6DB601CC4B2082CF0DB00F092F81B
:100CF00070BD0000D400002008B50121042000F0E0
:100D0000B5F92020ADF8000014208DF80300032071
:100D10008DF8020069463E48FFF77AFC20213C48E6
:100D2000FFF74CFD8020ADF8000069463848FFF71A
:100D30006FFC80213648FFF741FD0021AE2000F016
:100D40009DF80021084600F099F80021102000F0DD
:100D500095F80021402000F091F80021812000F05A
:100D60008DF80021CF2000F089F80021A12000F0AB
:100D700085F80021C82000F081F80021A62000F0AD
:100D80007DF80021A82000F079F800213F2000F034
:100D900075F80021D32000F071F80021084600F01A
:100DA0006DF80021D52000F069F80021802000F0C6
:100DB00065F80021D92000F061F80021F12000F051
:100DC0005DF80021DA2000F059F80021122000F02F
:100DD00055F80021DB2000F051F80021302000F010
:100DE0004DF80021202000F049F80021022000F0F9
:100DF00045F800218D2000F041F80021142000F07A
:100E00003DF8FFF761FF0021AF2000F037F808BD83
:100E10000008014070B500242BE004F1B001C8B215
:100E2000002100F02BF80021084600F027F80021EF
:100E3000102000F023F8FFF7C5FC782000F0B4F98B
:100E4000FFF7ECFC402000F0AFF9FFF7E7FC0025CE
:100E500009E0094901EBC501085D00F0A5F9FFF7BC
:100E6000DDFC681CC5B2802DF3DBFFF7C5FC601C00
:100E7000C4B2082CD1DB70BDD400002070B505468B
:100E80000C46FFF79FFC782000F08EF9FFF7C6FCB8
:100E90001CB1402000F088F902E0002000F084F945
:100EA000FFF7BCFC284600F07FF9FFF7B7FCFFF71F
:100EB000A3FC70BD2DE9F04104460E46154614B959
:100EC0000020BDE8F081216C6164E16B2164A561C3
:100ED000E66131462846FFF709FAE06320780028EA
:100EE0004DD1E16B6068FFF707FA6062E16BA068C3
:100EF000FFF702FA0746A16AFFF7A6F9A062616B45
:100F0000A163216B6163D4E90F01FFF7EFF920635F
:100F1000216BE068FFF7F0F9E0626169A06AFFF712
:100F200081FA02D26069A0620BE0606980F000473C
:100F30003846A16AFFF776FA03D2606980F0004074
:100F4000A062D4E90901FFF77FF90746E16AFFF7DC
:100F50007BF920622169206AFFF764FA02D22069D6
:100F6000206255E0206980F000473846216AFFF78B
:100F700059FA4DD2206980F00040206248E0207884
:100F8000012845D1D4E90F01FFF7B0F907466168A0
:100F9000FFF7B2F96062E16BA068FFF7ADF9A062FC
:100FA000616BA163216B61634FF08040216CFFF79F
:100FB000A3F98046E16BFFF79CF90746616CFFF7E8
:100FC00043F92063216BE068FFF796F9E062D4E90A
:100FD0000901FFF739F98046E16AFFF735F907465D
:100FE000216AFFF731F920622169206AFFF71AFAB6
:100FF00002D2206920620BE0206980F00047384669
:10100000216AFFF70FFA03D2206980F000402062C6
:10101000206A56E770B5049C00B102B970BD01703A
:1010200015684560556885609568C56003614461D1
:1010300000268663466306630662C662866246626F
:1010400046640664C66300BFE8E7000029B1064AAB
:10105000D2690243044BDA6104E0034AD269824355
:10106000014BDA61704700000010024029B1064AC6
:1010700092690243044B9A6104E0034A92698243F5
:10108000014B9A61704700000010024030B500210A
:101090000022002400232D4D6D6805F00C0121B1C4
:1010A000042905D0082923D105E0294D056022E057
:1010B000274D05601FE0254D6D6805F47012234D26
:1010C0006D6805F48034022505EB92421CB9214D70
:1010D000554305600BE01D4D6D6805F400351DB1ED
:1010E0001C4D5543056002E0194D5543056002E073
:1010F000174D056000BF00BF144D6D6805F0F0018D
:101100000909154D6B5C0568DD4045600F4D6D6844
:1011100005F4E061090A104D6B5C4568DD408560AF
:101120000A4D6D6805F46051C90A0B4D6B5C45684A
:10113000DD40C560054D6D6805F44041890B074DE4
:101140006B5CC568B5FBF3F5056130BD001002406E
:1011500000127A0000093D00140000202400002045
:1011600008B54FF40060ADF8000003208DF80200D0
:1011700048208DF8030069460148FFF749FA08BD89
:10118000000C014008B54FF40060ADF800000320EA
:101190008DF8020014208DF8030069460148FFF71E
:1011A00037FA08BD000C014070B5044600251BE06D
:1011B00004F0800020B180210D48FFF7FFFA03E022
:1011C00080210B48FFF7F8FAFFF718FC20210848A8
:1011D000FFF7F4FAFFF712FC20210548FFF7ECFABD
:1011E0006006040E681CC5B2082DE1DB70BD00006E
:1011F0000008014010B500F001F810BD0CB500204A
:10120000019000903348006840F480303149086014
:1012100000BF3048006800F4003000900198401C86
:101220000190009818B90198B0F5A06FF1D1294844
:10123000006800F4003010B10120009001E00020AF
:1012400000900098012843D12348006840F0100026
:10125000214908600846006820F00300086008463D
:10126000006840F0020008601A4840681949486068
:101270000846406848600846406840F4806048601E
:101280000846406820F47C1048600846406840F4F6
:10129000E81048600846006840F08070086000BFB1
:1012A0000C48006800F000700028F9D00948406838
:1012B00020F00300074948600846406840F00200FB
:1012C000486000BF0348406800F00C000828F9D1CE
:1012D0000CBD00000010024000200240042808D18C
:1012E0004FF0E021096941F004014FF0E022116163
:1012F00007E04FF0E021096921F004014FF0E022FE
:101300001161704710B503F019FB012801D002F0FC
:10131000A9FF10BD10B51348006840F00100114945
:10132000086008464068104908400E494860084671
:1013300000680E4908400B4908600846006820F420
:10134000802008600846406820F4FE0048604FF4A2
:101350001F008860FFF74EFF4FF0006004490860EF
:1013600010BD0000001002400000FFF8FFFFF6FE75
:1013700008ED00E0F0B50C46154600220021068C71
:101380004FF6FE773E400684028B018C4FF60C76BA
:1013900032407E1C06EA03162E433243104EB04202
:1013A0000ED0104EB0420BD0B0F1804F08D00E4E90
:1013B000B04205D00D4EB04202D00D4EB04206D123
:1013C0004FF6FD76314044F00106314305E04FF61B
:1013D000F576314044F00106314302830184F0BDCB
:1013E000002C01400034014000040040000800408F
:1013F000000C0040F0B50C461546002200210026E6
:10140000078C4FF6EF7C07EA0C070784028B018CF0
:101410004FF6FF7707EA041640F6FF473A404FF6CB
:10142000FF7707EA03373A434FF6FF7707EA0527C6
:101430003A43114FB8420ED0104FB8420BD0B0F122
:10144000804F08D00E4FB84205D00E4FB84202D0A0
:101450000D4FB84206D14FF6DF77394046F01007FE
:10146000394305E04FF65F77394044F010073943C0
:1014700002830184F0BD0000002C014000340140D3
:101480000004004000080040000C0040F0B50C468D
:101490001546002200210026078C4FF6FF6C07EA54
:1014A0000C070784828B018C4FF6FF7707EA04262E
:1014B0004FF60C773A404FF6FF7707EA03172F43B2
:1014C0003A43114FB8420ED0104FB8420BD0B0F192
:1014D000804F08D00E4FB84205D00E4FB84202D010
:1014E0000D4FB84206D14FF6FF57394046F480778A
:1014F000394305E04FF2FF57394044F480773943D0
:1015000082830184F0BD0000002C014000340140C2
:101510000004004000080040000C0040F0B50C46FC
:101520001546002200210026078C4EF6FF7C07EAB4
:101530000C070784828B018C4FF6FF7707EA04368D
:1015400040F6FF473A404FF6FF7707EA05273A4350
:101550004FF6FF7707EA03373A43114FB8420ED0F0
:10156000104FB8420BD0B0F1804F08D00E4FB842A8
:1015700005D00E4FB84202D00D4FB84206D14DF6FD
:10158000FF77394046F48057394305E047F6FF5767
:10159000394044F48057394382830184F0BD000010
:1015A000002C0140003401400004004000080040CD
:1015B000000C00404FF08040008A4FF08040008ACD
:1015C00020F001004FF080410882704704480088F5
:1015D0000348008820F0010001490880704700009E
:1015E00010040040044800880348008820F00100EF
:1015F0000149088070470000100800400448008836
:101600000348008820F0010001490880704700006D
:10161000100C004010B50121044800F057F818B133
:101620000121024800F013F810BD00000010004036
:1016300021B1028842F08002028004E002884FF665
:101640007F731A4002807047CA4302827047CA43C0
:101650000282704721B1028842F00102028004E058
:1016600002884FF6FE731A400280704731B1B0F81D
:10167000442042F40042A0F8442005E0B0F84420A1
:10168000C2F30E02A0F844207047F0B50C46154690
:101690001E460021002200230189028B038C4FF695
:1016A000F877394021434FF6FC473A4040F20117A2
:1016B0003A434FF6DD773B404FF6FF7707EA0617D0
:1016C0002F433B43018102830384F0BD30B50246C2
:1016D000002000230024158A05EA0103958905EA04
:1016E000010413B10CB1012000E0002030BD000066
:1016F00070B505460C46244885420ED023488542E5
:101700000BD0B5F1804F08D02148854205D0214843
:10171000854202D02048854200D100E000BF2088E9
:1017200050B92389A28861882846FFF723FEE18803
:10173000284600F0ABF925E0208804280AD1238947
:10174000A28861882846FFF755FEE188284600F008
:10175000A6F917E0208808280AD12389A288618881
:101760002846FFF793FEE188284600F0A5F909E036
:101770002389A28861882846FFF7D0FEE1882846A1
:1017800000F0A3F970BD0000002C014000340140BE
:101790000004004000080040000C004000210180CF
:1017A0004180012181800021C180018170471AB1EF
:1017B00083890B43838102E083898B438381704754
:1017C00070B5002400220023058C4FF6FE763540CC
:1017D0000584028C8388048B4FF68F752C40B51ED0
:1017E0002C400D882C43751E2A400D892A434D88B4
:1017F0002A43144DA8420BD0134DA84208D0134DD4
:10180000A84205D0124DA84202D0124DA84213D1D1
:101810004FF6F7752A404D892A434FF6FB752A404B
:101820008D882A434FF6FF652B404FF6FF552B401E
:101830008D892B43CD892B4383800483CD88858676
:10184000028470BD002C0140003401400040014082
:1018500000440140004801400A460021018B4FF638
:10186000F7731940114301837047000070B50024DD
:1018700000220023058C4FF6EF7635400584028C5C
:101880008388048B48F6FF752C404FF6FF452C40AB
:101890000D884FF6FF7606EA05252C434FF6DF75D7
:1018A0002A400D8906EA05152A434D8806EA0515E2
:1018B0002A43154DA84202D0144DA8421DD14FF61F
:1018C0007F752A404D894FF6FF7606EA05152A43B3
:1018D0004FF6BF752A408D8806EA05152A434FF654
:1018E000FF352B404FF2FF752B408D8906EA8505A9
:1018F0002B43CD8906EA85052B4383800483CD885D
:101900000587028470BD0000002C014000340140B6
:101910000A460021018B4FF2FF7319404FF6FF7307
:1019200003EA0223194301837047000070B50024C5
:1019300000220023058C4FF6FF6635400584028C9B
:101940008388848B4FF68F752C404FF6FC752C40A6
:101950000D882C434FF6FF552A400D894FF6FF7630
:1019600006EA05252A434D8806EA05252A43154D32
:10197000A84202D0144DA8421DD14FF2FF752A4053
:101980004D894FF6FF7606EA05252A434FF6FF35C7
:101990002A408D8806EA05252A434EF6FF752B401E
:1019A0004DF6FF752B408D8906EA05152B43CD8931
:1019B00006EA05152B4383808483CD8885870284BE
:1019C00070BD0000002C0140003401400A46002197
:1019D000818B4FF6F77319401143818370470000E4
:1019E00070B5002200230024058C4EF6FF763540AA
:1019F0000584038C8488828B48F6FF752A404FF655
:101A0000FF452A400D884FF6FF7606EA05252A4352
:101A10004DF6FF752B400D8906EA05352B434D88A1
:101A200006EA05352B430B4DA84202D00A4DA842C9
:101A300008D14BF6FF752C408D894FF6FF7606EAEC
:101A400085152C4384808283CD88A0F84050038480
:101A500070BD0000002C0140003401400A46002106
:101A6000818B4FF2FF7319404FF6FF7303EA022395
:101A7000194381837047818670470187704781874A
:101A80007047A0F84010704781847047028B4FF672
:101A9000F3731A400283028B0A4302837047028B5E
:101AA0004FF2FF331A400283028B4FF6FF7303EAB3
:101AB00001231A4302837047828B4FF6F3731A4057
:101AC0008283828B0A4382837047828B4FF2FF337B
:101AD0001A408283828B4FF6FF7303EA01231A4375
:101AE00082837047002202881D4B98420ED01D4B06
:101AF00098420BD0B0F1804F08D01B4B984205D0D4
:101B00001A4B984202D01A4B984204D14FF68F7369
:101B10001A404B881A43174B984207D0164B9842ED
:101B200004D04FF6FF431A40CB881A4302808B88BB
:101B300083850B8803850A4B98420BD0094B98424A
:101B400008D00E4B984205D00D4B984202D00D4B59
:101B5000984201D10B7A03860123838270470000EB
:101B6000002C014000340140000400400008004007
:101B7000000C0040001000400014004000400140F4
:101B800000440140004801404FF6FF718180002170
:101B90000180C180418001727047000010B50024AF
:101BA00040F22551084800F059F860B1064800F0AD
:101BB00011F9C4B22146044800F011F940F2255150
:101BC000014800F023F810BD0038014010B5002492
:101BD00040F225510A4800F041F880B1084800F071
:101BE000F9F8C4B20749204600F0E2FF054906486B
:101BF00000F0D0FE40F22551014800F007F810BD7A
:101C0000004400407C0500205405002010B500224F
:101C1000002340F66A14A14200D100BF0A12012439
:101C20009440A3B2DC43048010BD21B1828942F408
:101C30000052828104E082894DF6FF731A4082814E
:101C4000704702460020B1F5007F00D100BF138825
:101C50000B400BB1012000E00020704770B5024638
:101C6000002400230025002040F66A16B14200D16E
:101C700000BFC1F3421501F01F03012606FA03F36A
:101C8000012D02D19689334006E0022D02D1168A39
:101C9000334001E0968A33400C12012606FA04F420
:101CA0001688344013B10CB1012000E0002070BD53
:101CB000F0B50346002400260025002040F66A17F0
:101CC000B94200D100BF1846C1F3421401F01F060B
:101CD000012707FA06F5012C01D10C3004E0022C93
:101CE00001D1103000E014301AB107682F430760AB
:101CF00002E00768AF430760F0BD00002DE9F04740
:101D000086B005460E460024A24600BFA146002725
:101D1000B08900B100BF2F462C8A4CF6FF700440FA
:101D2000F08804432C82AC894EF6F3100440B0884E
:101D300031890843718908430443AC81AC8A4FF66A
:101D4000FF400440B0890443AC8201A8FFF79EF92C
:101D50001F48874202D1DDF810A001E0DDF80CA099
:101D6000A88900F4004040B10AEBCA0000EB0A1059
:101D700031684900B0FBF1F807E00AEBCA0000EB5C
:101D80000A1031688900B0FBF1F86420B8FBF0F06C
:101D900004012009642101FB1089A88900F4004096
:101DA00040B1322000EBC900B0FBF1F000F00700B9
:101DB000044308E0322000EB09106421B0FBF1F08D
:101DC00000F00F0004432C8106B0BDE8F08700004E
:101DD0000038014001468888C0F308007047C1F30D
:101DE00008028280704700BFFEE702E008C8121FA9
:101DF00008C1002AFAD170477047002001E001C1F4
:101E0000121F002AFBD1704722E0124800781249C5
:101E100008701048407848700E48807888700D48E7
:101E2000808888800B48C1880B48C1800948806839
:101E3000094988600748C068C8600849064800F03A
:101E4000DDFC1121054801F06BFE322001F0FCFFA2
:101E5000DBE700005405002068050020E0050020B5
:101E60000EB501210846FFF7F1F801210420FFF724
:101E7000FDF801210820FFF7F9F801210846FFF7D6
:101E8000F5F801219348FEF74FFC4FF40040ADF800
:101E9000080004208DF80B0002A98F48FEF7B8FB5C
:101EA0000820ADF8080002A98C48FEF7B1FB01211B
:101EB0008B48FEF739FC6846FFF766FE0020ADF858
:101EC00000004FF6FF70ADF804000020ADF80600EA
:101ED000ADF8020069464FF08040FFF703FE002393
:101EE0001A4603214FF08040FFF7CFFB6846FFF70B
:101EF00055FC0A20ADF8080069464007FFF7F8FBDB
:101F000001218807FFF7A0FB012211469007FFF788
:101F10004EFC00214FF08040FFF7B6FD01218807FD
:101F2000FFF798FB01210220FFF790F8012108201C
:101F3000FFF79CF83020ADF8080004208DF80B0066
:101F400002A96648FEF764FB01216648FEF7ECFB38
:101F50006846FFF719FE0020ADF800004FF6FF704D
:101F6000ADF804000020ADF80600ADF802006946A7
:101F70005D48FFF7B7FD00231A4603215A48FFF7D3
:101F800084FB6846FFF70AFC0A20ADF808006946A2
:101F90005548FFF7ADFB01215348FFF755FB0122E0
:101FA00011465148FFF703FC00214F48FFF76CFD35
:101FB00001214D48FFF74EFB01210420FFF746F8B1
:101FC00001210820FFF752F8C020ADF808000420D6
:101FD0008DF80B0002A94148FEF71AFB6846FFF78F
:101FE000D3FD0020ADF800004FF6FF70ADF80400FF
:101FF0000020ADF80600ADF8020069463B48FFF747
:1020000071FD00231A4603213848FFF73EFB68465E
:10201000FFF7C4FB0A20ADF8080069463348FFF714
:1020200067FB01213148FFF70FFB012211462F48C2
:10203000FFF7BDFB00212D48FFF726FD01212B48AE
:10204000FFF708FB01210820FFF700F80121042019
:10205000FFF70CF80320ADF8080004208DF80B0002
:1020600002A91D48FEF7D4FA6846FFF78DFD00204F
:10207000ADF800004FF6FF70ADF804000020ADF899
:102080000600ADF8020069461948FFF72BFD002352
:102090001A4603211648FFF7F8FA6846FFF77EFB59
:1020A0000A20ADF8080069461148FFF721FB01211D
:1020B0000F48FFF7C9FA012211460D48FFF777FBD9
:1020C00000210B48FFF7E0FC01210948FFF7C2FAA5
:1020D0000EBD00000002300000080140000C01406D
:1020E0000001180000081A00000400400008004029
:1020F000000C004008B501212020FEF7B7FF0121A8
:102100001020FEF7B3FF01210820FEF7AFFF0420E7
:10211000ADF8000048208DF8030069460948FEF735
:1021200077FA41F60740ADF8000069460648FEF729
:102130006FFA4FF48050ADF8000069460348FEF78F
:1021400067FA08BD0014014000100140000C014076
:1021500008B501210420FEF789FF01211020FEF7B8
:1021600085FF4FF40050ADF8000010208DF80300FB
:1021700003208DF8020069460148FEF749FA08BDC0
:102180000010014008B501210820FEF76FFF4FF451
:102190006340ADF8000010208DF8030003208DF897
:1021A000020069460548FEF733FA4FF4C850ADF80F
:1021B000000069460248FEF72BFA08BD000C0140FA
:1021C0000008014010B5FFF7DDFF01214FF4E15099
:1021D00000F004F8FFF744FE10BD000030B589B0F0
:1021E00005460C4601214803FEF740FF012110205F
:1021F000FEF73CFF4FF47070ADF8200018208DF80A
:10220000230003208DF8220008A92648FEF700FAD3
:10221000681E80B2ADF81800601E80B2ADF81400E0
:102220000020ADF81A00ADF8160005A91E48FFF70A
:1022300059FC6020ADF804000120ADF80600002034
:10224000ADF80A00ADF80C0001A91748FFF7B8FA7D
:1022500001A91548FFF70AFB01A91348FFF766FB20
:1022600001A91148FFF7BCFB01210F48FFF7FEF958
:1022700008210D48FFF7F0FA08210B48FFF748FB4B
:1022800008210948FFF7A2FB08210748FFF7E6FBF2
:1022900001210548FFF7CCF901210348FFF7DAF9DE
:1022A00009B030BD00100140003401403EB5054684
:1022B0000C4601211020FEF7C9FE681E80B2ADF861
:1022C0000400601E80B2ADF800000020ADF80600EA
:1022D000ADF8020069460E48FFF704FC36208DF881
:1022E000080005208DF8090000208DF80A00012063
:1022F0008DF80B0002A8FEF7A5FC01221146044848
:10230000FFF755FA01210248FFF7A4F93EBD00008E
:10231000001000401FB5044601218803FEF7A6FE09
:1023200001210420FEF7A2FE4FF40070ADF80C006E
:1023300003208DF80E0018208DF80F0003A91C480B
:10234000FEF766F94FF48060ADF80C0004208DF8BC
:102350000F0003A91648FEF75BF925208DF80C0045
:1023600003208DF80D0000208DF80E0001208DF85F
:102370000F0003A8FEF766FC00940020ADF80400EF
:10238000ADF80600ADF80800ADF80C000C20ADF873
:102390000A0069460748FFF7B1FC012240F22551C7
:1023A0000448FFF785FC01210248FFF73EFC1FBDF2
:1023B00000080140003801401FB5044601214804CF
:1023C000FEF744FE01210420FEF750FE0420ADF884
:1023D0000C0003208DF80E0018208DF80F0003A9C3
:1023E0001B48FEF715F90820ADF80C0004208DF805
:1023F0000F0003A91648FEF70BF926208DF80C00F4
:1024000003208DF80D0000208DF80E0001208DF8BE
:102410000F0003A8FEF716FC00940020ADF804009E
:10242000ADF80600ADF80800ADF80C000C20ADF8D2
:102430000A0069460748FFF761FC012240F2255176
:102440000448FFF735FC01210248FFF7EEFB1FBDF2
:10245000000801400044004070B50446B4F93C3126
:10246000B4F93621B4F93011B4F92A0100F002FCB4
:1024700070BD0146002001E0421C10B20428FBDBC5
:102480007047000010B50446042001F0B1FA00B214
:10249000A4F82601022001F0ABFA404201B24FF449
:1024A00096700153032001F0A3FA404201B24FF4A9
:1024B00099700153052001F09BFA01B24FF49C7012
:1024C00001533248006838B930480830006818B9FC
:1024D000022084F83E0122E02C480068012807D140
:1024E0002A480830006818B9002084F83E0116E038
:1024F0002648006840B9254808300068012803D103
:10250000032084F83E010AE020480068012806D133
:102510001E4808300068012801D184F83E0194F873
:102520003E0102280BD11A48C088A4F8200118489F
:102530008088A4F822010020A4F8240124E094F863
:102540003E0148B90020A4F820011420A4F822017B
:102550000020A4F8240117E094F83E01032808D1D4
:102560001420A4F820010020A4F82201A4F82401DA
:102570000AE094F83E01012806D10020A4F82001C9
:10258000A4F82201A4F8240110BD00000001224299
:102590005405002010B58EB004461D4A07CA0BAB87
:1025A00007C31B4A0C3207CA08AB07C3184A1832C4
:1025B00007CA05AB07C3164A243207CA02AB07C3D2
:1025C0001448154B0BAA002100902046FEF722FD6F
:1025D0001048114B08AA0021009004F14800FEF7B2
:1025E00019FD0C480C4B05AA0021009004F1900045
:1025F000FEF710FD0748084B02AA0021009004F1E5
:10260000D800FEF707FD022084F83E010EB010BD91
:10261000E44D00080000C84300C0DA452DE9F04150
:102620000546002428E004EB440205F5937101EB14
:102630004201B1F90200FDF791FE074604EB4402A6
:1026400005F5937131F91200FDF788FE804604EB21
:10265000C40105EBC1003A464146FEF72BFC064695
:10266000FDF796FE01B204EB440205F5937000EB12
:1026700042008180601C04B2042CD4DBBDE8F081F0
:1026800090F83E1121BBB0F82011B0F8222111447E
:102690000AB24FF494710A52B0F82011B0F8222116
:1026A000891A0AB24FF497710A52B0F82011B0F8A3
:1026B0002221891A0AB24FF49A710A52B0F82011F5
:1026C000B0F8222111440AB24FF49D710A5279E008
:1026D00090F83E11022924D1B0F82011B0F822213F
:1026E00011440AB24FF494710A52B0F82011B0F8B4
:1026F0002221891A0AB24FF497710A52B0F82011B8
:10270000B0F82221891A0AB24FF49A710A52B0F82D
:102710002011B0F8222111440AB24FF49D710A52DF
:1027200050E090F83E11032924D1B0F82011B0F800
:10273000222111440AB24FF494710A52B0F82011C8
:10274000B0F82221891A0AB24FF497710A52B0F8F0
:102750002011B0F82221891A0AB24FF49A710A5254
:10276000B0F82011B0F8222111440AB24FF49D7143
:102770000A5227E090F83E11012923D1B0F8201128
:10278000B0F8222111440AB24FF494710A52B0F801
:102790002011B0F82221891A0AB24FF497710A5217
:1027A000B0F82011B0F82221891A0AB24FF49A71B8
:1027B0000A52B0F82011B0F8222111440AB24FF4A5
:1027C0009D710A52704700000B48FFF7E3FE11E0CD
:1027D0000948FFF74EFE0848FFF754FE0648FFF78A
:1027E0004FFF0548FFF71AFF0348FFF735FE0520A6
:1027F00001F02AFBECE7000044060020F0B5034698
:102800000025002600221125A5240C705A276C1ED5
:102810000F55521C00200BE0002704464FEAE07CD5
:1028200000EB5C7C02EBEC0C01F80C70441CE0B299
:102830000228F1DB002026E0C71700EB577702EBF8
:10284000E707CF5D7F063F0E04464FEAE07C00EBD2
:102850005C7C02EBEC0C01F80C70C71700EB5777AF
:1028600002EBE707CF5DC0F1010C13F80CC047EA9B
:102870000C074FEAE07C00EB5C7C02EBEC0C01F80F
:102880000C70441CE0B20228D6DB541CE2B20020DB
:1028900005E09C1C245C1718CC55441CE0B20128B0
:1028A000F7DB541CE2B2002010E01C1D34F810408D
:1028B000C4F3072702EB4004641C0F551C1D14F8D9
:1028C000104002EB4007CC55441CE0B20228ECDB80
:1028D000141DE2B2002025E003F1080454F8204062
:1028E000270E02EB8004E41C0F5503F1080454F892
:1028F0002040C4F3074702EB8004A41C0F5503F1EA
:10290000080434F82040C4F3072702EB8004641C59
:102910000F5503F1080414F8207002EB80040F55E2
:10292000441CE0B20128D7DB141DE2B200201EE0F7
:1029300003F10C0454F82040154F3C603C46E77806
:1029400002EB8004E41C0F55114CA77802EB8004C5
:10295000A41C0F550E4C677802EB8004641C0F55C5
:102960000B4C247802EB8007CC55441CE0B20128C4
:10297000DEDB002005E0441C0C5D3444E6B2441C60
:10298000E0B2EC1E8442F6DCAC1E0E55F0BD000039
:102990003C0000202DE9F0410446002600270022DB
:1029A00011260B78A52B78D1731ECB5C5A2BFAD14C
:1029B000002005E0431CCB5C3B44DFB2431CD8B293
:1029C000F31E8342F6DCB31ECB5CBB42EBD1531C3F
:1029D000DAB2002019E003464FEAE07C00EB5C7CB1
:1029E00002EBEC0C11F80CC005464FEAE07800EB66
:1029F00058784FEAE808A0EBC8084CFA08FC0CF03D
:102A0000010C04F800C0431CD8B20228E3DB531CBD
:102A1000DAB2002005E01318CD5CA31C1D54431C42
:102A2000D8B20128F7DB531CDAB200200EE002EB2B
:102A30004003CD5C02EB40035B1CCB5C05EB032346
:102A40001DB2231D23F81050431CD8B20228EEDB20
:102A5000131DDAB200201AE002EB8003DB1CCB5C12
:102A60001D0602EB80039B1CCB5C05EB034502EBD0
:102A700080035B1CCB5C05EB032302EB80054D5D03
:102A80001D4404F1080343F82050431CD8B2012828
:102A9000E2DB131DDAB200201CE01DE002EB800334
:102AA000DB1CCB5C0D4DEB7002EB80039B1CCB5C05
:102AB000AB7002EB80035B1CCB5C6B7002EB8003A2
:102AC000CB5C2B702B461D6804F10C0343F820509F
:102AD000431CD8B20128E1DBBDE8F0813C000020B6
:102AE00010B50420FEF7FAFB48200C490870482472
:102AF0004FF47A7044430120094908804FF0E020E8
:102B0000006940F002004FF0E0210861084644618E
:102B1000006940F00100086110BD0000280000209D
:102B20002A00002070B5044601F008FF012811D0EA
:102B30000C480088844206DB0A48008894FBF0F5C4
:102B4000284601F081F90748008894FBF0F100FB6A
:102B5000114084B24FF47A7104FB01F000F004F8E4
:102B600070BD00002A00002070B5034600224FF01F
:102B7000E02675690D4E367803FB06F44FF0E0262B
:102B8000B16910E04FF0E026B06988420BD088426E
:102B900002D20E1A324402E02E1A0E44324401468A
:102BA000A24200D300E0EDE700BF70BD2800002086
:102BB000A52806D108700B4A1278521C094B1A70CE
:102BC0000FE0084A1278002A0BDD064A1278885472
:102BD000044A1278521C034B1A705A2801D1002261
:102BE0001A707047400000204FF44070FEF762F802
:102BF0004FF4E130FFF78EFB4FF4E130FFF7DCFBE1
:102C0000FFF76EFFFFF7A4FA482141F28830FFF783
:102C10004DFBFFF76FFAFFF7D5FAFDF72BFFFEF735
:102C20006BF800F017FF01F005FA00BFFEE70000A7
:102C300070B50446B4F90000FDF799FB0546002283
:102C40000A4BFDF7D7FB03D24FF4B45020800CE0C1
:102C5000B4F90000FDF78BFB05460022044BFDF79D
:102C6000B1FB02D24EF68010208070BD0080B640CD
:102C70000080B6C01FB56846FFF7DAFF01A8FFF76E
:102C8000D7FF02A8FFF7D4FF03A8FFF7D1FFBDF9D4
:102C9000000000280DDD01203F49086000203F4969
:102CA000C1F8A001BDF8000081B23D48FEF7E7FE83
:102CB0000DE000203849086001203849C1F8A00122
:102CC000BDF80000404281B23548FEF7D8FEBDF99C
:102CD000040000280EDD01202F4918310860002073
:102CE0003049C1F8A001BDF8040081B22C48FEF7BC
:102CF000C4FE0EE00020284918310860012029494F
:102D0000C1F8A001BDF80400404281B22448FEF79A
:102D1000B4FEBDF9080000280EDD00201E49103168
:102D2000086001201D49C1F8B801BDF8080081B252
:102D30001B48FEF7A0FE0EE0012017491031086085
:102D400000201649C1F8B801BDF80800404281B220
:102D50001348FEF790FEBDF90C0000280DDD0020A1
:102D60001149086001200F49C1F8B001BDF80C00FD
:102D700081B20B48FEF785FE0DE001200A4908608C
:102D800000200849C1F8B001BDF80C00404281B2F2
:102D90000348FEF776FE1FBDA48121420080214238
:102DA0000034014000002142AC0121422DE9F041F4
:102DB00005460E461C4807681C480068001D00F0C8
:102DC000D2FE50B91948006890F82C1001208840B4
:102DD00017490968814316480160681C38B936B143
:102DE00012480168091D134800F0FBFE1AE07C1927
:102DF0000E4800684460BC4207D20C480168091DB7
:102E00000D48006800F0D3FE0CE008480168091D79
:102E10000A48006800F0CBFE09480068844201D2ED
:102E200007480460BDE8F0816800002054000020DD
:102E30006C000020940A00205C0000205800002054
:102E40008400002010B5044600F0D8FE2448006835
:102E5000401C234908602348006840B921480460A9
:102E60000846006801280DD100F0D8F90AE01E4894
:102E7000006838B91B480068C06AE16A884201D816
:102E80001848046019480068401C18490860084642
:102E90000068606494F82C10012088401449096887
:102EA000084313490860E16A01EB8101114A02EB12
:102EB0008100211D00F095FE00F0CAFE0A4800685E
:102EC00068B108480068C06AE16A884207D24FF0DA
:102ED000805009490860BFF34F8FBFF36F8F10BD5B
:102EE00064000020540000207000002080000020BA
:102EF0006C000020C407002004ED00E010B500F0D5
:102F00007DFE10480068D0B90F4800F040FE0F4821
:102F100000F03DFE0C480E4908600C480D49086061
:102F200000221021052001F0B7F906490860084683
:102F3000006820B108A10348006800F049FF00F0D4
:102F400087FE10BD9C000020A80A0020BC0A0020BB
:102F50009400002098000020546D72510000000081
:102F600010B516E000F04AFE0C48C068C468201D89
:102F700000F0F9FD0A480068401E09490860094848
:102F80000068401E0749086000F062FE204600F01D
:102F90005FF8044800680028E4D110BD800A0020D2
:102FA000640000206000002070B504460D46206CCF
:102FB00070B1216CE0680144E160D4E902108842FC
:102FC00001D32168E1602846226CE168FDF718F919
:102FD00070BD2DE9F04104460F4615464FF000083C
:102FE000A66B206C48B9206800282CD1A06801F09D
:102FF0005FFD80460020A06025E07DB93946226C47
:103000006068FDF7FDF8216C606808446060D4E9F1
:103010000101884217D32068606014E03946226CB1
:10302000E068FDF7EDF8216CE068411AE160216885
:10303000E068884203D2216CA068411AE160022D49
:1030400001D106B1761E701CA0634046BDE8F08138
:1030500010B50446206B00F019FE204600F016FE65
:1030600010BD00000146084A126812680AB9012220
:1030700000E000220A600A6822B9034A1268D26896
:10308000106800E0002070479400002030B54FF435
:103090000043174800F007042CB1C01D20F00700C2
:1030A000134C041B1B1B0246124C22600024114DC2
:1030B0006C60D018083820F007000F4C2060002406
:1030C0000D4D2D686C600C4D2D682C601146441A16
:1030D0004C60094C24680C60084D4C682C60084D0D
:1030E0004C682C604FF00044064D2C6030BD000051
:1030F000D00A0020A8000020B0000020B800002066
:10310000B4000020C400002000BFFFF729FF0648DC
:1031100000680128F9D94FF0805004490860BFF3D6
:103120004F8FBFF36F8FF0E7C407002004ED00E07E
:103130002DE9F04106460D4617469846069C0DB906
:10314000246000E02760E66325640121204601F049
:10315000F5F884F850800020A064BDE8F0812DE9E6
:10316000F05F82460E4690469B460A9F0C9C4FEAB3
:103170008801A522206BFDF755F8A8F10100216B0D
:1031800001EB800929F0070909F0070008B90120BF
:1031900000E0002050B900BF502080F31188BFF339
:1031A0004F8FBFF36F8F00BF00BFFEE786B10025D2
:1031B00007E0715D04F134004155705D00B902E033
:1031C0006D1C102DF5D300BF00214320015502E0F6
:1031D000002084F83400202F00D31F27E762E76423
:1031E00000202065201D00F0DFFC04F1180000F035
:1031F000DBFC2461C7F12000A061646200206065EF
:1032000084F858005A465146484600F0DFFB2060DB
:103210000B9808B10B980460BDE8F09F10B500242E
:1032200007E004EB84010F4A02EB810000F0AFFCE1
:10323000641C202CF5D30C4800F0A9FC0B4800F0CE
:10324000A6FC0B4800F0A3FC0A4800F0A0FC0A48CA
:1032500000F09DFC044809490860044808490860DA
:1032600010BD0000C4070020440A0020580A0020B6
:103270006C0A0020800A0020940A002058000020D8
:103280005C00002010B50146164800E000680368A5
:103290008B42FBD30246436813448B4204D14368FC
:1032A0004C682344436001460A464B681344046853
:1032B000A34211D10C4C03682468A34208D04B6888
:1032C0000468646823444B6003681B680B6005E076
:1032D000054B1B680B6001E003680B60884200D05F
:1032E000016010BDA8000020B00000202DE9F041D1
:1032F00004460D4616461F464FF0000865602461DF
:10330000B5420CD8F01BA169884202D34FF00108E6
:1033100011E0211D0948006800F049FC0BE0BE42A5
:1033200004D2BD4202D34FF0010804E0211D04483D
:10333000006800F03CFC4046BDE8F08198000020A9
:103340009400002070B5054600F058FCA86B08B941
:10335000012400E0002400F07BFC204670BD70B525
:10336000054600F04BFCA86BE96B884201D10124B3
:1033700000E0002400F06CFC204670BDF1B5009820
:10338000846C002654B900BF502080F31188BFF32D
:103390004F8FBFF36F8F00BF00BFFEE7A06BE16BE5
:1033A000884201D2012000E0002050B900BF502027
:1033B00080F31188BFF34F8FBFF36F8F00BF00BF43
:1033C000FEE7A06BE16B88422CD294F945500022B5
:1033D00069462046FFF7FDFD0646681C60B9606A35
:1033E00008B9012000E00020D8B904F1240001F060
:1033F000BDFBB0B1012614E07F2D01D0012000E01B
:10340000002050B900BF502080F31188BFF34F8FC8
:10341000BFF36F8F00BF00BFFEE7681C40B284F8A7
:10342000450000BF3046F8BDF8B505460F461A48BE
:103430000068C068C468201D00F095FB94F828005F
:1034400000F00400E8B1A06941192B463A46204635
:10345000FFF74CFFD8B1002003462A4601460090F2
:10346000204601F07DFC064656B900BF502080F38F
:103470001188BFF34F8FBFF36F8F00BF00BFFEE710
:1034800005E094F8280020F0010084F82800204688
:10349000216A8847F8BD000094000020F0B587B08D
:1034A000A0E00398002811DA04AE56B900BF5020FE
:1034B00080F31188BFF34F8FBFF36F8F00BF00BF42
:1034C000FEE7D6E90020B168904700BF03980028C6
:1034D000E6DB059C606908B9012000E0002010B916
:1034E000201D00F040FB02A800F0DCF80546039820
:1034F0000A2875D2DFE800F009050739416306089C
:103500003A4200BF00BF00BF00BF94F8280040F05F
:10351000010084F828000498A269811803462A460D
:103520002046FFF7E3FEF8B12046216A884794F869
:10353000280000F00400B8B1002000900498A169B0
:10354000421800231946204601F00AFC074657B9E5
:1035500000BF502080F31188BFF34F8FBFF36F8FF0
:1035600000BF00BFFEE700BF3BE000BF94F82800AB
:1035700020F0010084F8280033E000BF94F8280010
:1035800040F0010084F828000498A061A06908B107
:10359000012000E0002050B900BF502080F31188C6
:1035A000BFF34F8FBFF36F8F00BF00BFFEE7A0696F
:1035B00041192B462A462046FFF798FE11E094F861
:1035C000280000F0020018B9204600F05FFB05E07B
:1035D00094F8280020F0010084F8280001E0FFE7BB
:1035E00000BF00BF002203A90448006801F07AF878
:1035F00000287FF456AF07B0F0BD00009C0000200B
:10360000F8B505460C4600F063FD684600F04AF840
:103610000646009820BB44B9B54206D801F0F2FA3C
:1036200031462846FFF700FF1CE03CB10E48006819
:10363000006808B9012000E000200446A91B2246CA
:103640000A48006800F0DAFB01F0DCFA50B94FF0EC
:10365000805007490860BFF34F8FBFF36F8F01E0C1
:1036600001F0D0FAF8BD0000980000209C00002076
:1036700004ED00E009480068006808B9012000E096
:10368000002020B14FF0FF300549086005E00348F5
:103690000068C06800680249086070475800002050
:1036A0008400002070B5044601F058F9054607482B
:1036B0000068854204D200F00BF80120206001E090
:1036C0000020206001480560284670BDA40000204D
:1036D0002DE9F84334E025480068C06805682348B0
:1036E0000068C068C468201D00F03DFA2046216AC9
:1036F000884794F8280000F0040008B3A069461930
:10370000AE4207D966602461211D1848006800F0A8
:103710004EFA15E0002003462A4601460090204656
:1037200001F01EFB074657B900BF502080F31188F7
:10373000BFF34F8FBFF36F8F00BF00BFFEE700BF27
:103740000A480068006808B9012000E0002000284D
:10375000C1D00648D0F800800548006803490860D9
:103760000348C0F80080BDE8F88300009400002002
:10377000980000200E480068401C08B9012000E0B5
:10378000002050B900BF502080F31188BFF34F8F45
:10379000BFF36F8F00BF00BFFEE700BF502080F374
:1037A0001188BFF34F8FBFF36F8F00BF00BFFEE7DD
:1037B000C800002008B500BF6846FFF753FC044668
:1037C00020460099FFF71CFFFFF768FEF4E770B58D
:1037D000044600F013FA94F9455019E0A06C30B19A
:1037E0002046FFF7CBFD88B100F0E2FB0EE0606AF7
:1037F00008B9012000E0002038B904F1240001F0EC
:10380000B5F918B100F0D4FB00E003E0681E45B242
:10381000002DE3DC00BFFF2084F8450000F018FA1B
:1038200000F0ECF994F9445010E0206908B9012047
:1038300000E0002048B904F1100001F097F908B148
:1038400000F0B6FB681E45B200E001E0002DECDCA4
:1038500000BFFF2084F8440000F0FAF970BD0000BA
:103860002DE9F04104464FF0000800F031FC5148CA
:10387000006808B9FFF70AFC4F480068204000289C
:103880007ED13CB304F10800A04223D9083404F0EF
:10389000070000B304F00700C0F108002044A04274
:1038A00016D904F00700C0F10800044404F0070032
:1038B00008B9012000E0002068B900BF502080F363
:1038C0001188BFF34F8FBFF36F8F00BF00BFFEE7BC
:1038D000002400E00024002C54D0384800688442C2
:1038E00050D8374E3046056801E02E462D6868688E
:1038F000A04202D228680028F7D12E4800688542ED
:1039000040D0306800F10808286830606868001B03
:10391000102819D92F1907F0070008B9012000E075
:10392000002050B900BF502080F31188BFF34F8FA3
:10393000BFF36F8F00BF00BFFEE76868001B7860B1
:103940006C603846FFF79EFC1C4968680968081AD5
:103950001A490860084600681A490968884203D273
:1039600016480068174908601349686809680843E1
:1039700068600020286014480068401C124900E07C
:1039800000E0086001F03EF908F0070008B90120E6
:1039900000E0002050B900BF502080F31188BFF331
:1039A0004F8FBFF36F8F00BF00BFFEE74046BDE8FB
:1039B000F0810000B0000020C4000020B40000200E
:1039C000A8000020B8000020BC000020001F4FF01D
:1039D00080730360001F21F001030360001F034B8D
:1039E0000360143802602038704700007537000803
:1039F0000146022906D003290DD0042912D0052939
:103A00001ED116E04FF08042928C10B200224FF08F
:103A100080439A8416E00C4A128810B200220A4BA6
:103A20001A800FE0094A128810B20022074B1A8050
:103A300008E0074A128810B20022054B1A8001E004
:103A4000002000BF00BF704724040040240800404D
:103A5000240C00401CB50548012100238022CDE93B
:103A6000001003A1054800F039FF1CBD44000020F0
:103A700073746172745F7461736B0000813A000843
:103A80001CB5044600F0BAF8134804210023CA010B
:103A9000CDE9001011A1144800F020FF13480521C2
:103AA00000234FF40072CDE9001011A1144800F07A
:103AB00015FF1448062100234FF40072CDE90010D1
:103AC00011A1154800F00AFF1448006800F0EAF957
:103AD00000F0BEF81CBD0000480000207573657240
:103AE0005F7461736B0000005D3B00084C000020B8
:103AF000626C7565746F6F74685F7461736B0000DE
:103B0000091E000850000020636861737369735FC9
:103B10007461736B00000000C92700084400002096
:103B200070B505460E46002404E0285D00F006F856
:103B3000601C84B2B442F8DB70BD000010B50446CE
:103B400021460548FEF74BF900BF80210248FEF7E9
:103B500078F80028F9D010BD0044004002E064204D
:103B600000F072F9FBE701460A69D1E9013098607B
:103B7000D1E9010358605068884201D188685060DB
:103B8000002008611068401E10601068704700F146
:103B9000080141604FF0FF31816000F10801C16010
:103BA000016100210160704700210161704710B57B
:103BB00002460B685C1C0CB9106907E002F10800B2
:103BC00000E04068446824689C42FAD944684C602C
:103BD0004C68A160886041600A611468641C1460CC
:103BE00010BD42684A6093688B6093685960916029
:103BF000086103685B1C03607047000000BF502031
:103C000080F31188BFF34F8FBFF36F8F00BF0E4853
:103C10000068401C0C49086008460068012812D161
:103C20000A480068C0B208B9012000E0002050B97D
:103C300000BF502080F31188BFF34F8FBFF36F8F09
:103C400000BF00BFFEE77047C800002004ED00E0A1
:103C50000D48006850B900BF502080F31188BFF3B1
:103C60004F8FBFF36F8F00BF00BFFEE706480068AD
:103C7000401E054908600846006820B9002080F30E
:103C8000118800BF00BF7047C800002070B506460D
:103C90003546002E44D0083D2C462249606809680C
:103CA000084008B1012000E0002050B900BF5020BA
:103CB00080F31188BFF34F8FBFF36F8F00BF00BF3A
:103CC000FEE7206808B9012000E0002050B900BFDD
:103CD000502080F31188BFF34F8FBFF36F8F00BF69
:103CE00000BFFEE70F49606809680840C0B120685E
:103CF000B0B90C49606809688843606000F0E8F971
:103D00000949606809680844074908602046FFF7C8
:103D1000B9FA06480068401C0449086000F072FFC8
:103D200070BD0000C4000020B4000020C0000020CE
:103D300000204FF0E02108618861064800684FF4D8
:103D40007A71B0FBF1F0401E4FF0E021486107208E
:103D5000086170470000002070B5FCF73BFA04468C
:103D6000102C16D304F1E02090F8F0531548007899
:103D7000854201DB012000E0002050B900BF502047
:103D800080F31188BFF34F8FBFF36F8F00BF00BF69
:103D9000FEE70D48006800F4E0600C4909688842BD
:103DA00001D8012000E0002050B900BF502080F36E
:103DB0001188BFF34F8FBFF36F8F00BF00BFFEE7C7
:103DC00070BD0000CC0000200CED00E0D000002011
:103DD000024600200BE0084B53F8303033B9064B55
:103DE00043F8301003EBC0035A6002E0401C08287F
:103DF000F1D300BF70470000840700202DE9F04197
:103E000005460E4617462C46FFF7F8FE94F9440087
:103E1000401C10B9002084F8440094F94500401C6F
:103E200010B9002084F84500FFF712FFA06B28B9F5
:103E30003A46314604F1240000F0DCF82046FFF752
:103E4000C6FCBDE8F081000070B504460025D4B181
:103E50001248006808B9012000E0002050B900BFF6
:103E6000502080F31188BFF34F8FBFF36F8F00BFD7
:103E700000BFFEE700F02CF900212046FEF796FF78
:103E800000F0C0FE05463DB94FF08050044908607F
:103E9000BFF34F8FBFF36F8F70BD00009000002005
:103EA00004ED00E070B50546FFF7A8FE15B93048EF
:103EB000006800E028460446201DFFF754FE78B94C
:103EC000E06A00EB80002B4951F8200040B994F8DB
:103ED0002C10012088402849096881432648016048
:103EE000A06A18B104F11800FFF73DFE23480068EE
:103EF000401C224908601E480068844209D1211DE7
:103F00001F48FFF76EFE1F480068401C1D490860EF
:103F100009E01D480068401E1B4908602046FFF765
:103F200097F8FFF7A7FBFFF793FE18480068E8B182
:103F30000F480068844219D11548006808B901206B
:103F400000E0002050B900BF502080F31188BFF37B
:103F50004F8FBFF36F8F00BF00BFFEE74FF0805061
:103F60000C490860BFF34F8FBFF36F8F70BD000027
:103F700054000020C40700206C00002080000020B6
:103F8000800A0020600000206400002070000020F3
:103F90009000002004ED00E0034909680160034936
:103FA00009684160704700007C0000206800002024
:103FB00001200149086070477800002070B5044670
:103FC0000D4654B900BF502080F31188BFF34F8FC6
:103FD000BFF36F8F00BF00BFFEE7054801681831CF
:103FE0002046FFF7E4FD01212846FEF7DFFE70BD05
:103FF0005400002070B505460E46144655B900BF62
:10400000502080F31188BFF34F8FBFF36F8F00BF35
:1040100000BFFEE70648016818312846FFF7E1FDBA
:104020000CB14FF0FF3621463046FEF7BFFE70BDA3
:10403000540000201CB51E4800210B468222CDE909
:1040400000101CA11D4800F049FC0446012C02D1BF
:1040500000F05AFE0446012C15D100BF502080F319
:104060001188BFF34F8FBFF36F8F00BF4FF0FF304A
:1040700013490860012013490860002012490860B4
:1040800000F074F810E0601C08B1012000E000208E
:1040900050B900BF502080F31188BFF34F8FBFF39A
:1040A0006F8F00BF00BFFEE7084800681CBD00001E
:1040B0008800002049444C450000000009310008F8
:1040C0008400002070000020680000208C00002088
:1040D00002480068401C01490860704790000020B9
:1040E0001D48006818B101201C49086032E000201A
:1040F0001A4908601A480068B0FA80F0C0F11F0140
:1041000001EB8100174A52F8200008B1012000E0BD
:10411000002050B900BF502080F31188BFF34F8FAB
:10412000BFF36F8F00BF00BFFEE701EB81020D4BB5
:1041300003EB820042685268426000F10802436863
:10414000934202D14268526842604268D268064B8C
:104150001A6000BF70470000900000207800002027
:104160006C000020C4070020540000201CB5384912
:10417000084600780190FF200A4610700846007833
:1041800000909DF8000000F0F0009DF800209042A3
:1041900001D1012000E0002050B900BF502080F381
:1041A0001188BFF34F8FBFF36F8F00BF00BFFEE7D3
:1041B0009DF8000000F05000264A10700720264AA3
:1041C000106009E024480068401E234A10609DF8F2
:1041D00000004006000E00909DF8000000F08000F6
:1041E0008028EFD01C480068C0F10700042801D1E6
:1041F000012000E0002050B900BF502080F311885A
:10420000BFF34F8FBFF36F8F00BF00BFFEE71248B1
:1042100000680002104A10601046008800F4E06058
:1042200010600B4A019810700C48006840F4700050
:104230000A4908600846006840F070400860FFF7CF
:1042400077FD002006490860FBF78EFF00201CBDAB
:1042500000E400E0CC000020D000002020ED00E0D1
:10426000C800002010B500BF502080F31188BFF3B4
:104270004F8FBFF36F8F00BF00F076FB18B14FF088
:1042800080500449086000BF002080F3118800BFFF
:1042900010BD000004ED00E02DE9F84306460F468E
:1042A00090460EB1012000E0002050B900BF502020
:1042B00080F31188BFF34F8FBFF36F8F00BF00BF34
:1042C000FEE706FB07F51FB1B5FBF7F0B04201D1E1
:1042D000012000E0002050B900BF502080F3118879
:1042E000BFF34F8FBFF36F8F00BF00BFFEE705F135
:1042F0005400A84201D9012000E0002050B900BFBD
:10430000502080F31188BFF34F8FBFF36F8F00BF32
:1043100000BFFEE705F15400FFF7A2FA04464CB1D6
:10432000A14609F1540943464A46394630460094AD
:10433000FEF7FEFE2046BDE8F883000070B5054696
:104340000E462C4654B900BF502080F31188BFF3AD
:104350004F8FBFF36F8F00BF00BFFEE7FFF74EFC2C
:10436000D4E90F12206801FB0200A0600020A063C6
:1043700020686060E06B401E226C216800FB021127
:10438000E160FF2084F8440084F845009EB920696C
:1043900008B9012000E00020A8B904F1100000F0E5
:1043A000E5FB80B14FF0805009490860BFF34F8FA3
:1043B000BFF36F8F07E004F11000FFF7E8FB04F193
:1043C0002400FFF7E4FBFFF743FC012070BD000071
:1043D00004ED00E02DE9FF4782B0064688461D4601
:1043E0004FF00009344654B900BF502080F31188C3
:1043F000BFF34F8FBFF36F8F00BF00BFFEE7B8F171
:10440000000F01D1206C08B9012000E0002050B954
:1044100000BF502080F31188BFF34F8FBFF36F8F21
:1044200000BF00BFFEE7022D02D1E06B012801D1E1
:10443000012000E0002050B900BF502080F3118817
:10444000BFF34F8FBFF36F8F00BF00BFFEE700F0D9
:1044500075FA08B9049808B9012000E0002050B9A5
:1044600000BF502080F31188BFF34F8FBFF36F8FD1
:1044700000BF00BFFEE700BFFFF7C0FBA06BE16B12
:10448000884201D3022D3ED1D4F838A02A464146B5
:104490002046FEF79EFD0746A06C88B1022D02D192
:1044A000BAF1000F29D12046FEF768FF28B34FF07C
:1044B00080503D490860BFF34F8FBFF36F8F1CE002
:1044C000606A08B9012000E0002068B904F1240006
:1044D00000F04CFB88B14FF0805033490860BFF3C7
:1044E0004F8FBFF36F8F08E03FB14FF080502E49E0
:1044F0000860BFF34F8FBFF36F8FFFF7A9FB012059
:1045000006B0BDE8F087049818B9FFF7A1FB0020BA
:10451000F6E7B9F1000F04D16846FFF73DFD4FF013
:104520000109FFF795FBFFF7D3FDFFF767FB94F950
:104530004400401C10B9002084F8440094F9450060
:10454000401C10B9002084F84500FFF781FB04A946
:10455000684600F07BF9F8B92046FEF700FFA8B1E5
:1045600004F110000499FFF729FD2046FFF72FF909
:1045700000F048FB00287FF47FAF4FF080500A49DD
:104580000860BFF34F8FBFF36F8F75E72046FFF7CB
:104590001EF900F037FB6FE72046FFF718F900F02F
:1045A00031FB0020ACE7000004ED00E02DE9F84FFE
:1045B00080468B4615461E46444654B900BF5020DF
:1045C00080F31188BFF34F8FBFF36F8F00BF00BF21
:1045D000FEE7BBF1000F01D1206C08B9012000E01B
:1045E000002050B900BF502080F31188BFF34F8FD7
:1045F000BFF36F8F00BF00BFFEE7022E02D1E06B5A
:10460000012801D1012000E0002050B900BF502056
:1046100080F31188BFF34F8FBFF36F8F00BF00BFD0
:10462000FEE7FFF799FB00BF5021EFF3118081F304
:104630001188BFF34F8FBFF36F8F00BF0746A06B8A
:10464000E16B884201D3022E42D194F945A0A06BC0
:104650000090324659462046FEF7BBFC0AF10100A5
:10466000E0B9A06C58B1022E01D1009868BB204679
:10467000FEF784FE48B345B30120286025E0606A58
:1046800008B9012000E00020F8B904F1240000F08E
:104690006DFAD0B1CDB10120286016E0BAF17F0FDC
:1046A00001D0012000E0002050B900BF502080F36D
:1046B0001188BFF34F8FBFF36F8F00BF00BFFEE7BE
:1046C0000AF1010040B284F845004FF0010901E011
:1046D0004FF0000900BF87F3118800BF4846BDE8CE
:1046E000F88F00002DE9F74183B005460E464FF0E4
:1046F00000082C4654B900BF502080F31188BFF346
:104700004F8FBFF36F8F00BF00BFFEE70EB9206C65
:1047100008B9012000E0002050B900BF502080F30C
:104720001188BFF34F8FBFF36F8F00BF00BFFEE74D
:1047300000F004F908B9059808B9012000E000204C
:1047400050B900BF502080F31188BFF34F8FBFF3E3
:104750006F8F00BF00BFFEE700BFFFF74FFAA76BE8
:10476000F7B131462046FEF71FFC781EA063206992
:1047700008B9012000E0002060B904F1100000F049
:10478000F5F938B14FF080502F490860BFF34F8FD3
:10479000BFF36F8FFFF75CFA012006B0BDE8F08130
:1047A000059818B9FFF754FA0020F6E7B8F1000FA2
:1047B00004D101A8FFF7F0FB4FF00108FFF748FA1A
:1047C000FFF786FCFFF71AFA94F94400401C10B971
:1047D000002084F8440094F94500401C10B90020E2
:1047E00084F84500FFF734FA05A901A800F02EF877
:1047F000F0B92046FEF7A6FDA0B104F1240005990A
:10480000FFF7DCFB2046FEF7E2FF00F0FBF9002893
:10481000A3D14FF080500C490860BFF34F8FBFF316
:104820006F8F9AE72046FEF7D2FF00F0EBF994E78E
:104830002046FEF7CCFF00F0E5F92046FEF782FDAA
:1048400000288AD00020A8E704ED00E070B50546F6
:104850000C4655B900BF502080F31188BFF34F8F2D
:10486000BFF36F8F00BF00BFFEE754B900BF5020F9
:1048700080F31188BFF34F8FBFF36F8F00BF00BF6E
:10488000FEE7FFF7BBF9134802686868131A20684F
:10489000401C08B9002619E00F49286809688842B9
:1048A00006D06868904203D80126002020600DE001
:1048B0002068984207D92068C01A20602846FFF770
:1048C0006BFB002602E0002020600126FFF7C0F904
:1048D000304670BD680000207C0000202DE9FF4FAD
:1048E00085B0804689461746DDE912ABB800FEF771
:1048F000B7FF064656B15C20FEF7B2FF04460CB186
:10490000266304E03046FFF7C1F900E000247CB1E3
:104910000020CDE900ABCDE902403A464946404689
:10492000089BFEF71CFC2046FEF78CFA012501E0EF
:104930004FF0FF35284609B0BDE8F08F05490968FA
:1049400009B9012005E00449096809B9022000E01D
:104950000020704770000020900000200149086886
:1049600070470000680000202DE9F0414FF000087A
:104970004448006800287CD143480068451C4248F0
:10498000056015BB41480068006808B9012000E0D7
:10499000002050B900BF502080F31188BFF34F8F23
:1049A000BFF36F8F00BF00BFFEE738480768384885
:1049B0000068364908603648076036480068401C81
:1049C00034490860FEF756FE00BF33480068854250
:1049D0003CD300BF2D480068006808B9012000E002
:1049E000002020B14FF0FF302B4908602DE0274810
:1049F0000068C068C4686668B54202D2264806608E
:104A000023E0201DFFF7AFF8A06A18B104F11800E9
:104A1000FFF7A9F894F82C10012088401F49096875
:104A200008431E490860E16A01EB81011C4A02EB60
:104A30008100211DFFF7D5F81A49E06A0968C96AA3
:104A40008842C7D34FF00108C4E700BF154800688B
:104A5000C06A00EB8000124951F82000012801D9FA
:104A60004FF001081048006808B14FF0010805E058
:104A7000FFE70E480068401C0C4908604046BDE84E
:104A8000F081000090000020680000205800002005
:104A90005C0000207C000020840000206C000020CE
:104AA000C40700205400002078000020740000207B
:104AB00070B505462C460026002D4ED028480068CB
:104AC000844201D1012000E0002050B900BF5020F5
:104AD00080F31188BFF34F8FBFF36F8F00BF00BF0C
:104AE000FEE7206D50B900BF502080F31188BFF35E
:104AF0004F8FBFF36F8F00BF00BFFEE7206D401EDA
:104B00002065E16CE06A884227D0206D28BB201D1B
:104B1000FFF729F840B994F82C100120884011497A
:104B2000096881430F480160E06CE062E06AC0F10F
:104B30002000A06194F82C100120884009490968E0
:104B4000084308490860E16A01EB8101064A02EB6B
:104B50008100211DFFF745F80126304670BD000099
:104B6000540000206C000020C407002070B50646E9
:104B7000F068C46854B900BF502080F31188BFF3B7
:104B80004F8FBFF36F8F00BF00BFFEE704F1180027
:104B9000FEF7E9FF15480068A8B9201DFEF7E3FFFE
:104BA00094F82C10012088401149096808431049E5
:104BB0000860E16A01EB81010E4A02EB8100211DD0
:104BC000FFF70FF804E004F118010B48FFF709F8AC
:104BD0000A49E06A0968C96A884204D901250120A6
:104BE0000749086000E00025284670BD90000020BD
:104BF0006C000020C40700206C0A00205400002034
:104C00007800002070B5002400263648006850B9AE
:104C100000BF502080F31188BFF34F8FBFF36F8F19
:104C200000BF00BFFEE7FEF7E9FF2E480068401E08
:104C30002C4908600846006800284FD12A480068BF
:104C400000284BD024E02948C068C46804F118004B
:104C5000FEF789FF201DFEF786FF94F82C10012037
:104C6000884023490968084321490860E16A01EB4B
:104C70008101204A02EB8100211DFEF7B2FF1E498F
:104C8000E06A0968C96A884202D301201B490860AA
:104C90001648006808B9012000E000200028D2D0A2
:104CA0000CB1FEF7E7FC1648056865B100BFFFF7D9
:104CB0005BFE10B10120114908606D1E002DF6D178
:104CC00000200F4908600D48006838B10126300700
:104CD0000C490860BFF34F8FBFF36F8FFEF7B8FF2B
:104CE000304670BD90000020640000206C0A002057
:104CF0006C000020C4070020540000207800002031
:104D00007400002004ED00E01CB50024FEF7F6F866
:104D10000E48006858B10E481F2100234FF48272DC
:104D2000CDE900100BA10D48FFF7D8FD044654B99A
:104D300000BF502080F31188BFF34F8FBFF36F8FF8
:104D400000BF00BFFEE720461CBD00009C00002005
:104D5000A0000020546D722053766300B537000820
:104D60002DE9FF4704460D4616461F46DDF8308004
:104D70004FF0000954B900BF502080F31188BFF3F1
:104D80004F8FBFF36F8F00BF00BFFEE7144800686E
:104D900010B3009501960294062D15DAFFF7CEFDAB
:104DA000022808D10023424669460D480068FFF7F3
:104DB00011FB814610E000231A4669460848006846
:104DC000FFF708FB814607E000233A46694604489E
:104DD0000068FFF7EBFB8146484604B0BDE8F0876A
:104DE0009C0000200000C8430000004000000000BC
:104DF0000000C84300000040000000000000C8435D
:104E000000000040000000000000C8430000004017
:104E100000000000344E000800000020D400000014
:104E2000EA1D0008084F0008D4000020FC8D000097
:104E3000FA1D000800A24A04000000000000000063
:104E40000102030406070809000000000102030430
:104E50000102030406070809020406080000000016
:104E60000000000000000000000000000000000042
:104E70000000000000000000000000000000000032
:104E80000000000000000000000000000000000022
:104E90000000000000000000000000000000000012
:104EA0000000000000000000000000000000000002
:104EB00000000000000000000000000000000000F2
:104EC0001F000000000000000000000000000000C3
:104ED00000000000000000000000000000000000D2
:104EE00000000000000000000000000000000000C2
:104EF000000000000000000000000000AAAAAAAA0A
:084F00000000000000000000A9
:0400000508000131BD
:00000001FF
