:020000040800F2
:10000000988C0020DD0100081709000895040008FD
:100010001309000899020008951800080000000064
:100020000000000000000000000000004501000882
:100030009D0200080000000089010008410E000830
:10004000F7010008F7010008F7010008F7010008B0
:10005000F7010008F7010008F7010008F7010008A0
:10006000F7010008F7010008F7010008F701000890
:10007000F7010008F7010008F7010008F701000880
:10008000F7010008F7010008F7010008F701000870
:10009000F7010008F7010008F70100089F020008B7
:1000A000F7010008F7010008F7010008F701000850
:1000B000F11000080911000821110008F7010008DB
:1000C000F7010008F7010008F7010008F701000830
:1000D000F7010008F7010008C9160008F701000839
:1000E000F7010008F7010008F7010008F701000810
:1000F000F7010008F7010008F7010008F701000800
:10010000F7010008F701000839110008F70100089D
:10011000F7010008F701000851110008F701000875
:10012000F7010008F7010008F7010008F7010008CF
:10013000DFF80CD000F09EF8004800475D21000871
:10014000988C0020224B19680868B0E8F00F80F303
:100150000988BFF36F8F4FF0000080F311884EF0D5
:100160000D0E70470000000006480068006880F32C
:10017000088862B661B6BFF34F8FBFF36F8F00DFA1
:1001800000BF00BF08ED00E0EFF30980BFF36F8F01
:100190000F4B1A6820E9F00F106008B54FF05000BF
:1001A00080F31188BFF34F8FBFF36F8F03F01AF9FD
:1001B0004FF0000080F31188BDE808401968086816
:1001C000B0E8F00F80F30988BFF36F8F704700BF6E
:1001D00044000020EFF30580704700000648804788
:1001E00006480047FEE7FEE7FEE7FEE7FEE7FEE71C
:1001F000FEE7FEE7FEE7FEE7510E000831010008CA
:1002000040EA01039B0703D009E008C9121F08C098
:10021000042AFAD203E011F8013B00F8013B521E18
:10022000F9D27047D2B201E000F8012B491EFBD28F
:1002300070470022F6E710B513460A4604461946F1
:10024000FFF7F0FF204610BD30B50B4601460020F9
:100250002022012409E021FA02F59D4205D303FA88
:1002600002F5491B04FA02F52844151EA2F1010209
:10027000F1DC30BD064C074D06E0E06840F00103BC
:1002800094E8070098471034AC42F6D3FFF754FFC8
:10029000E84000080841000800BFFEE7704710B5BD
:1002A000202000F00BF8202000F002F810BD000024
:1002B0000149086070470000140401400146002015
:1002C0000022074B1B6803EA0102054B14331B682D
:1002D0000B4013B10AB1012000E00020704700007C
:1002E000000401402DE9F0410246002500260020CF
:1002F00000230024002791F803C00CF00F0591F8AB
:1003000003C00CF0100CBCF1000F03D091F802C038
:100310004CEA050591F800C0BCF1000F31D014681B
:1003200000202BE04FF0010C0CFA00F3B1F800C0F4
:100330000CEA03069E4220D183004FF00F0C0CFA0A
:1003400003F7BC4305FA03FC4CEA040491F803C02C
:10035000BCF1280F06D14FF0010C0CFA00FCC2F8DA
:1003600014C00AE091F803C0BCF1480F05D14FF06A
:10037000010C0CFA00FCC2F810C0401C0828D1D3B4
:100380001460B1F800C0BCF1FF0F34DD54680020E8
:100390002EE000F1080C4FF0010808FA0CF3B1F858
:1003A00000C00CEA03069E4221D183004FF00F0CDF
:1003B0000CFA03F7BC4305FA03FC4CEA040491F879
:1003C00003C0BCF1280F05D100F1080C08FA0CF8A5
:1003D000C2F8148091F803C0BCF1480F07D100F1B6
:1003E000080C4FF0010808FA0CF8C2F81080401C05
:1003F0000828CED35460BDE8F0810000F0B50A466D
:10040000002300240021002500F00046B6F1004F33
:1004100002D11D4EF16901E01B4E7168C0F3034526
:1004200083B200F44016B6F5401F08D121F0706188
:10043000154E766826F07066134F7E6012E000F469
:100440008016B6F5801F06D1032606FA05F4A143EF
:1004500041F0706106E0460D360103FA06F6B1433D
:1004600041F0706122B1460D360103FA06F63143C0
:1004700000F00046B6F1004F02D1034EF16101E0F9
:10048000014E7160F0BD0000000001404161704705
:100490000161704700BFFEE710B580210A48FFF7F1
:1004A000F7FF20210848FFF7F3FF00F011F9802142
:1004B0000548FFF7EBFF00F00BF920210248FFF79A
:1004C000E5FF00F005F910BD0008014010B58021DE
:1004D0000648FFF7DBFF20210448FFF7D9FF00F0B3
:1004E000F7F880210148FFF7D3FF10BD0008014055
:1004F00010B580210848FFF7CBFF00F0E9F8202174
:100500000548FFF7C5FF00F0E3F820210248FFF798
:10051000BDFF00F0DDF810BD0008014010B500205F
:100520000949086000F0CCFB00200849C1F8AC0183
:1005300000F0D6F801200449086000F0D1F800204E
:100540000249C1F8A80110BDA881214200802142C2
:1005500010B500200949086000F0B2FB01200849ED
:10056000C1F8AC0100F0BCF801200449086000F0BB
:10057000B7F800200249C1F8A80110BDA8812142A6
:100580000080214270B50546002400F087FB00265C
:1005900014E000200E49086000F0A2F801200D4987
:1005A000C1F8A8016006040E09487C38006808B14B
:1005B000601CC4B200F094F8701CC6B2082EE8DBD0
:1005C00015B9FFF7C5FF01E0FFF7A8FF204670BD92
:1005D000A88121420080214270B5044600F070FBE2
:1005E00000200D490860002512E0E0090A49091DB4
:1005F00008606006040E01200849C1F8A80100F057
:100600006FF800200449086000F06AF8681CC5B261
:10061000082DEADB70BD0000A88121420080214244
:1006200010B500F04DFB0120084908600849C1F8E9
:10063000A80100F055F800200449086000F050F8C7
:1006400000200349C1F8A80110BD0000AC8121427F
:100650000080214210B500F033FB002007490860FC
:100660000749C1F8AC0100F03BF8012003490860DC
:100670000349C1F8AC0100F033F810BDA881214254
:100680000080214210B5002400F008FB01200E4933
:10069000086000F025F801200C49C1F8A80100F01D
:1006A0001FF807E0601CC4B2FA2C03DDFFF7D2FF8D
:1006B000012010BD0448803800680028F2D10249AA
:1006C000091F086000BFF4E7AC812142008021428D
:1006D000032000BF011EA0F10102D0B2FAD1704781
:1006E00010B5022001F008FD10BD000008B5012181
:1006F000082000F059FA4FF48060ADF800000320A4
:100700008DF8020014208DF8030069460B48FFF7AE
:10071000E9FD4FF40060ADF8000003208DF8020001
:1007200014208DF8030069460448FFF7DBFD012023
:10073000034908600349C1F8AC0108BD000C014041
:10074000A88121420080214210B5FFF7CFFF80220F
:100750006B21682000F0B7F8642001F0ABFC0022A8
:100760006B21682000F0AFF8032000F065F800204E
:1007700000F059F8C82000F088F8012238216820DC
:1007800000F0A1F800226A21682000F09CF8002205
:100790002321682000F097F89C223721682000F080
:1007A00092F87521682000F019F80B490870084686
:1007B000007868280CD101226B2100F084F8002217
:1007C0006C21682000F07FF8C82000F05EF801E09E
:1007D000012010BD0020FCE73800002070B5044661
:1007E0000D460026FFF71CFF002141EA4401C8B274
:1007F000FFF7F2FEFFF746FF2846FFF7EDFEFFF793
:1008000041FFFFF70DFF012101EB4401C8B2FFF7E3
:10081000E3FEFFF737FF0020FFF7B4FE0646FFF7C1
:1008200019FF304670BD10B50446E006020E1C21CB
:10083000682000F048F810BD10B50446032000EB16
:10084000C400C2B21B21682000F03DF810BD70B595
:1008500004460025BC2C01DB012510E0622C01DBE5
:1008600002250CE02A2C01DB032508E0142C01DB17
:10087000042504E00A2C01DB052500E006252A46B4
:100880001A21682000F01FF870BD70B50446B4F559
:100890007A7F01DD4FF47A74042C00DA04244FF4DB
:1008A0007A7090FBF4F0401EC5B22A4619216820E8
:1008B00000F009F80546264604EBD671C1F34F0057
:1008C000FFF7C5FF70BD70B504460D461646FFF72D
:1008D000A7FE002141EA4401C8B2FFF77DFEFFF701
:1008E000D1FE18B1FFF7B6FE012070BD2846FFF714
:1008F00073FEFFF7C7FE3046FFF76EFEFFF7C2FE3E
:1009000018B1FFF7A7FE0120EFE7FFF7A3FE0020D5
:10091000EBE700BFFEE7704770B5002100230F2210
:10092000C47804B3154C246804F4E064C4F5E064AE
:10093000210AC1F10403CA40447804FA03F184781F
:100940001440214309010E4C0678A155047804F0A7
:100950001F050124AC4005786D11AD0005F1E025BF
:10096000C5F8004109E0047804F01F050124AC40FB
:10097000044D0678761145F8264070BD0CED00E078
:1009800000E400E080E100E002490143024A116016
:10099000704700000000FA050CED00E070B500247F
:1009A0000CE0002506E00020074901EBC5010855D1
:1009B000681CC5B2802DF6DB601CC4B2082CF0DBCD
:1009C00000F092F870BD0000C800002008B50121B9
:1009D000042000F0E9F82020ADF8000014208DF884
:1009E000030003208DF8020069463E48FFF77AFCB9
:1009F00020213C48FFF74CFD8020ADF800006946FF
:100A00003848FFF76FFC80213648FFF741FD002191
:100A1000AE2000F09DF80021084600F099F8002172
:100A2000102000F095F80021402000F091F80021FE
:100A3000812000F08DF80021CF2000F089F80021FE
:100A4000A12000F085F80021C82000F081F80021E5
:100A5000A62000F07DF80021A82000F079F8002100
:100A60003F2000F075F80021D32000F071F800213C
:100A7000084600F06DF80021D52000F069F800214B
:100A8000802000F065F80021D92000F061F80021F5
:100A9000F12000F05DF80021DA2000F059F8002183
:100AA000122000F055F80021DB2000F051F8002161
:100AB000302000F04DF80021202000F049F80021FE
:100AC000022000F045F800218D2000F041F80021BF
:100AD000142000F03DF8FFF761FF0021AF2000F087
:100AE00037F808BD0008014070B500242BE004F180
:100AF000B001C8B2002100F02BF80021084600F038
:100B000027F80021102000F023F8FFF7C5FC78201B
:100B100000F0E8F8FFF7ECFC402000F0E3F8FFF706
:100B2000E7FC002509E0094901EBC501085D00F07B
:100B3000D9F8FFF7DDFC681CC5B2802DF3DBFFF7A9
:100B4000C5FC601CC4B2082CD1DB70BDC8000020FD
:100B500070B505460C46FFF79FFC782000F0C2F800
:100B6000FFF7C6FC1CB1402000F0BCF802E00020FA
:100B700000F0B8F8FFF7BCFC284600F0B3F8FFF728
:100B8000B7FCFFF7A3FC70BD29B1064AD269024346
:100B9000044BDA6104E0034AD2698243014BDA6113
:100BA000704700000010024029B1064A92690243D2
:100BB000044B9A6104E0034A92698243014B9A61B3
:100BC000704700000010024030B5002100220024D0
:100BD00000232D4D6D6805F00C0121B1042905D0CD
:100BE000082923D105E0294D056022E0274D056045
:100BF0001FE0254D6D6805F47012234D6D6805F4F6
:100C00008034022505EB92421CB9214D5543056005
:100C10000BE01D4D6D6805F400351DB11C4D5543AD
:100C2000056002E0194D5543056002E0174D05606F
:100C300000BF00BF144D6D6805F0F0010909154DA6
:100C40006B5C0568DD4045600F4D6D6805F4E06143
:100C5000090A104D6B5C4568DD4085600A4D6D6882
:100C600005F46051C90A0B4D6B5C4568DD40C560F9
:100C7000054D6D6805F44041890B074D6B5CC568F7
:100C8000B5FBF3F5056130BD0010024000127A009B
:100C900000093D00140000202400002008B54FF496
:100CA0000060ADF8000003208DF8020048208DF8A8
:100CB000030069460148FFF715FB08BD000C014021
:100CC00008B54FF40060ADF8000003208DF8020075
:100CD00014208DF8030069460148FFF703FB08BDA7
:100CE000000C014070B5044600251BE004F08000B4
:100CF00020B180210D48FFF7CBFB03E080210B489A
:100D0000FFF7C4FBFFF7E4FC20210848FFF7C0FB16
:100D1000FFF7DEFC20210548FFF7B8FB6006040E54
:100D2000681CC5B2082DE1DB70BD00000008014061
:100D300010B500F001F810BD0CB500200190009036
:100D40003348006840F480303149086000BF3048C3
:100D5000006800F4003000900198401C0190009859
:100D600018B90198B0F5A06FF1D12948006800F4D6
:100D7000003010B10120009001E0002000900098A8
:100D8000012843D12348006840F010002149086041
:100D90000846006820F0030008600846006840F03C
:100DA000020008601A4840681949486008464068CF
:100DB00048600846406840F48060486008464068E3
:100DC00020F47C1048600846406840F4E810486011
:100DD0000846006840F08070086000BF0C4800685A
:100DE00000F000700028F9D00948406820F00300A6
:100DF000074948600846406840F00200486000BF6C
:100E00000348406800F00C000828F9D10CBD000030
:100E10000010024000200240042808D14FF0E021D9
:100E2000096941F004014FF0E022116107E04FF041
:100E3000E021096921F004014FF0E02211617047BF
:100E400010B502F0FDFE012801D002F08DFB10BDAF
:100E500010B51348006840F00100114908600846C9
:100E60004068104908400E494860084600680E492D
:100E700008400B4908600846006820F4802008609C
:100E80000846406820F4FE0048604FF41F00886068
:100E9000FFF74EFF4FF000600449086010BD0000EE
:100EA000001002400000FFF8FFFFF6FE08ED00E032
:100EB000F0B50C46154600220021068C4FF6FE7751
:100EC0003E400684028B018C4FF60C7632407E1C2D
:100ED00006EA03162E433243104EB0420ED0104E97
:100EE000B0420BD0B0F1804F08D00E4EB04205D0CA
:100EF0000D4EB04202D00D4EB04206D14FF6FD76F7
:100F0000314044F00106314305E04FF6F5763140BB
:100F100044F00106314302830184F0BD002C0140FE
:100F2000003401400004004000080040000C004074
:100F3000F0B50C461546002200210026078C4FF61E
:100F4000EF7C07EA0C070784028B018C4FF6FF77D2
:100F500007EA041640F6FF473A404FF6FF7707EAE4
:100F600003373A434FF6FF7707EA05273A43114F15
:100F7000B8420ED0104FB8420BD0B0F1804F08D01D
:100F80000E4FB84205D00E4FB84202D00D4FB842B6
:100F900006D14FF6DF77394046F01007394305E0B8
:100FA0004FF65F77394044F01007394302830184DC
:100FB000F0BD0000002C014000340140000400405E
:100FC00000080040000C0040F0B50C461546002219
:100FD00000210026078C4FF6FF6C07EA0C070784F8
:100FE000828B018C4FF6FF7707EA04264FF60C77C9
:100FF0003A404FF6FF7707EA03172F433A43114F62
:10100000B8420ED0104FB8420BD0B0F1804F08D08C
:101010000E4FB84205D00E4FB84202D00D4FB84225
:1010200006D14FF6FF57394046F48077394305E043
:101030004FF2FF57394044F480773943828301846B
:10104000F0BD0000002C01400034014000040040CD
:1010500000080040000C0040F0B50C461546002288
:1010600000210026078C4EF6FF7C07EA0C07078458
:10107000828B018C4FF6FF7707EA043640F6FF4774
:101080003A404FF6FF7707EA05273A434FF6FF77D6
:1010900007EA03373A43114FB8420ED0104FB84217
:1010A0000BD0B0F1804F08D00E4FB84205D00E4F94
:1010B000B84202D00D4FB84206D14DF6FF77394005
:1010C00046F48057394305E047F6FF57394044F46A
:1010D0008057394382830184F0BD0000002C014019
:1010E000003401400004004000080040000C0040B3
:1010F0004FF08040008A4FF08040008A20F00100CD
:101100004FF08041088270470448008803480088F7
:1011100020F00100014908807047000010040040E1
:10112000044800880348008820F001000149088035
:1011300070470000100800400448008803480088F9
:1011400020F001000149088070470000100C0040A9
:1011500010B50121044800F057F818B101210248E8
:1011600000F013F810BD00000010004021B102880B
:1011700042F08002028004E002884FF67F731A403A
:1011800002807047CA4302827047CA430282704796
:1011900021B1028842F00102028004E002884FF689
:1011A000FE731A400280704731B1B0F8442042F417
:1011B0000042A0F8442005E0B0F84420C2F30E023B
:1011C000A0F844207047F0B50C4615461E46002195
:1011D000002200230189028B038C4FF6F8773940F7
:1011E00021434FF6FC473A4040F201173A434FF68D
:1011F000DD773B404FF6FF7707EA06172F433B4367
:10120000018102830384F0BD30B502460020002333
:101210000024158A05EA0103958905EA010413B142
:101220000CB1012000E0002030BD000070B5054683
:101230000C46244885420ED0234885420BD0B5F198
:10124000804F08D02148854205D02148854202D0F0
:101250002048854200D100E000BF208850B9238992
:10126000A28861882846FFF723FEE188284600F01F
:10127000A2F925E0208804280AD12389A288618860
:101280002846FFF755FEE188284600F09DF917E053
:10129000208808280AD12389A28861882846FFF778
:1012A00093FEE188284600F09CF909E02389A28892
:1012B00061882846FFF7D0FEE188284600F09AF9B9
:1012C00070BD0000002C01400034014000040040CB
:1012D00000080040000C00400021018041800121F5
:1012E00081800021C180018170471AB183890B433D
:1012F000838102E083898B438381704770B500242A
:1013000000220023058C4FF6FE7635400584028CC2
:101310008388048B4FF68F752C40B51E2C400D88AA
:101320002C43751E2A400D892A434D882A43144DAB
:10133000A8420BD0134DA84208D0134DA84205D0A7
:10134000124DA84202D0124DA84213D14FF6F775A4
:101350002A404D892A434FF6FB752A408D882A433F
:101360004FF6FF652B404FF6FF552B408D892B43E1
:10137000CD892B4383800483CD888586028470BD0C
:10138000002C014000340140004001400044014075
:10139000004801400A460021018B4FF6F7731940BF
:1013A000114301837047000070B500240022002320
:1013B000058C4FF6EF7635400584028C8388048BCC
:1013C00048F6FF752C404FF6FF452C400D884FF630
:1013D000FF7606EA05252C434FF6DF752A400D8976
:1013E00006EA05152A434D8806EA05152A43154DD8
:1013F000A84202D0144DA8421DD14FF67F752A4055
:101400004D894FF6FF7606EA05152A434FF6BF755C
:101410002A408D8806EA05152A434FF6FF352B40F2
:101420004FF2FF752B408D8906EA85052B43CD8948
:1014300006EA85052B4383800483CD8805870284D3
:1014400070BD0000002C0140003401400A4600211C
:10145000018B4FF2FF7319404FF6FF7303EA02232B
:10146000194301837047000070B500240022002357
:10147000058C4FF6FF6635400584028C8388848B8B
:101480004FF68F752C404FF6FC752C400D882C4381
:101490004FF6FF552A400D894FF6FF7606EA0525DF
:1014A0002A434D8806EA05252A43154DA84202D055
:1014B000144DA8421DD14FF2FF752A404D894FF6B9
:1014C000FF7606EA05252A434FF6FF352A408D8828
:1014D00006EA05252A434EF6FF752B404DF6FF75AB
:1014E0002B408D8906EA05152B43CD8906EA0515A3
:1014F0002B4383808483CD888587028470BD000060
:10150000002C0140003401400A460021818B4FF637
:10151000F7731940114381837047000070B50022B2
:1015200000230024058C4EF6FF7635400584038C9D
:101530008488828B48F6FF752A404FF6FF452A4083
:101540000D884FF6FF7606EA05252A434DF6FF750E
:101550002B400D8906EA05352B434D8806EA0535F3
:101560002B430B4DA84202D00A4DA84208D14BF69E
:10157000FF752C408D894FF6FF7606EA85152C43C2
:1015800084808283CD88A0F84050038470BD000021
:10159000002C0140003401400A460021818B4FF2AB
:1015A000FF7319404FF6FF7303EA02231943818347
:1015B000704781847047028B4FF6F3731A400283A1
:1015C000028B0A4302837047028B4FF2FF331A40AB
:1015D0000283028B4FF6FF7303EA01231A4302834F
:1015E0007047828B4FF6F3731A408283828B0A43D3
:1015F00082837047828B4FF2FF331A408283828B43
:101600004FF6FF7303EA01231A43828370470000F9
:10161000002202881D4B98420ED01D4B98420BD0E1
:10162000B0F1804F08D01B4B984205D01A4B98421E
:1016300002D01A4B984204D14FF68F731A404B8850
:101640001A43174B984207D0164B984204D04FF6D6
:10165000FF431A40CB881A4302808B8883850B880E
:1016600003850A4B98420BD0094B984208D00E4B89
:10167000984205D00D4B984202D00D4B984201D1B3
:101680000B7A03860123838270470000002C0140FF
:10169000003401400004004000080040000C0040FD
:1016A0000010004000140040004001400044014090
:1016B000004801404FF6FF71818000210180C18008
:1016C000418001727047000010B540F22551054875
:1016D00000F025F820B140F22551024800F004F84E
:1016E00010BD00000044004010B50022002340F669
:1016F0006A14A14200D100BF0A1201249440A3B28F
:10170000DC43048010BD21B1828942F40052828101
:1017100004E082894DF6FF731A408281704770B5EC
:101720000246002400230025002040F66A16B1423C
:1017300000D100BFC1F3421501F01F03012606FAD4
:1017400003F3012D02D19689334006E0022D02D128
:10175000168A334001E0968A33400C12012606FABD
:1017600004F41688344013B10CB1012000E00020CD
:1017700070BDF0B50346002400260025002040F689
:101780006A17B94200D100BF1846C1F3421401F0F4
:101790001F06012707FA06F5012C01D10C3004E0E1
:1017A000022C01D1103000E014301AB107682F4329
:1017B000076002E00768AF430760F0BD2DE9F0471E
:1017C00086B005460E460024A24600BFA14600276B
:1017D000B08900B100BF2F462C8A4CF6FF70044040
:1017E000F08804432C82AC894EF6F3100440B08894
:1017F00031890843718908430443AC81AC8A4FF6B0
:10180000FF400440B0890443AC8201A8FFF7DCF933
:101810001F48874202D1DDF810A001E0DDF80CA0DE
:10182000A88900F4004040B10AEBCA0000EB0A109E
:1018300031684900B0FBF1F807E00AEBCA0000EBA1
:101840000A1031688900B0FBF1F86420B8FBF0F0B1
:1018500004012009642101FB1089A88900F40040DB
:1018600040B1322000EBC900B0FBF1F000F00700FE
:10187000044308E0322000EB09106421B0FBF1F0D2
:1018800000F00F0004432C8106B0BDE8F087000093
:101890000038014000BFFEE70FB4054B10B503A9A7
:1018A000044A029800F018F810BC5DF814FB000020
:1018B00041210008C400002002E008C8121F08C12E
:1018C000002AFAD170477047002001E001C1121FC1
:1018D000002AFBD1704700002DE9FF4F8BB09A46DC
:1018E0000F460546002606E025280BD052460D99E6
:1018F00090476D1C761C28780028F5D10FB0304633
:10190000BDE8F08F0024A0460122604900E00443B6
:1019100015F8013F203B02FA03F00842F7D128787E
:101920002E2817D115F8010F44F004042A280ED0F0
:101930006FF02F022878A0F1300109290AD808EBAE
:10194000880102EB410100EB01086D1CF2E757F83A
:10195000048B6D1C287869283ED006DC0028CDD089
:1019600063280BD0642804D136E0732810D0752882
:101970004BD052460D999047761C85E017F8040B22
:101980008DF8000000208DF80100E946012003E0F9
:1019900057F8049B4FF0FF3061074FF0000401D46B
:1019A0000AE0641C44450DDA8442FADB19F804109D
:1019B0000029F6D106E0641C8442FCDB19F804100F
:1019C0000029F8D1264404E019F8010B52460D997C
:1019D0009047641EF8D257E001CF4FF00A0B002861
:1019E00002DA40422D2102E0210504D52B218DF899
:1019F0002410012103E0E10705D02021F7E70DF1D4
:101A0000200908910CE00021F9E701CF4FF00A0B03
:101A1000F9E75946FEF718FC01F1300209F8012DEB
:101A20000028F6D1ADEB090000F1200B600701D4CE
:101A30004FF00108D84502DDA8EB0B0000E00020C4
:101A40008046002406E009A85246005D0D999047A3
:101A5000641C761C08988442F5DB04E03020524672
:101A60000D999047761CB8F10001A8F10108F5DC4A
:101A700005E019F8010B52460D999047761CBBF111
:101A80000001ABF1010BF4DC6D1C34E70928010007
:101A90000EB501210846FFF777F801210420FFF772
:101AA00083F801210820FFF77FF801210846FFF79E
:101AB0007BF801219348FEF7A1FC4FF40040ADF8FC
:101AC000080004208DF80B0002A98F48FEF70AFCDD
:101AD0000820ADF8080002A98C48FEF703FC01219C
:101AE0008B48FEF78BFC6846FFF7E4FD0020ADF85D
:101AF00000004FF6FF70ADF804000020ADF80600BE
:101B0000ADF8020069464FF08040FFF781FD0023E9
:101B10001A4603214FF08040FFF755FB6846FFF758
:101B2000DBFB0A20ADF8080069464007FFF77EFBA3
:101B300001218807FFF726FB012211469007FFF7D6
:101B4000D4FB00214FF08040FFF733FD01218807CF
:101B5000FFF71EFB01210220FFF716F801210820E4
:101B6000FFF722F83020ADF8080004208DF80B00B4
:101B700002A96648FEF7B6FB01216648FEF73EFC67
:101B80006846FFF797FD0020ADF800004FF6FF70A4
:101B9000ADF804000020ADF80600ADF8020069467B
:101BA0005D48FFF735FD00231A4603215A48FFF729
:101BB0000AFB6846FFF790FB0A20ADF8080069466B
:101BC0005548FFF733FB01215348FFF7DBFA0122A9
:101BD00011465148FFF789FB00214F48FFF7E9FC08
:101BE00001214D48FFF7D4FA01210420FEF7CCFF74
:101BF00001210820FEF7D8FFC020ADF8080004201E
:101C00008DF80B0002A94148FEF76CFB6846FFF710
:101C100051FD0020ADF800004FF6FF70ADF8040054
:101C20000020ADF80600ADF8020069463B48FFF71A
:101C3000EFFC00231A4603213848FFF7C4FA684630
:101C4000FFF74AFB0A20ADF8080069463348FFF762
:101C5000EDFA01213148FFF795FA012211462F488C
:101C6000FFF743FB00212D48FFF7A3FC01212B4880
:101C7000FFF78EFA01210820FEF786FF01210420DC
:101C8000FEF792FF0320ADF8080004208DF80B004A
:101C900002A91D48FEF726FB6846FFF70BFD002052
:101CA000ADF800004FF6FF70ADF804000020ADF86D
:101CB0000600ADF8020069461948FFF7A9FC0023A9
:101CC0001A4603211648FFF77EFA6846FFF704FB21
:101CD0000A20ADF8080069461148FFF7A7FA01216C
:101CE0000F48FFF74FFA012211460D48FFF7FDFAA2
:101CF00000210B48FFF75DFC01210948FFF748FA76
:101D00000EBD00000002300000080140000C014040
:101D10000001180000081A000004004000080040FC
:101D2000000C004008B501212020FEF73DFF0121F5
:101D30001020FEF739FF01210820FEF735FF0420AF
:101D4000ADF8000048208DF8030069460948FEF709
:101D5000C9FA41F60740ADF8000069460648FEF7AB
:101D6000C1FA4FF48050ADF8000069460348FEF711
:101D7000B9FA08BD0014014000100140000C0140F8
:101D800008B501210420FEF70FFF01211020FEF706
:101D90000BFF4FF40050ADF8000010208DF8030049
:101DA00003208DF8020069460148FEF79BFA08BD42
:101DB0000010014010B501214FF4E15000F004F88B
:101DC000FFF766FE10BD000030B589B005460C4631
:101DD0000121C802FEF7E8FE01210420FEF7E4FE1F
:101DE0004FF47060ADF8200018208DF82300032018
:101DF0008DF8220008A95848FEF774FA05A8FFF7E5
:101E000059FC681E80B2ADF81800601E80B2ADF8B3
:101E100014000020ADF81A00ADF816008DF81C0073
:101E200005A94E48FFF7F4FB6020ADF8040001203F
:101E3000ADF806000020ADF80A00ADF80C0001A9CD
:101E40004648FFF75BFA01A94448FFF7ADFA01A93C
:101E50004248FFF709FB01A94048FFF75FFB01215A
:101E60003E48FFF7A1F908213C48FFF793FA082103
:101E70003A48FFF7EBFA08213848FFF745FB0821FD
:101E80003648FFF789FB01213448FFF76FF901213C
:101E90003248FFF77DF901214803FEF785FE012155
:101EA0001020FEF781FE4FF47070ADF8200018206E
:101EB0008DF8230003208DF8220008A92848FEF79A
:101EC00011FA681E80B2ADF81800601E80B2ADF83D
:101ED00014000020ADF81A00ADF8160005A921483D
:101EE000FFF796FB6020ADF804000120ADF8060076
:101EF0000020ADF80A00ADF80C0001A91948FFF761
:101F0000FDF901A91748FFF74FFA01A91548FFF796
:101F1000ABFA01A91348FFF701FB01211148FFF7B4
:101F200043F908210F48FFF735FA08210D48FFF75C
:101F30008DFA08210B48FFF7E7FA08210948FFF757
:101F40002BFB01210748FFF711F901210548FFF795
:101F50001FF909B030BD000000080140002C01400D
:101F600000100140003401403EB505460C460121F9
:101F70001020FEF709FE681E80B2ADF80400601E56
:101F800080B2ADF800000020ADF80600ADF8020008
:101F900069460E48FFF73CFB36208DF80800032009
:101FA0008DF8090000208DF80A0001208DF80B0043
:101FB00002A8FEF7B1FC012211460448FFF795F98B
:101FC00001210248FFF7E4F83EBD00000010004088
:101FD0001FB5044601214804FEF7D6FD0121042067
:101FE000FEF7E2FD0420ADF80C0003208DF80E0092
:101FF00018208DF80F0003A91B48FEF773F908207D
:10200000ADF80C0004208DF80F0003A91648FEF768
:1020100069F926208DF80C0003208DF80D008DF84D
:102020000E0001208DF80F0003A8FEF775FC009448
:102030000020ADF80400ADF80600ADF80800ADF8DA
:102040000C000C20ADF80A0069460848FFF7B6FB03
:10205000012240F225510548FFF78BFB012103487F
:10206000FFF751FB1FBD0000000801400044004085
:1020700010B50420FEF7D0FE48200C490870482413
:102080004FF47A7044430120094908804FF0E02062
:10209000006940F002004FF0E02108610846446109
:1020A000006940F00100086110BD00002800002018
:1020B0002A00002070B5044601F0C2FD012811D0AD
:1020C0000C480088844206DB0A48008894FBF0F53F
:1020D000284601F03BF80748008894FBF0F100FB2C
:1020E000114084B24FF47A7104FB01F000F004F85F
:1020F00070BD00002A00002070B5034600224FF09A
:10210000E02675690D4E367803FB06F44FF0E026A5
:10211000B16910E04FF0E026B06988420BD08842E8
:1021200002D20E1A324402E02E1A0E443244014604
:10213000A24200D300E0EDE700BF70BD2800002000
:1021400000BF054A128802F04002002AF9D0C2B24C
:10215000014B1B1D1A807047004400404FF4407033
:10216000FEF712FC4FF4E130FFF732FFFFF780FF7C
:10217000FFF706FE482141F28830FFF7F5FEFFF732
:10218000D1FDFFF717FEFEF7DFFAFEF71FFC00F0A8
:1021900027FE01F0D1F800BFFEE700002DE9F04175
:1021A00005460E461C4807681C480068001D00F0E4
:1021B0005DFE50B91948006890F82C100120884045
:1021C00017490968814316480160681C38B936B15F
:1021D00012480168091D134800F086FE1AE07C19B8
:1021E0000E4800684460BC4207D20C480168091DD3
:1021F0000D48006800F05EFE0CE008480168091D0B
:102200000A48006800F056FE09480068844201D27E
:1022100007480460BDE8F081580000204400002019
:102220005C000020580800204C00002048000020DE
:102230007400002010B5044600F062FE24480068D7
:10224000401C234908602348006840B921480460C5
:102250000846006801280DD100F0D8F90AE01E48B0
:10226000006838B91B480068C06AE16A884201D832
:102270001848046019480068401C1849086008465E
:102280000068606494F82C100120884014490968A3
:10229000084313490860E16A01EB8101114A02EB2E
:1022A0008100211D00F020FE00F054FE0A48006865
:1022B00068B108480068C06AE16A884207D24FF0F6
:1022C000805009490860BFF34F8FBFF36F8F10BD77
:1022D0005400002044000020600000207000002016
:1022E0005C0000208805002004ED00E010B500F03F
:1022F00007FE10480068D0B90F4800F0CBFD0F482A
:1023000000F0C8FD0C480E4908600C480D490860F3
:1023100000221021052001F041F906490860084615
:10232000006820B108A10348006800F0D3FE00F067
:1023300011FE10BD8C0000206C08002080080020D9
:102340008400002088000020546D725100000000BD
:1023500010B516E000F0D4FD0C48C068C468201D1C
:1023600000F084FD0A480068401E094908600948D9
:102370000068401E0749086000F0ECFD204600F0B0
:102380005FF8044800680028E4D110BD440800202C
:10239000540000205000002070B504460D46206C0B
:1023A00070B1216CE0680144E160D4E90210884218
:1023B00001D32168E1602846226CE168FDF720FF27
:1023C00070BD2DE9F04104460F4615464FF0000858
:1023D000A66B206C48B9206800282CD1A06801F0B9
:1023E000E9FC80460020A06025E07DB93946226CDA
:1023F0006068FDF705FF216C606808446060D4E9FF
:102400000101884217D32068606014E03946226CCD
:10241000E068FDF7F5FE216CE068411AE160216893
:10242000E068884203D2216CA068411AE160022D65
:1024300001D106B1761E701CA0634046BDE8F08154
:1024400010B50446206B00F0A3FD204600F0A0FD6F
:1024500010BD00000146084A126812680AB901223C
:1024600000E000220A600A6822B9034A1268D268B2
:10247000106800E0002070478400002030B54FF461
:102480000043174800F007042CB1C01D20F00700DE
:10249000134C041B1B1B0246124C22600024114DDE
:1024A0006C60D018083820F007000F4C2060002422
:1024B0000D4D2D686C600C4D2D682C601146441A32
:1024C0004C60094C24680C60084D4C682C60084D29
:1024D0004C682C604FF00044064D2C6030BD00006D
:1024E0009408002098000020A0000020A8000020F0
:1024F000A4000020B400002000BFFFF729FF064819
:1025000000680128F9D94FF0805004490860BFF3F2
:102510004F8FBFF36F8FF0E78805002004ED00E0D8
:102520002DE9F04106460D4617469846069C0DB922
:10253000246000E02760E66325640121204601F065
:102540007FF884F850800020A064BDE8F0812DE978
:10255000F05F82460E4690469B460A9F0C9C4FEACF
:102560008801A522206BFDF75DFEA8F10100216B1B
:1025700001EB800929F0070909F0070008B90120DB
:1025800000E0002050B900BF502080F31188BFF355
:102590004F8FBFF36F8F00BF00BFFEE786B10025EE
:1025A00007E0715D04F134004155705D00B902E04F
:1025B0006D1C102DF5D300BF00214320015502E012
:1025C000002084F83400202F00D31F27E762E7643F
:1025D00000202065201D00F06AFC04F1180000F0C6
:1025E00066FC2461C7F12000A06164620020606580
:1025F00084F858005A465146484600F0DFFB2060F8
:102600000B9808B10B980460BDE8F09F10B500244A
:1026100007E004EB84010F4A02EB810000F03AFC72
:10262000641C202CF5D30C4800F034FC0B4800F05F
:1026300031FC0B4800F02EFC0A4800F02BFC0A4845
:1026400000F028FC0448094908600448084908606B
:1026500010BD000088050020080800201C0800208C
:1026600030080020440800205808002048000020BE
:102670004C00002010B50146164800E000680368D1
:102680008B42FBD30246436813448B4204D1436818
:102690004C682344436001460A464B68134404686F
:1026A000A34211D10C4C03682468A34208D04B68A4
:1026B0000468646823444B6003681B680B6005E092
:1026C000054B1B680B6001E003680B60884200D07B
:1026D000016010BD98000020A00000202DE9F0410D
:1026E00004460D4616461F464FF0000865602461FB
:1026F000B5420CD8F01BA169884202D34FF0010803
:1027000011E0211D0948006800F0D4FB0BE0BE4237
:1027100004D2BD4202D34FF0010804E0211D044859
:10272000006800F0C7FB4046BDE8F081880000204B
:102730008400002070B5054600F0E2FBA86B08B9E4
:10274000012400E0002400F005FC204670BD70B5B7
:10275000054600F0D5FBA86BE96B884201D1012446
:1027600000E0002400F0F6FB204670BDF1B50098B3
:10277000846C002654B900BF502080F31188BFF349
:102780004F8FBFF36F8F00BF00BFFEE7A06BE16B01
:10279000884201D2012000E0002050B900BF502043
:1027A00080F31188BFF34F8FBFF36F8F00BF00BF5F
:1027B000FEE7A06BE16B88422CD294F945500022D1
:1027C00069462046FFF7FDFD0646681C60B9606A51
:1027D00008B9012000E00020D8B904F1240001F07C
:1027E00047FBB0B1012614E07F2D01D0012000E0AD
:1027F000002050B900BF502080F31188BFF34F8FE5
:10280000BFF36F8F00BF00BFFEE7681C40B284F8C3
:10281000450000BF3046F8BDF8B505460F461A48DA
:102820000068C068C468201D00F020FB94F82800F0
:1028300000F00400E8B1A06941192B463A46204651
:10284000FFF74CFFD8B1002003462A46014600900E
:10285000204601F007FC064656B900BF502080F321
:102860001188BFF34F8FBFF36F8F00BF00BFFEE72C
:1028700005E094F8280020F0010084F828002046A4
:10288000216A8847F8BD000084000020F0B587B0B9
:10289000A0E00398002811DA04AE56B900BF50201A
:1028A00080F31188BFF34F8FBFF36F8F00BF00BF5E
:1028B000FEE7D6E90020B168904700BF03980028E2
:1028C000E6DB059C606908B9012000E0002010B932
:1028D000201D00F0CBFA02A800F0DCF805460398B2
:1028E0000A2875D2DFE800F00905073941630608B8
:1028F0003A4200BF00BF00BF00BF94F8280040F07C
:10290000010084F828000498A269811803462A4629
:102910002046FFF7E3FEF8B12046216A884794F885
:10292000280000F00400B8B1002000900498A169CC
:10293000421800231946204601F094FB074657B978
:1029400000BF502080F31188BFF34F8FBFF36F8F0C
:1029500000BF00BFFEE700BF3BE000BF94F82800C7
:1029600020F0010084F8280033E000BF94F828002C
:1029700040F0010084F828000498A061A06908B123
:10298000012000E0002050B900BF502080F31188E2
:10299000BFF34F8FBFF36F8F00BF00BFFEE7A0698B
:1029A00041192B462A462046FFF798FE11E094F87D
:1029B000280000F0020018B9204600F0E9FA05E00E
:1029C00094F8280020F0010084F8280001E0FFE7D7
:1029D00000BF00BF002203A90448006801F004F80A
:1029E00000287FF456AF07B0F0BD00008C00002037
:1029F000F8B505460C4600F0EDFC684600F04AF8D4
:102A00000646009820BB44B9B54206D801F07CFACE
:102A100031462846FFF700FF1CE03CB10E48006835
:102A2000006808B9012000E000200446A91B2246E6
:102A30000A48006800F064FB01F066FA50B94FF0F4
:102A4000805007490860BFF34F8FBFF36F8F01E0DD
:102A500001F05AFAF8BD0000880000208C00002028
:102A600004ED00E009480068006808B9012000E0B2
:102A7000002020B14FF0FF300549086005E0034811
:102A80000068C0680068024908607047480000207C
:102A90007400002070B5044601F0E2F805460748CE
:102AA0000068854204D200F00BF80120206001E0AC
:102AB0000020206001480560284670BD9400002079
:102AC0002DE9F84334E025480068C06805682348CC
:102AD0000068C068C468201D00F0C8F92046216A5B
:102AE000884794F8280000F0040008B3A06946194C
:102AF000AE4207D966602461211D1848006800F0C5
:102B0000D9F915E0002003462A46014600902046E8
:102B100001F0A8FA074657B900BF502080F311888A
:102B2000BFF34F8FBFF36F8F00BF00BFFEE700BF43
:102B30000A480068006808B9012000E00020002869
:102B4000C1D00648D0F800800548006803490860F5
:102B50000348C0F80080BDE8F8830000840000202E
:102B6000880000200E480068401C08B9012000E0E1
:102B7000002050B900BF502080F31188BFF34F8F61
:102B8000BFF36F8F00BF00BFFEE700BF502080F390
:102B90001188BFF34F8FBFF36F8F00BF00BFFEE7F9
:102BA000B800002008B500BF6846FFF753FC044694
:102BB00020460099FFF71CFFFFF768FEF4E770B5A9
:102BC000044600F09DF994F9455019E0A06C30B12D
:102BD0002046FFF7CBFD88B100F06CFB0EE0606A89
:102BE00008B9012000E0002038B904F1240001F008
:102BF0003FF918B100F05EFB00E003E0681E45B24B
:102C0000002DE3DC00BFFF2084F8450000F0A2F9AE
:102C100000F076F994F9445010E0206908B90120D9
:102C200000E0002048B904F1100001F021F908B1DA
:102C300000F040FB681E45B200E001E0002DECDC36
:102C400000BFFF2084F8440000F084F970BD00004C
:102C50002DE9F04104464FF0000800F0BBFB51485D
:102C6000006808B9FFF70AFC4F48006820400028B8
:102C70007ED13CB304F10800A04223D9083404F00B
:102C8000070000B304F00700C0F108002044A04290
:102C900016D904F00700C0F10800044404F007004E
:102CA00008B9012000E0002068B900BF502080F37F
:102CB0001188BFF34F8FBFF36F8F00BF00BFFEE7D8
:102CC000002400E00024002C54D0384800688442DE
:102CD00050D8374E3046056801E02E462D686868AA
:102CE000A04202D228680028F7D12E480068854209
:102CF00040D0306800F10808286830606868001B20
:102D0000102819D92F1907F0070008B9012000E091
:102D1000002050B900BF502080F31188BFF34F8FBF
:102D2000BFF36F8F00BF00BFFEE76868001B7860CD
:102D30006C603846FFF79EFC1C4968680968081AF1
:102D40001A490860084600681A490968884203D28F
:102D500016480068174908601349686809680843FD
:102D600068600020286014480068401C124900E098
:102D700000E0086001F0C8F808F0070008B9012079
:102D800000E0002050B900BF502080F31188BFF34D
:102D90004F8FBFF36F8F00BF00BFFEE74046BDE817
:102DA000F0810000A0000020B4000020A40000205A
:102DB00098000020A8000020AC000020001F4FF069
:102DC00080730360001F21F001030360001F034BA9
:102DD000036014380260203870470000652B00083B
:102DE0001CB50548012100238022CDE9001003A174
:102DF000054800F0F5FE1CBD3C00002073746172B4
:102E0000745F7461736B00000D2E00081CB50446DE
:102E100000F076F8084804210023CA01CDE900102B
:102E200006A1094800F0DCFE0848006800F0BCF983
:102E300000F090F81CBD0000400000207573657222
:102E40005F7461736B000000512E00083C0000208D
:102E500006E004A0FEF720FD4FF4FA7000F076F9CA
:102E6000F7E7000068656C6C6F0D0A0001460A699F
:102E7000D1E901309860D1E9010358605068884277
:102E800001D188685060002008611068401E106001
:102E90001068704700F1080141604FF0FF31816018
:102EA00000F10801C160016100210160704700214B
:102EB0000161704710B502460B685C1C0CB91069C3
:102EC00007E002F1080000E04068446824689C4282
:102ED000FAD944684C604C68A160886041600A611E
:102EE0001468641C146010BD42684A6093688B606B
:102EF000936859609160086103685B1C03607047C8
:102F000000BF502080F31188BFF34F8FBFF36F8F46
:102F100000BF0E480068401C0C4908600846006865
:102F2000012812D10A480068C0B208B9012000E0A7
:102F3000002050B900BF502080F31188BFF34F8F9D
:102F4000BFF36F8F00BF00BFFEE77047B8000020DF
:102F500004ED00E00D48006850B900BF502080F338
:102F60001188BFF34F8FBFF36F8F00BF00BFFEE725
:102F700006480068401E054908600846006820B9F8
:102F8000002080F3118800BF00BF7047B800002008
:102F900070B506463546002E44D0083D2C462249E1
:102FA00060680968084008B1012000E0002050B9BD
:102FB00000BF502080F31188BFF34F8FBFF36F8F96
:102FC00000BF00BFFEE7206808B9012000E0002034
:102FD00050B900BF502080F31188BFF34F8FBFF36B
:102FE0006F8F00BF00BFFEE70F49606809680840A7
:102FF000C0B12068B0B90C49606809688843606056
:1030000000F0E8F909496068096808440749086060
:103010002046FFF72FFB06480068401C0449086063
:1030200000F072FF70BD0000B4000020A40000207A
:10303000B000002000204FF0E021086188610648C0
:1030400000684FF47A71B0FBF1F0401E4FF0E021C0
:1030500048610720086170470000002070B5FDF747
:10306000B9F80446102C16D304F1E02090F8F05380
:1030700015480078854201DB012000E0002050B9AE
:1030800000BF502080F31188BFF34F8FBFF36F8FC5
:1030900000BF00BFFEE70D48006800F4E0600C4987
:1030A0000968884201D8012000E0002050B900BF23
:1030B000502080F31188BFF34F8FBFF36F8F00BF95
:1030C00000BFFEE770BD0000BC0000200CED00E07A
:1030D000C0000020024600200BE0084B53F83030BF
:1030E00033B9064B43F8301003EBC0035A6002E0DB
:1030F000401C0828F1D300BF70470000480500209D
:103100002DE9F04105460E4617462C46FFF7F8FE1E
:1031100094F94400401C10B9002084F8440094F94C
:103120004500401C10B9002084F84500FFF712FF4D
:10313000A06B28B93A46314604F1240000F0DCF8CF
:103140002046FFF73CFDBDE8F081000070B5044665
:103150000025D4B11248006808B9012000E0002021
:1031600050B900BF502080F31188BFF34F8FBFF3D9
:103170006F8F00BF00BFFEE700F02CF90021204652
:10318000FFF70CF800F0C0FE05463DB94FF0805047
:1031900004490860BFF34F8FBFF36F8F70BD00000D
:1031A0008000002004ED00E070B50546FFF7A8FEA2
:1031B00015B93048006800E028460446201DFFF796
:1031C00055FE78B9E06A00EB80002B4951F82000E9
:1031D00040B994F82C10012088402849096881439F
:1031E00026480160A06A18B104F11800FFF73EFEFE
:1031F00023480068401C224908601E480068844239
:1032000009D1211D1F48FFF76FFE1F480068401CB1
:103210001D49086009E01D480068401E1B49086000
:103220002046FFF70DF9FFF71DFCFFF793FE184846
:103230000068E8B10F480068844219D11548006859
:1032400008B9012000E0002050B900BF502080F3F1
:103250001188BFF34F8FBFF36F8F00BF00BFFEE732
:103260004FF080500C490860BFF34F8FBFF36F8F52
:1032700070BD000044000020880500205C00002094
:10328000700000204408002050000020540000205E
:10329000600000208000002004ED00E00349096880
:1032A0000160034909684160704700006C0000201C
:1032B0005800002001200149086070476800002084
:1032C00070B504460D4654B900BF502080F31188F4
:1032D000BFF34F8FBFF36F8F00BF00BFFEE70548FE
:1032E000016818312046FFF7E5FD01212846FEF769
:1032F00055FF70BD4400002070B505460E461446CB
:1033000055B900BF502080F31188BFF34F8FBFF332
:103310006F8F00BF00BFFEE70648016818312846DE
:10332000FFF7E2FD0CB14FF0FF3621463046FEF7C5
:1033300035FF70BD440000201CB51E4800210B461F
:103340008222CDE900101CA11D4800F049FC044672
:10335000012C02D100F05AFE0446012C15D100BF09
:10336000502080F31188BFF34F8FBFF36F8F00BFE2
:103370004FF0FF3013490860012013490860002016
:103380001249086000F074F810E0601C08B10120D8
:1033900000E0002050B900BF502080F31188BFF337
:1033A0004F8FBFF36F8F00BF00BFFEE70848006874
:1033B0001CBD00007800002049444C45000000007E
:1033C000F92400087400002060000020580000204C
:1033D0007C00002002480068401C014908607047DA
:1033E000800000201D48006818B101201C490860B9
:1033F00032E000201A4908601A480068B0FA80F0EC
:10340000C0F11F0101EB8100174A52F8200008B1FA
:10341000012000E0002050B900BF502080F3118847
:10342000BFF34F8FBFF36F8F00BF00BFFEE701EB0D
:1034300081020D4B03EB820042685268426000F14A
:1034400008024368934202D142685268426042686F
:10345000D268064B1A6000BF704700008000002051
:10346000680000205C000020880500204400002047
:103470001CB53849084600780190FF200A461070B4
:103480000846007800909DF8000000F0F0009DF8DC
:103490000020904201D1012000E0002050B900BF7F
:1034A000502080F31188BFF34F8FBFF36F8F00BFA1
:1034B00000BFFEE79DF8000000F05000264A1070A3
:1034C0000720264A106009E024480068401E234A6D
:1034D00010609DF800004006000E00909DF800006E
:1034E00000F080008028EFD01C480068C0F1070081
:1034F000042801D1012000E0002050B900BF502075
:1035000080F31188BFF34F8FBFF36F8F00BF00BFF1
:10351000FEE7124800680002104A1060104600885A
:1035200000F4E06010600B4A019810700C480068CD
:1035300040F470000A4908600846006840F0704096
:103540000860FFF777FD002006490860FCF70CFED5
:1035500000201CBD00E400E0BC000020C0000020F2
:1035600020ED00E0B800002010B500BF502080F32F
:103570001188BFF34F8FBFF36F8F00BF00F076FB52
:1035800018B14FF080500449086000BF002080F35C
:10359000118800BF10BD000004ED00E02DE9F843E4
:1035A00006460F4690460EB1012000E0002050B9BB
:1035B00000BF502080F31188BFF34F8FBFF36F8F90
:1035C00000BF00BFFEE706FB07F51FB1B5FBF7F034
:1035D000B04201D1012000E0002050B900BF5020CE
:1035E00080F31188BFF34F8FBFF36F8F00BF00BF11
:1035F000FEE705F15400A84201D9012000E00020B7
:1036000050B900BF502080F31188BFF34F8FBFF334
:103610006F8F00BF00BFFEE705F15400FFF718FBF6
:1036200004464CB1A14609F1540943464A4639467D
:1036300030460094FEF774FF2046BDE8F883000092
:1036400070B505460E462C4654B900BF502080F395
:103650001188BFF34F8FBFF36F8F00BF00BFFEE72E
:10366000FFF74EFCD4E90F12206801FB0200A060B6
:103670000020A06320686060E06B401E226C21681F
:1036800000FB0211E160FF2084F8440084F845004B
:103690009EB9206908B9012000E00020A8B904F112
:1036A000100000F0E5FB80B14FF080500949086040
:1036B000BFF34F8FBFF36F8F07E004F11000FFF7E8
:1036C000E9FB04F12400FFF7E5FBFFF743FC0120D1
:1036D00070BD000004ED00E02DE9FF4782B0064612
:1036E00088461D464FF00009344654B900BF5020AB
:1036F00080F31188BFF34F8FBFF36F8F00BF00BF00
:10370000FEE7B8F1000F01D1206C08B9012000E0FC
:10371000002050B900BF502080F31188BFF34F8FB5
:10372000BFF36F8F00BF00BFFEE7022D02D1E06B39
:10373000012801D1012000E0002050B900BF502035
:1037400080F31188BFF34F8FBFF36F8F00BF00BFAF
:10375000FEE700F075FA08B9049808B9012000E006
:10376000002050B900BF502080F31188BFF34F8F65
:10377000BFF36F8F00BF00BFFEE700BFFFF7C0FBC6
:10378000A06BE16B884201D3022D3ED1D4F838A062
:103790002A4641462046FEF714FE0746A06C88B133
:1037A000022D02D1BAF1000F29D12046FEF7DEFF2B
:1037B00028B34FF080503D490860BFF34F8FBFF3EF
:1037C0006F8F1CE0606A08B9012000E0002068B932
:1037D00004F1240000F04CFB88B14FF080503349D5
:1037E0000860BFF34F8FBFF36F8F08E03FB14FF01A
:1037F00080502E490860BFF34F8FBFF36F8FFFF7E4
:10380000A9FB012006B0BDE8F087049818B9FFF7BE
:10381000A1FB0020F6E7B9F1000F04D16846FFF7DD
:103820003DFD4FF00109FFF795FBFFF7D3FDFFF7D3
:1038300067FB94F94400401C10B9002084F8440050
:1038400094F94500401C10B9002084F84500FFF7AA
:1038500081FB04A9684600F07BF9F8B92046FEF721
:1038600076FFA8B104F110000499FFF729FD204666
:10387000FFF7A5F900F048FB00287FF47FAF4FF079
:1038800080500A490860BFF34F8FBFF36F8F75E711
:103890002046FFF794F900F037FB6FE72046FFF76B
:1038A0008EF900F031FB0020ACE7000004ED00E0F1
:1038B0002DE9F84F80468B4615461E46444654B9BE
:1038C00000BF502080F31188BFF34F8FBFF36F8F7D
:1038D00000BF00BFFEE7BBF1000F01D1206C08B9AB
:1038E000012000E0002050B900BF502080F3118873
:1038F000BFF34F8FBFF36F8F00BF00BFFEE7022EF5
:1039000002D1E06B012801D1012000E0002050B974
:1039100000BF502080F31188BFF34F8FBFF36F8F2C
:1039200000BF00BFFEE7FFF799FB00BF5021EFF398
:10393000118081F31188BFF34F8FBFF36F8F00BFEA
:103940000746A06BE16B884201D3022E42D194F965
:1039500045A0A06B0090324659462046FEF731FD47
:103960000AF10100E0B9A06C58B1022E01D1009813
:1039700068BB2046FEF7FAFE48B345B30120286035
:1039800025E0606A08B9012000E00020F8B904F1E0
:10399000240000F06DFAD0B1CDB10120286016E00E
:1039A000BAF17F0F01D0012000E0002050B900BF24
:1039B000502080F31188BFF34F8FBFF36F8F00BF8C
:1039C00000BFFEE70AF1010040B284F845004FF065
:1039D000010901E04FF0000900BF87F3118800BF23
:1039E0004846BDE8F88F00002DE9F74183B0054651
:1039F0000E464FF000082C4654B900BF502080F30B
:103A00001188BFF34F8FBFF36F8F00BF00BFFEE77A
:103A10000EB9206C08B9012000E0002050B900BFA9
:103A2000502080F31188BFF34F8FBFF36F8F00BF1B
:103A300000BFFEE700F004F908B9059808B90120B5
:103A400000E0002050B900BF502080F31188BFF380
:103A50004F8FBFF36F8F00BF00BFFEE700BFFFF7C0
:103A60004FFAA76BF7B131462046FEF795FC781E5A
:103A7000A063206908B9012000E0002060B904F1CA
:103A8000100000F0F5F938B14FF080502F49086070
:103A9000BFF34F8FBFF36F8FFFF75CFA012006B0C3
:103AA000BDE8F081059818B9FFF754FA0020F6E751
:103AB000B8F1000F04D101A8FFF7F0FB4FF00108A7
:103AC000FFF748FAFFF786FCFFF71AFA94F944006B
:103AD000401C10B9002084F8440094F94500401CB3
:103AE00010B9002084F84500FFF734FA05A901A8B1
:103AF00000F02EF8F0B92046FEF71CFEA0B104F14C
:103B000024000599FFF7DCFB2046FFF758F800F08A
:103B1000FBF90028A3D14FF080500C490860BFF397
:103B20004F8FBFF36F8F9AE72046FFF748F800F0FA
:103B3000EBF994E72046FFF742F800F0E5F920465C
:103B4000FEF7F8FD00288AD00020A8E704ED00E089
:103B500070B505460C4655B900BF502080F311885A
:103B6000BFF34F8FBFF36F8F00BF00BFFEE754B9A5
:103B700000BF502080F31188BFF34F8FBFF36F8FCA
:103B800000BF00BFFEE7FFF7BBF913480268686893
:103B9000131A2068401C08B9002619E00F4928684C
:103BA0000968884206D06868904203D80126002040
:103BB00020600DE02068984207D92068C01A206074
:103BC0002846FFF76BFB002602E00020206001265C
:103BD000FFF7C0F9304670BD580000206C0000208F
:103BE0002DE9FF4F85B0804689461746DDE912ABC7
:103BF000B800FFF72DF8064656B15C20FFF728F80D
:103C000004460CB1266304E03046FFF7C1F900E03A
:103C100000247CB10020CDE900ABCDE902403A465A
:103C200049464046089BFEF792FC2046FEF702FB01
:103C3000012501E04FF0FF35284609B0BDE8F08FBF
:103C40000549096809B9012005E00449096809B96D
:103C5000022000E00020704760000020800000206B
:103C60000149086870470000580000202DE9F04124
:103C70004FF000084448006800287CD143480068A1
:103C8000451C4248056015BB41480068006808B9FA
:103C9000012000E0002050B900BF502080F31188BF
:103CA000BFF34F8FBFF36F8F00BF00BFFEE73848F1
:103CB0000768384800683649086036480760364863
:103CC0000068401C34490860FEF7CCFE00BF334852
:103CD000006885423CD300BF2D480068006808B9E1
:103CE000012000E0002020B14FF0FF302B49086098
:103CF0002DE027480068C068C4686668B54202D2F3
:103D00002648066023E0201DFFF7B0F8A06A18B12E
:103D100004F11800FFF7AAF894F82C10012088404D
:103D20001F49096808431E490860E16A01EB8101E7
:103D30001C4A02EB8100211DFFF7D6F81A49E06A00
:103D40000968C96A8842C7D34FF00108C4E700BFB9
:103D500015480068C06A00EB8000124951F8200045
:103D6000012801D94FF001081048006808B14FF050
:103D7000010805E0FFE70E480068401C0C49086098
:103D80004046BDE8F081000080000020580000207F
:103D9000480000204C0000206C000020740000202F
:103DA0005C000020880500204400002068000020FE
:103DB0006400002070B505462C460026002D4ED02C
:103DC00028480068844201D1012000E0002050B959
:103DD00000BF502080F31188BFF34F8FBFF36F8F68
:103DE00000BF00BFFEE7206D50B900BF502080F338
:103DF0001188BFF34F8FBFF36F8F00BF00BFFEE787
:103E0000206D401E2065E16CE06A884227D0206D5D
:103E100028BB201DFFF72AF840B994F82C10012088
:103E200088401149096881430F480160E06CE062F5
:103E3000E06AC0F12000A06194F82C1001208840B5
:103E400009490968084308490860E16A01EB8101F2
:103E5000064A02EB8100211DFFF746F80126304695
:103E600070BD0000440000205C0000208805002098
:103E700070B50646F068C46854B900BF502080F39E
:103E80001188BFF34F8FBFF36F8F00BF00BFFEE7F6
:103E900004F11800FEF7EAFF15480068A8B9201DD4
:103EA000FEF7E4FF94F82C100120884011490968BE
:103EB000084310490860E16A01EB81010E4A02EBF8
:103EC0008100211DFFF710F804E004F118010B48F0
:103ED000FFF70AF80A49E06A0968C96A884204D902
:103EE000012501200749086000E00025284670BD33
:103EF000800000205C0000208805002030080020A1
:103F0000440000206800002070B5002400263648D8
:103F1000006850B900BF502080F31188BFF34F8F65
:103F2000BFF36F8F00BF00BFFEE7FEF7E9FF2E482B
:103F30000068401E2C4908600846006800284FD1E0
:103F40002A48006800284BD024E02948C068C4688B
:103F500004F11800FEF78AFF201DFEF787FF94F892
:103F60002C10012088402349096808432149086032
:103F7000E16A01EB8101204A02EB8100211DFEF77D
:103F8000B3FF1E49E06A0968C96A884202D301206A
:103F90001B4908601648006808B9012000E00020AD
:103FA0000028D2D00CB1FEF75DFD1648056865B15A
:103FB00000BFFFF75BFE10B10120114908606D1EC4
:103FC000002DF6D100200F4908600D48006838B177
:103FD000012630070C490860BFF34F8FBFF36F8F86
:103FE000FEF7B8FF304670BD80000020540000206E
:103FF000300800205C0000208805002044000020DC
:10400000680000206400002004ED00E01CB50024DE
:10401000FEF76CF90E48006858B10E481F210023C6
:104020004FF48272CDE900100BA10D48FFF7D8FDC7
:10403000044654B900BF502080F31188BFF34F8F5E
:10404000BFF36F8F00BF00BFFEE720461CBD00001E
:104050008C00002090000020546D72205376630085
:10406000A52B00082DE9FF4704460D4616461F46BE
:10407000DDF830804FF0000954B900BF502080F3C4
:104080001188BFF34F8FBFF36F8F00BF00BFFEE7F4
:104090001448006810B3009501960294062D15DAB5
:1040A000FFF7CEFD022808D10023424669460D489D
:1040B0000068FFF711FB814610E000231A466946AD
:1040C00008480068FFF708FB814607E000233A46EE
:1040D000694604480068FFF7EBFB8146484604B098
:1040E000BDE8F0878C000020084100080000002097
:1040F000C8000000B8180008D0410008C80000201F
:10410000D08B0000C818000800A24A04000000007C
:104110000000000001020304060708090000000077
:104120000102030401020304060708090204060849
:10413000000000000000000000000000000000007F
:10414000000000000000000000000000000000006F
:10415000000000000000000000000000000000005F
:10416000000000000000000000000000000000004F
:10417000000000000000000000000000000000003F
:10418000000000001F000000000000000000000010
:10419000000000000000000000000000000000001F
:1041A000000000000000000000000000000000000F
:1041B00000000000000000000000000000000000FF
:1041C000AAAAAAAA00000000000000000000000047
:0400000508000131BD
:00000001FF
