:020000040800F2
:10000000C00800204501000823080008A1030008DB
:100010001F0800088D010008D31700080000000029
:10002000000000000000000000000000F50B0008C8
:100030009101000800000000950A0008550D000815
:100040005F0100085F0100085F0100085F01000810
:100050005F0100085F0100085F0100085F01000800
:100060005F0100085F0100085F0100085F010008F0
:100070005F0100085F0100085F0100085F010008E0
:100080005F0100085F0100085F0100085F010008D0
:100090005F0100085F0100085F010008AD01000872
:1000A0005F0100085F0100085F0100085F010008B0
:1000B000F90F000811100008291000085F0100085E
:1000C0005F0100085F0100085F0100085F01000890
:1000D0005F010008D11500085F010008F515000850
:1000E0005F0100085F0100085F0100085F01000870
:1000F0005F0100085F0100085F0100085F01000860
:100100005F0100085F010008411000085F0100085E
:100110005F0100085F010008591000085F01000836
:100120005F0100085F0100085F0100085F0100082F
:10013000DFF80CD000F018F800480047D91E00087E
:10014000C00800200648804706480047FEE7FEE753
:10015000FEE7FEE7FEE7FEE7FEE7FEE7FEE7FEE777
:10016000590D000831010008064C074D06E0E06813
:1001700040F0010394E8070098471034AC42F6D3EE
:10018000FFF7DAFF781F0008981F000800BFFEE79E
:100190007047000010B5044801F012FBC4B22146BC
:1001A000014801F012FB10BD0038014010B52020BD
:1001B00000F00AF8202000F001F810BD01490860A5
:1001C0007047000014040140014600200022074B44
:1001D0001B6803EA0102054B14331B680B4013B183
:1001E0000AB1012000E00020704700000004014037
:1001F0002DE9F041024600250026002000230024BE
:10020000002791F803C00CF00F0591F803C00CF023
:10021000100CBCF1000F03D091F802C04CEA0505A8
:1002200091F800C0BCF1000F31D0146800202BE021
:100230004FF0010C0CFA00F3B1F800C00CEA030611
:100240009E4220D183004FF00F0C0CFA03F7BC4301
:1002500005FA03FC4CEA040491F803C0BCF1280F32
:1002600006D14FF0010C0CFA00FCC2F814C00AE0F1
:1002700091F803C0BCF1480F05D14FF0010C0CFA06
:1002800000FCC2F810C0401C0828D1D31460B1F89B
:1002900000C0BCF1FF0F34DD546800202EE000F1F7
:1002A000080C4FF0010808FA0CF3B1F800C00CEA92
:1002B00003069E4221D183004FF00F0C0CFA03F786
:1002C000BC4305FA03FC4CEA040491F803C0BCF1FA
:1002D000280F05D100F1080C08FA0CF8C2F81480B8
:1002E00091F803C0BCF1480F07D100F1080C4FF0A2
:1002F000010808FA0CF8C2F81080401C0828CED378
:100300005460BDE8F0810000F0B50A4600230024E7
:100310000021002500F00046B6F1004F02D11D4E2D
:10032000F16901E01B4E7168C0F3034583B200F42C
:100330004016B6F5401F08D121F07061154E766861
:1003400026F07066134F7E6012E000F48016B6F55A
:10035000801F06D1032606FA05F4A14341F070611F
:1003600006E0460D360103FA06F6B14341F070612E
:1003700022B1460D360103FA06F6314300F000467D
:10038000B6F1004F02D1034EF16101E0014E716000
:10039000F0BD0000000001404161704701617047FD
:1003A00000BFFEE710B580210A48FFF7F7FF2021C4
:1003B0000848FFF7F3FF00F011F980210548FFF727
:1003C000EBFF00F00BF920210248FFF7E5FF00F0FA
:1003D00005F910BD0008014010B580210648FFF75F
:1003E000DBFF20210448FFF7D9FF00F0F7F8802158
:1003F0000148FFF7D3FF10BD0008014010B5802170
:100400000848FFF7CBFF00F0E9F820210548FFF787
:10041000C5FF00F0E3F820210248FFF7BDFF00F020
:10042000DDF810BD0008014010B500200949086042
:1004300000F0CEFB00200849C1F8AC0100F0D6F86E
:1004400001200449086000F0D1F800200249C1F8F9
:10045000A80110BDA88121420080214210B50020D2
:100460000949086000F0B4FB01200849C1F8AC015B
:1004700000F0BCF801200449086000F0B7F8002043
:100480000249C1F8A80110BDA88121420080214283
:1004900070B50546002400F089FB002614E000201A
:1004A0000E49086000F0A2F801200D49C1F8A8012A
:1004B0006006040E09487C38006808B1601CC4B2AC
:1004C00000F094F8701CC6B2082EE8DB15B9FFF7EF
:1004D000C5FF01E0FFF7A8FF204670BDA8812142BB
:1004E0000080214270B5044600F072FB00200D49E7
:1004F0000860002512E0E0090A49091D086060064D
:10050000040E01200849C1F8A80100F06FF800208E
:100510000449086000F06AF8681CC5B2082DEADBDF
:1005200070BD0000A88121420080214210B500F07A
:100530004FFB0120084908600849C1F8A80100F0F4
:1005400055F800200449086000F050F800200349E5
:10055000C1F8A80110BD0000AC81214200802142F9
:1005600010B500F035FB0020074908600749C1F8C5
:10057000AC0100F03BF80120034908600349C1F8D1
:10058000AC0100F033F810BDA88121420080214267
:1005900010B5002400F00AFB01200E49086000F0AD
:1005A00025F801200C49C1F8A80100F01FF807E068
:1005B000601CC4B2FA2C03DDFFF7D2FF012010BD8E
:1005C0000448803800680028F2D10249091F0860F9
:1005D00000BFF4E7AC81214200802142032000BF2C
:1005E000011EA0F10102D0B2FAD1704710B502206D
:1005F00001F030FC10BD000008B50121082000F01A
:100600005BFA4FF48060ADF8000003208DF8020023
:1006100014208DF8030069460B48FFF7E9FD4FF4FD
:100620000060ADF8000003208DF8020014208DF862
:10063000030069460448FFF7DBFD01200349086019
:100640000349C1F8AC0108BD000C0140A88121425A
:100650000080214210B5FFF7CFFF80226B21682078
:1006600000F0B7F8642001F0CFFB00226B21682076
:1006700000F0AFF8032000F065F8002000F059F812
:10068000C82000F088F801223821682000F0A1F885
:1006900000226A21682000F09CF8002223216820B3
:1006A00000F097F89C223721682000F092F875211D
:1006B000682000F019F80B4908700846007868288F
:1006C0000CD101226B2100F084F800226C216820FB
:1006D00000F07FF8C82000F05EF801E0012010BDB6
:1006E0000020FCE73C00002070B504460D460026C3
:1006F000FFF71CFF002141EA4401C8B2FFF7F2FEF8
:10070000FFF746FF2846FFF7EDFEFFF741FFFFF733
:100710000DFF012101EB4401C8B2FFF7E3FEFFF733
:1007200037FF0020FFF7B4FE0646FFF719FF3046FB
:1007300070BD10B50446E006020E1C21682000F0D2
:1007400048F810BD10B50446032000EBC400C2B247
:100750001B21682000F03DF810BD70B5044600254F
:10076000BC2C01DB012510E0622C01DB02250CE032
:100770002A2C01DB032508E0142C01DB042504E00E
:100780000A2C01DB052500E006252A461A216820EF
:1007900000F01FF870BD70B50446B4F57A7F01DD36
:1007A0004FF47A74042C00DA04244FF47A7090FB2E
:1007B000F4F0401EC5B22A461921682000F009F85D
:1007C0000546264604EBD671C1F34F00FFF7C5FF7F
:1007D00070BD70B504460D461646FFF7A7FE002112
:1007E00041EA4401C8B2FFF77DFEFFF7D1FE18B120
:1007F000FFF7B6FE012070BD2846FFF773FEFFF736
:10080000C7FE3046FFF76EFEFFF7C2FE18B1FFF7D6
:10081000A7FE0120EFE7FFF7A3FE0020EBE700BFF4
:10082000FEE7704770B5002100230F22C47804B39F
:10083000154C246804F4E064C4F5E064210AC1F1B5
:100840000403CA40447804FA03F184781440214335
:1008500009010E4C0678A155047804F01F05012407
:10086000AC4005786D11AD0005F1E025C5F80041FB
:1008700009E0047804F01F050124AC40044D06781B
:10088000761145F8264070BD0CED00E000E400E074
:1008900080E100E002490143024A11607047000014
:1008A0000000FA050CED00E070B500240CE0002516
:1008B00006E00020074901EBC5010855681CC5B2D8
:1008C000802DF6DB601CC4B2082CF0DB00F092F83F
:1008D00070BD00004000002008B50121042000F098
:1008E000EBF82020ADF8000014208DF80300032061
:1008F0008DF8020069463E48FFF77AFC20213C480B
:10090000FFF74CFD8020ADF8000069463848FFF73E
:100910006FFC80213648FFF741FD0021AE2000F03A
:100920009DF80021084600F099F80021102000F001
:1009300095F80021402000F091F80021812000F07E
:100940008DF80021CF2000F089F80021A12000F0CF
:1009500085F80021C82000F081F80021A62000F0D1
:100960007DF80021A82000F079F800213F2000F058
:1009700075F80021D32000F071F80021084600F03E
:100980006DF80021D52000F069F80021802000F0EA
:1009900065F80021D92000F061F80021F12000F075
:1009A0005DF80021DA2000F059F80021122000F053
:1009B00055F80021DB2000F051F80021302000F034
:1009C0004DF80021202000F049F80021022000F01D
:1009D00045F800218D2000F041F80021142000F09E
:1009E0003DF8FFF761FF0021AF2000F037F808BDA8
:1009F0000008014070B500242BE004F1B001C8B23A
:100A0000002100F02BF80021084600F027F8002113
:100A1000102000F023F8FFF7C5FC782000F0ECF878
:100A2000FFF7ECFC402000F0E7F8FFF7E7FC0025BB
:100A300009E0094901EBC501085D00F0DDF8FFF7A9
:100A4000DDFC681CC5B2802DF3DBFFF7C5FC601C24
:100A5000C4B2082CD1DB70BD4000002070B5054643
:100A60000C46FFF79FFC782000F0C6F8FFF7C6FCA5
:100A70001CB1402000F0C0F802E0002000F0BCF8FB
:100A8000FFF7BCFC284600F0B7F8FFF7B7FCFFF70C
:100A9000A3FC70BD7047000029B1064AD269024329
:100AA000044BDA6104E0034AD2698243014BDA6104
:100AB000704700000010024029B1064A92690243C3
:100AC000044B9A6104E0034A92698243014B9A61A4
:100AD000704700000010024030B5002100220024C1
:100AE00000232D4D6D6805F00C0121B1042905D0BE
:100AF000082923D105E0294D056022E0274D056036
:100B00001FE0254D6D6805F47012234D6D6805F4E6
:100B10008034022505EB92421CB9214D55430560F6
:100B20000BE01D4D6D6805F400351DB11C4D55439E
:100B3000056002E0194D5543056002E0174D056060
:100B400000BF00BF144D6D6805F0F0010909154D97
:100B50006B5C0568DD4045600F4D6D6805F4E06134
:100B6000090A104D6B5C4568DD4085600A4D6D6873
:100B700005F46051C90A0B4D6B5C4568DD40C560EA
:100B8000054D6D6805F44041890B074D6B5CC568E8
:100B9000B5FBF3F5056130BD0010024000127A008C
:100BA00000093D00180000202800002008B54FF47F
:100BB0000060ADF8000003208DF8020048208DF899
:100BC000030069460148FFF713FB08BD000C014014
:100BD00008B54FF40060ADF8000003208DF8020066
:100BE00014208DF8030069460148FFF701FB08BD9A
:100BF000000C01407047000070B5044600251BE062
:100C000004F0800020B180210D48FFF7C7FB03E00E
:100C100080210B48FFF7C0FBFFF7E0FC20210848CC
:100C2000FFF7BCFBFFF7DAFC20210548FFF7B4FB18
:100C30006006040E681CC5B2082DE1DB70BD000023
:100C40000008014010B500F001F810BD0CB50020FF
:100C5000019000903348006840F4803031490860CA
:100C600000BF3048006800F4003000900198401C3C
:100C70000190009818B90198B0F5A06FF1D12948FA
:100C8000006800F4003010B10120009001E0002065
:100C900000900098012843D12348006840F01000DC
:100CA000214908600846006820F0030008600846F3
:100CB000006840F0020008601A484068194948601E
:100CC0000846406848600846406840F480604860D4
:100CD0000846406820F47C1048600846406840F4AC
:100CE000E81048600846006840F08070086000BF67
:100CF0000C48006800F000700028F9D009484068EE
:100D000020F00300074948600846406840F00200B0
:100D1000486000BF0348406800F00C000828F9D183
:100D20000CBD00000010024000200240042808D141
:100D30004FF0E021096941F004014FF0E022116118
:100D400007E04FF0E021096921F004014FF0E022B3
:100D5000116170477047000010B51348006840F0FB
:100D600001001149086008464068104908400E49D2
:100D70004860084600680E4908400B49086008466C
:100D8000006820F4802008600846406820F4FE00D7
:100D900048604FF41F008860FFF754FF4FF0006079
:100DA0000449086010BD0000001002400000FFF878
:100DB000FFFFF6FE08ED00E0F0B50C4615460022F8
:100DC0000021068C4FF6FE773E400684028B018C94
:100DD0004FF60C7632407E1C06EA03162E43324351
:100DE000104EB0420ED0104EB0420BD0B0F1804F3A
:100DF00008D00E4EB04205D00D4EB04202D00D4E7E
:100E0000B04206D14FF6FD76314044F00106314341
:100E100005E04FF6F576314044F001063143028398
:100E20000184F0BD002C014000340140000400406A
:100E300000080040000C0040F0B50C4615460022AA
:100E400000210026078C4FF6EF7C07EA0C07078489
:100E5000028B018C4FF6FF7707EA041640F6FF4736
:100E60003A404FF6FF7707EA03373A434FF6FF77EA
:100E700007EA05273A43114FB8420ED0104FB84247
:100E80000BD0B0F1804F08D00E4FB84205D00E4FB6
:100E9000B84202D00D4FB84206D14FF6DF77394045
:100EA00046F01007394305E04FF65F77394044F0CC
:100EB0001007394302830184F0BD0000002C01407B
:100EC000003401400004004000080040000C0040D5
:100ED000F0B50C461546002200210026078C4FF67F
:100EE000FF6C07EA0C070784828B018C4FF6FF77B3
:100EF00007EA04264FF60C773A404FF6FF7707EAE9
:100F000003172F433A43114FB8420ED0104FB84247
:100F10000BD0B0F1804F08D00E4FB84205D00E4F25
:100F2000B84202D00D4FB84206D14FF6FF573940B4
:100F300046F48077394305E04FF2FF57394044F4D7
:100F40008077394382830184F0BD0000002C01408A
:100F5000003401400004004000080040000C004044
:100F6000F0B50C461546002200210026078C4EF6EF
:100F7000FF7C07EA0C070784828B018C4FF6FF7712
:100F800007EA043640F6FF473A404FF6FF7707EA94
:100F900005273A434FF6FF7707EA03373A43114FE5
:100FA000B8420ED0104FB8420BD0B0F1804F08D0ED
:100FB0000E4FB84205D00E4FB84202D00D4FB84286
:100FC00006D14DF6FF77394046F48057394305E0A6
:100FD00047F6FF57394044F48057394382830184F0
:100FE000F0BD0000002C014000340140000400402E
:100FF00000080040000C00404FF08040008A4FF095
:101000008040008A20F001004FF080410882704744
:10101000044800880348008820F001000149088046
:10102000704700001004004004480088034800880E
:1010300020F00100014908807047000010080040BE
:10104000044800880348008820F001000149088016
:1010500070470000100C004010B50121044800F05A
:1010600057F818B10121024800F013F810BD000034
:101070000010004021B1028842F08002028004E0AA
:1010800002884FF67F731A4002807047CA4302827B
:101090007047CA430282704721B1028842F00102C0
:1010A000028004E002884FF6FE731A400280704707
:1010B00031B1B0F8442042F40042A0F8442005E0E9
:1010C000B0F84420C2F30E02A0F844207047F0B5F7
:1010D0000C4615461E460021002200230189028B82
:1010E000038C4FF6F877394021434FF6FC473A40DE
:1010F00040F201173A434FF6DD773B404FF6FF775A
:1011000007EA06172F433B43018102830384F0BDA6
:1011100030B50246002000230024158A05EA0103A9
:10112000958905EA010413B10CB1012000E000200B
:1011300030BD000070B505460C46244885420ED0EF
:10114000234885420BD0B5F1804F08D02148854215
:1011500005D02148854202D02048854200D100E0D8
:1011600000BF208850B92389A28861882846FFF7EC
:1011700023FEE188284600F0A2F925E02088042813
:101180000AD12389A28861882846FFF755FEE188A5
:10119000284600F09DF917E0208808280AD1238905
:1011A000A28861882846FFF793FEE188284600F070
:1011B0009CF909E02389A28861882846FFF7D0FEC0
:1011C000E188284600F09AF970BD0000002C01402B
:1011D000003401400004004000080040000C0040C2
:1011E000002101804180012181800021C180018195
:1011F00070471AB183890B43838102E083898B4353
:101200008381704770B5002400220023058C4FF6BF
:10121000FE7635400584028C8388048B4FF68F75EB
:101220002C40B51E2C400D882C43751E2A400D897C
:101230002A434D882A43144DA8420BD0134DA8428F
:1012400008D0134DA84205D0124DA84202D0124D2D
:10125000A84213D14FF6F7752A404D892A434FF61D
:10126000FB752A408D882A434FF6FF652B404FF6C9
:10127000FF552B408D892B43CD892B4383800483DD
:10128000CD888586028470BD002C01400034014069
:101290000040014000440140004801400A4600214E
:1012A000018B4FF6F773194011430183704700001B
:1012B00070B5002400220023058C4FF6EF763540F0
:1012C0000584028C8388048B48F6FF752C404FF60A
:1012D000FF452C400D884FF6FF7606EA05252C4386
:1012E0004FF6DF752A400D8906EA05152A434D8819
:1012F00006EA05152A43154DA84202D0144DA8420E
:101300001DD14FF67F752A404D894FF6FF7606EACC
:1013100005152A434FF6BF752A408D8806EA051544
:101320002A434FF6FF352B404FF2FF752B408D8936
:1013300006EA85052B43CD8906EA85052B43838084
:101340000483CD880587028470BD0000002C014015
:10135000003401400A460021018B4FF2FF7319400F
:101360004FF6FF7303EA022319430183704700001D
:1013700070B5002400220023058C4FF6FF6635402F
:101380000584028C8388848B4FF68F752C404FF632
:10139000FC752C400D882C434FF6FF552A400D89D3
:1013A0004FF6FF7606EA05252A434D8806EA05250D
:1013B0002A43154DA84202D0144DA8421DD14FF228
:1013C000FF752A404D894FF6FF7606EA05252A4328
:1013D0004FF6FF352A408D8806EA05252A434EF64A
:1013E000FF752B404DF6FF752B408D8906EA0515DC
:1013F0002B43CD8906EA05152B4383808483CD8852
:101400008587028470BD0000002C0140003401403B
:101410000A460021818B4FF6F773194011438183EF
:101420007047000070B5002200230024058C4EF6A2
:10143000FF7635400584038C8488828B48F6FF75DF
:101440002A404FF6FF452A400D884FF6FF7606EA00
:1014500005252A434DF6FF752B400D8906EA053513
:101460002B434D8806EA05352B430B4DA84202D08D
:101470000A4DA84208D14BF6FF752C408D894FF6D6
:10148000FF7606EA85152C4384808283CD88A0F8F8
:101490004050038470BD0000002C01400034014026
:1014A0000A460021818B4FF2FF7319404FF6FF73FC
:1014B00003EA022319438183704781847047028BBA
:1014C0004FF6F3731A400283028B0A43028370477C
:1014D000028B4FF2FF331A400283028B4FF6FF73E9
:1014E00003EA01231A4302837047828B4FF6F3739A
:1014F0001A408283828B0A4382837047828B4FF229
:10150000FF331A408283828B4FF6FF7303EA012375
:101510001A43828370470000002202881D4B9842C4
:101520000ED01D4B98420BD0B0F1804F08D01B4B12
:10153000984205D01A4B984202D01A4B984204D1D7
:101540004FF68F731A404B881A43174B984207D0B7
:10155000164B984204D04FF6FF431A40CB881A43EB
:1015600002808B8883850B8803850A4B98420BD0B9
:10157000094B984208D00E4B984205D00D4B98422B
:1015800002D00D4B984201D10B7A0386012383824E
:1015900070470000002C014000340140000400406E
:1015A00000080040000C0040001000400014004003
:1015B0000040014000440140004801404FF6FF71E7
:1015C000818000210180C18041800172704700004C
:1015D00010B540F22551064800F037F830B1FEF75B
:1015E000D9FD40F22551024800F014F810BD00006A
:1015F0000038014010B540F22551054800F025F8AB
:1016000020B140F22551024800F004F810BD00005E
:101610000048004010B50022002340F66A14A142A1
:1016200000D100BF0A1201249440A3B2DC4304801D
:1016300010BD21B1828942F40052828104E0828986
:101640004DF6FF731A408281704770B50246002440
:1016500000230025002040F66A16B14200D100BFE9
:10166000C1F3421501F01F03012606FA03F3012D11
:1016700002D19689334006E0022D02D1168A33400A
:1016800001E0968A33400C12012606FA04F416880B
:10169000344013B10CB1012000E0002070BDF0B562
:1016A0000346002400260025002040F66A17B942B0
:1016B00000D100BF1846C1F3421401F01F060127F4
:1016C00007FA06F5012C01D10C3004E0022C01D1FF
:1016D000103000E014301AB107682F43076002E0B1
:1016E0000768AF430760F0BD2DE9F04786B00546B7
:1016F0000E460024A24600BFA1460027B08900B1D3
:1017000000BF2F462C8A4CF6FF700440F08804433B
:101710002C82AC894EF6F3100440B088318908431E
:10172000718908430443AC81AC8A4FF6FF40044002
:10173000B0890443AC8201A8FFF7CEF91F48874265
:1017400002D1DDF810A001E0DDF80CA0A88900F4BA
:10175000004040B10AEBCA0000EB0A1031684900B2
:10176000B0FBF1F807E00AEBCA0000EB0A103168A1
:101770008900B0FBF1F86420B8FBF0F00401200907
:10178000642101FB1089A88900F4004040B1322097
:1017900000EBC900B0FBF1F000F00700044308E0E3
:1017A000322000EB09106421B0FBF1F000F00F00D3
:1017B00004432C8106B0BDE8F087000000380140EA
:1017C00001468888C0F308007047C1F30802828090
:1017D000704700BFFEE702E008C8121F08C1002AD8
:1017E000FAD170477047002001E001C1121F002AA2
:1017F000FBD170470EB501210846FFF74DF90121D5
:101800000420FFF759F901210820FFF755F90121BC
:101810000846FFF751F901219348FEF775FD4FF493
:101820000040ADF8080004208DF80B0002A98F4895
:10183000FEF7DEFC0820ADF8080002A98C48FEF790
:10184000D7FC01218B48FEF75FFD6846FFF7B6FE27
:101850000020ADF800004FF6FF70ADF80400002046
:10186000ADF80600ADF8020069464FF08040FFF782
:1018700053FE00231A4603214FF08040FFF727FC58
:101880006846FFF7ADFC0A20ADF80800694640073E
:10189000FFF750FC01218807FFF7F8FB01221146F2
:1018A0009007FFF7A6FC00214FF08040FFF705FEF0
:1018B00001218807FFF7F0FB01210220FFF7ECF878
:1018C00001210820FFF7F8F83020ADF808000420C7
:1018D0008DF80B0002A96648FEF78AFC01216648D4
:1018E000FEF712FD6846FFF769FE0020ADF8000024
:1018F0004FF6FF70ADF804000020ADF80600ADF81B
:10190000020069465D48FFF707FE00231A460321DF
:101910005A48FFF7DCFB6846FFF762FC0A20ADF887
:10192000080069465548FFF705FC01215348FFF7B9
:10193000ADFB012211465148FFF75BFC00214F48E7
:10194000FFF7BBFD01214D48FFF7A6FB0121042055
:10195000FFF7A2F801210820FFF7AEF8C020ADF88C
:10196000080004208DF80B0002A94148FEF740FC56
:101970006846FFF723FE0020ADF800004FF6FF7029
:10198000ADF804000020ADF80600ADF8020069468D
:101990003B48FFF7C1FD00231A4603213848FFF7F3
:1019A00096FB6846FFF71CFC0A20ADF80800694664
:1019B0003348FFF7BFFB01213148FFF767FB0122E6
:1019C00011462F48FFF715FC00212D48FFF775FD44
:1019D00001212B48FFF760FB01210820FFF75CF88D
:1019E00001210420FFF768F80320ADF80800042067
:1019F0008DF80B0002A91D48FEF7FAFB6846FFF7B9
:101A0000DDFD0020ADF800004FF6FF70ADF80400DA
:101A10000020ADF80600ADF8020069461948FFF74E
:101A20007BFD00231A4603211648FFF750FB68464A
:101A3000FFF7D6FB0A20ADF8080069461148FFF70A
:101A400079FB01210F48FFF721FB012211460D48C8
:101A5000FFF7CFFB00210B48FFF72FFD01210948BD
:101A6000FFF71AFB0EBD0000000230000008014025
:101A7000000C01400001180000081A00000400409A
:101A800000080040000C004008B501212020FFF7AD
:101A900013F801211020FFF70FF801210820FFF7AC
:101AA0000BF80420ADF8000048208DF803006946CB
:101AB0000948FEF79DFB41F60740ADF80000694676
:101AC0000648FEF795FB4FF48050ADF800006946DC
:101AD0000348FEF78DFB08BD0014014000100140D3
:101AE000000C014008B501210420FEF7E5FF0121AB
:101AF0001020FEF7E1FF4FF40050ADF80000102079
:101B00008DF8030003208DF8020069460148FEF7B6
:101B10006FFB08BD0010014010B501214FF4E150EA
:101B200000F004F8FFF766FE10BD000030B589B084
:101B300005460C460121C802FEF7BEFF0121042024
:101B4000FEF7BAFF4FF47060ADF8200018208DF852
:101B5000230003208DF8220008A95548FEF748FB12
:101B6000681E80B2ADF81800601E80B2ADF8140097
:101B70000020ADF81A00ADF8160005A94D48FFF792
:101B8000CBFC6020ADF804000120ADF80600002079
:101B9000ADF80A00ADF80C0001A94648FFF732FB8A
:101BA00001A94448FFF784FB01A94248FFF7E0FB85
:101BB00001A94048FFF736FC01213E48FFF778FABB
:101BC00008213C48FFF76AFB08213A48FFF7C2FBAF
:101BD00008213848FFF71CFC08213648FFF760FC55
:101BE00001213448FFF746FA01213248FFF754FA41
:101BF00001214803FEF760FF01211020FEF75CFF82
:101C00004FF47070ADF8200018208DF823000320E9
:101C10008DF8220008A92848FEF7EAFA681E80B26B
:101C2000ADF81800601E80B2ADF814000020ADF8C9
:101C30001A00ADF8160005A92048FFF76DFC6020DA
:101C4000ADF804000120ADF806000020ADF80A0050
:101C5000ADF80C0001A91948FFF7D4FA01A91748FB
:101C6000FFF726FB01A91548FFF782FB01A91348DE
:101C7000FFF7D8FB01211148FFF71AFA08210F4896
:101C8000FFF70CFB08210D48FFF764FB08210B4808
:101C9000FFF7BEFB08210948FFF702FC01210748B6
:101CA000FFF7E8F901210548FFF7F6F909B030BD63
:101CB00000080140002C01400010014000340140A8
:101CC0003EB505460C4601211020FEF7E5FE681ED4
:101CD00080B2ADF80400601E80B2ADF800000020B4
:101CE000ADF80600ADF8020069460E48FFF714FC97
:101CF00036208DF8080003208DF8090000208DF8AB
:101D00000A0001208DF80B0002A8FEF78BFD0122CE
:101D100011460448FFF76DFA01210248FFF7BCF9AC
:101D20003EBD0000001000401FB50446012144F2F2
:101D30000400FEF7C1FE4FF40070ADF80C00032064
:101D40008DF80E0018208DF80F0003A91B48FEF730
:101D50004FFA4FF48060ADF80C0004208DF80F00AE
:101D600003A91648FEF744FA25208DF80C0003203D
:101D70008DF80D008DF80E0001208DF80F0003A8DE
:101D8000FEF750FD00940020ADF80400ADF8060009
:101D9000ADF80800ADF80C000C20ADF80A0069465B
:101DA0000748FFF7A1FC012240F225510448FFF744
:101DB00076FC01210248FFF73CFC1FBD00080140F2
:101DC0000038014010B56FF00400FEF7AFFF0A487D
:101DD00000680A49B0FBF1F009490870084600782C
:101DE00000EB4001C1EBC0104FF6FF7101EAC000EB
:101DF0000449088010BD00000000002000127A0095
:101E00002C0000202E0000200146114A12884A436F
:101E10004FF0E0235A6100229A611A46126942F09B
:101E200001021A6100BF4FF0E022106900F00102C8
:101E30001AB100F48032002AF5D04FF0E022126986
:101E400022F001024FF0E0231A6100229A617047EC
:101E50002E0000200146114A12784A434FF0E02339
:101E60005A6100229A611A46126942F001021A610F
:101E700000BF4FF0E022106900F001021AB100F437
:101E80008032002AF5D04FF0E022126922F00102E0
:101E90004FF0E0231A6100229A6170472C00002065
:101EA00010B5022000F036F809490988084400B24C
:101EB00007490880042000F02DF8064909880844E5
:101EC00000B2044908800520FFF79EFF10BD000006
:101ED00014000020160000204FF4A060FEF7DAFC8A
:101EE0004FF4E130FFF720FFFFF76CFFFFF7FAFD3B
:101EF000482141F28830FFF7E3FEFFF7C5FDFFF709
:101F00000BFEFEF7A7FBFEF7E7FC01E0FFF7C8FFBB
:101F1000FCE700000146022906D003290DD0042960
:101F200012D005291ED116E04FF08042928C10B2DB
:101F300000224FF080439A8416E00C4A128810B2B7
:101F400000220A4B1A800FE0094A128810B20022C0
:101F5000074B1A8008E0074A128810B20022054B8E
:101F60001A8001E0002000BF00BF70472404004039
:101F700024080040240C0040981F000800000020A6
:101F800040000000D6170008D81F000840000020BD
:101F900080080000E617000800A24A0400000000C4
:101FA0000000000001020304060708090000000009
:101FB00000000000010203040102030406070809EF
:101FC00002040608000000000000000000000000FD
:081FD000000000000000000009
:0400000508000131BD
:00000001FF
