:020000040800F2
:10000000C008002045010008870900080505000810
:100010008309000809030008111900080000000006
:10002000000000000000000000000000590D000862
:100030000D03000800000000F90B0008B90E0008CD
:100040005F0100085F0100085F0100085F01000810
:100050005F0100085F0100085F0100085F01000800
:100060005F0100085F0100085F0100085F010008F0
:100070005F0100085F0100085F0100085F010008E0
:100080005F0100085F0100085F0100085F010008D0
:100090005F0100085F0100085F0100080F0300080E
:1000A0005F0100085F0100085F0100085F010008B0
:1000B0005D110008751100088D1100085F0100082E
:1000C0005F0100085F0100085F0100085F01000890
:1000D0005F0100085F010008451700085F01000884
:1000E0005F0100085F0100085F0100085F01000870
:1000F0005F0100085F0100085F0100085F01000860
:100100005F0100085F010008A51100085F010008F9
:100110005F0100085F010008BD1100085F010008D1
:100120005F0100085F0100085F0100085F0100082F
:10013000DFF80CD000F0C6F800480047A51F000803
:10014000C00800200648804706480047FEE7FEE753
:10015000FEE7FEE7FEE7FEE7FEE7FEE7FEE7FEE777
:10016000BD0E0008310100080EB5C10F80EAE07035
:100170000844CA07002140F233438DE80E000A46C6
:100180000B4600F051F803B000BD000030B5041E6E
:1001900071F1000404DB4FF00044404264EB0101C4
:1001A000141E73F1000405DB1C464FF0004352425D
:1001B00063EB04038B4208BF824230BD30B5041E9E
:1001C00071F1000404DB4FF00044404264EB010194
:1001D000141E73F1000405DB1C464FF0004352422D
:1001E00063EB0403994208BF904230BD202A04DB30
:1001F000203A00FA02F1002070479140C2F120033A
:1002000020FA03F319439040704710B5141E73F1A0
:10021000000408DA401C41F1000192185B411A43C6
:1002200001D120F0010010BD2DE9F04D92469B4612
:1002300011B1B1FA81F202E0B0FA80F220329046B8
:10024000FFF7D4FF04460F4640EA0A0041EA0B01DB
:1002500053465A46084313D0114653EA010019D0B9
:10026000C8F14002504600F03FF805460E465046A1
:1002700059464246FFF7BAFF084305D0012004E083
:1002800020463946BDE8F08D0020054346EAE07679
:100290002C4337430A986305E40AA0EB08000022C8
:1002A000FD0A44EA47540A3002D500200146E9E736
:1002B000010510196941DDE9084500196941BDE8EA
:1002C000F04DA2E7064C074D06E0E06840F0010360
:1002D00094E8070098471034AC42F6D3FFF72CFFA0
:1002E0000C2100082C210008202A04DB203A21FAE6
:1002F00002F00021704721FA02F3D040C2F120023F
:10030000914008431946704700BFFEE7704710B59B
:10031000202000F00BF8202000F002F810BD0000B3
:1003200001490860704700001404014001460020A4
:100330000022074B1B6803EA0102054B14331B68BC
:100340000B4013B10AB1012000E00020704700000B
:10035000000401402DE9F04102460025002600205E
:1003600000230024002791F803C00CF00F0591F83A
:1003700003C00CF0100CBCF1000F03D091F802C0C8
:100380004CEA050591F800C0BCF1000F31D01468AB
:1003900000202BE04FF0010C0CFA00F3B1F800C084
:1003A0000CEA03069E4220D183004FF00F0C0CFA9A
:1003B00003F7BC4305FA03FC4CEA040491F803C0BC
:1003C000BCF1280F06D14FF0010C0CFA00FCC2F86A
:1003D00014C00AE091F803C0BCF1480F05D14FF0FA
:1003E000010C0CFA00FCC2F810C0401C0828D1D344
:1003F0001460B1F800C0BCF1FF0F34DD5468002078
:100400002EE000F1080C4FF0010808FA0CF3B1F8E7
:1004100000C00CEA03069E4221D183004FF00F0C6E
:100420000CFA03F7BC4305FA03FC4CEA040491F808
:1004300003C0BCF1280F05D100F1080C08FA0CF834
:10044000C2F8148091F803C0BCF1480F07D100F145
:10045000080C4FF0010808FA0CF8C2F81080401C94
:100460000828CED35460BDE8F0810000F0B50A46FC
:10047000002300240021002500F00046B6F1004FC3
:1004800002D11D4EF16901E01B4E7168C0F30345B6
:1004900083B200F44016B6F5401F08D121F0706118
:1004A000154E766826F07066134F7E6012E000F4F9
:1004B0008016B6F5801F06D1032606FA05F4A1437F
:1004C00041F0706106E0460D360103FA06F6B143CD
:1004D00041F0706122B1460D360103FA06F6314350
:1004E00000F00046B6F1004F02D1034EF16101E089
:1004F000014E7160F0BD0000000001404161704795
:100500000161704700BFFEE710B580210A48FFF780
:10051000F7FF20210848FFF7F3FF00F011F98021D1
:100520000548FFF7EBFF00F00BF920210248FFF729
:10053000E5FF00F005F910BD0008014010B580216D
:100540000648FFF7DBFF20210448FFF7D9FF00F042
:10055000F7F880210148FFF7D3FF10BD00080140E4
:1005600010B580210848FFF7CBFF00F0E9F8202103
:100570000548FFF7C5FF00F0E3F820210248FFF728
:10058000BDFF00F0DDF810BD0008014010B50020EF
:100590000949086000F0CEFB00200849C1F8AC0111
:1005A00000F0D6F801200449086000F0D1F80020DE
:1005B0000249C1F8A80110BDA88121420080214252
:1005C00010B500200949086000F0B4FB012008497B
:1005D000C1F8AC0100F0BCF801200449086000F04B
:1005E000B7F800200249C1F8A80110BDA881214236
:1005F0000080214270B50546002400F089FB0026EA
:1006000014E000200E49086000F0A2F801200D4916
:10061000C1F8A8016006040E09487C38006808B1DA
:10062000601CC4B200F094F8701CC6B2082EE8DB5F
:1006300015B9FFF7C5FF01E0FFF7A8FF204670BD21
:10064000A88121420080214270B5044600F072FB6F
:1006500000200D490860002512E0E0090A49091D43
:1006600008606006040E01200849C1F8A80100F0E6
:100670006FF800200449086000F06AF8681CC5B2F1
:10068000082DEADB70BD0000A881214200802142D4
:1006900010B500F04FFB0120084908600849C1F877
:1006A000A80100F055F800200449086000F050F857
:1006B00000200349C1F8A80110BD0000AC8121420F
:1006C0000080214210B500F035FB0020074908608A
:1006D0000749C1F8AC0100F03BF80120034908606C
:1006E0000349C1F8AC0100F033F810BDA8812142E4
:1006F0000080214210B5002400F00AFB01200E49C1
:10070000086000F025F801200C49C1F8A80100F0AC
:100710001FF807E0601CC4B2FA2C03DDFFF7D2FF1C
:10072000012010BD0448803800680028F2D1024939
:10073000091F086000BFF4E7AC812142008021421C
:10074000032000BF011EA0F10102D0B2FAD1704710
:1007500010B5022001F0F2FB10BD000008B5012128
:10076000082000F05BFA4FF48060ADF80000032031
:100770008DF8020014208DF8030069460B48FFF73E
:10078000E9FD4FF40060ADF8000003208DF8020091
:1007900014208DF8030069460448FFF7DBFD0120B3
:1007A000034908600349C1F8AC0108BD000C0140D1
:1007B000A88121420080214210B5FFF7CFFF80229F
:1007C0006B21682000F0B7F8642001F091FB002253
:1007D0006B21682000F0AFF8032000F065F80020DE
:1007E00000F059F8C82000F088F80122382168206C
:1007F00000F0A1F800226A21682000F09CF8002295
:100800002321682000F097F89C223721682000F00F
:1008100092F87521682000F019F80B490870084615
:10082000007868280CD101226B2100F084F80022A6
:100830006C21682000F07FF8C82000F05EF801E02D
:10084000012010BD0020FCE73800002070B50446F0
:100850000D460026FFF71CFF002141EA4401C8B203
:10086000FFF7F2FEFFF746FF2846FFF7EDFEFFF722
:1008700041FFFFF70DFF012101EB4401C8B2FFF773
:10088000E3FEFFF737FF0020FFF7B4FE0646FFF751
:1008900019FF304670BD10B50446E006020E1C215B
:1008A000682000F048F810BD10B50446032000EBA6
:1008B000C400C2B21B21682000F03DF810BD70B525
:1008C00004460025BC2C01DB012510E0622C01DB75
:1008D00002250CE02A2C01DB032508E0142C01DBA7
:1008E000042504E00A2C01DB052500E006252A4644
:1008F0001A21682000F01FF870BD70B50446B4F5E9
:100900007A7F01DD4FF47A74042C00DA04244FF46A
:100910007A7090FBF4F0401EC5B22A461921682077
:1009200000F009F80546264604EBD671C1F34F00E6
:10093000FFF7C5FF70BD70B504460D461646FFF7BC
:10094000A7FE002141EA4401C8B2FFF77DFEFFF790
:10095000D1FE18B1FFF7B6FE012070BD2846FFF7A3
:1009600073FEFFF7C7FE3046FFF76EFEFFF7C2FECD
:1009700018B1FFF7A7FE0120EFE7FFF7A3FE002065
:10098000EBE700BFFEE7704770B5002100230F22A0
:10099000C47804B3154C246804F4E064C4F5E0643E
:1009A000210AC1F10403CA40447804FA03F18478AF
:1009B0001440214309010E4C0678A155047804F037
:1009C0001F050124AC4005786D11AD0005F1E0254F
:1009D000C5F8004109E0047804F01F050124AC408B
:1009E000044D0678761145F8264070BD0CED00E008
:1009F00000E400E080E100E002490143024A1160A6
:100A0000704700000000FA050CED00E070B500240E
:100A10000CE0002506E00020074901EBC501085560
:100A2000681CC5B2802DF6DB601CC4B2082CF0DB5C
:100A300000F092F870BD00003C00002008B50121D4
:100A4000042000F0EBF82020ADF8000014208DF811
:100A5000030003208DF8020069463E48FFF77AFC48
:100A600020213C48FFF74CFD8020ADF8000069468E
:100A70003848FFF76FFC80213648FFF741FD002121
:100A8000AE2000F09DF80021084600F099F8002102
:100A9000102000F095F80021402000F091F800218E
:100AA000812000F08DF80021CF2000F089F800218E
:100AB000A12000F085F80021C82000F081F8002175
:100AC000A62000F07DF80021A82000F079F8002190
:100AD0003F2000F075F80021D32000F071F80021CC
:100AE000084600F06DF80021D52000F069F80021DB
:100AF000802000F065F80021D92000F061F8002185
:100B0000F12000F05DF80021DA2000F059F8002112
:100B1000122000F055F80021DB2000F051F80021F0
:100B2000302000F04DF80021202000F049F800218D
:100B3000022000F045F800218D2000F041F800214E
:100B4000142000F03DF8FFF761FF0021AF2000F016
:100B500037F808BD0008014070B500242BE004F10F
:100B6000B001C8B2002100F02BF80021084600F0C7
:100B700027F80021102000F023F8FFF7C5FC7820AB
:100B800000F0ECF8FFF7ECFC402000F0E7F8FFF78E
:100B9000E7FC002509E0094901EBC501085D00F00B
:100BA000DDF8FFF7DDFC681CC5B2802DF3DBFFF735
:100BB000C5FC601CC4B2082CD1DB70BD3C00002019
:100BC00070B505460C46FFF79FFC782000F0C6F88C
:100BD000FFF7C6FC1CB1402000F0C0F802E0002086
:100BE00000F0BCF8FFF7BCFC284600F0B7F8FFF7B0
:100BF000B7FCFFF7A3FC70BD7047000029B1064A9F
:100C0000D2690243044BDA6104E0034AD2698243A9
:100C1000014BDA61704700000010024029B1064A1A
:100C200092690243044B9A6104E0034A9269824349
:100C3000014B9A61704700000010024030B500215E
:100C40000022002400232D4D6D6805F00C0121B118
:100C5000042905D0082923D105E0294D056022E0AB
:100C6000274D05601FE0254D6D6805F47012234D7A
:100C70006D6805F48034022505EB92421CB9214DC4
:100C8000554305600BE01D4D6D6805F400351DB141
:100C90001C4D5543056002E0194D5543056002E0C7
:100CA000174D056000BF00BF144D6D6805F0F001E1
:100CB0000909154D6B5C0568DD4045600F4D6D6899
:100CC00005F4E061090A104D6B5C4568DD40856004
:100CD0000A4D6D6805F46051C90A0B4D6B5C45689F
:100CE000DD40C560054D6D6805F44041890B074D39
:100CF0006B5CC568B5FBF3F5056130BD00100240C3
:100D000000127A0000093D00140000202400002099
:100D100008B54FF40060ADF8000003208DF8020024
:100D200048208DF8030069460148FFF713FB08BD12
:100D3000000C014008B54FF40060ADF8000003203E
:100D40008DF8020014208DF8030069460148FFF772
:100D500001FB08BD000C01407047000070B504465F
:100D600000251BE004F0800020B180210D48FFF732
:100D7000C7FB03E080210B48FFF7C0FBFFF7E0FC57
:100D800020210848FFF7BCFBFFF7DAFC20210548CB
:100D9000FFF7B4FB6006040E681CC5B2082DE1DB4A
:100DA00070BD00000008014010B500F001F810BD52
:100DB0000CB50020019000903348006840F480306A
:100DC0003149086000BF3048006800F400300090EE
:100DD0000198401C0190009818B90198B0F5A06FD7
:100DE000F1D12948006800F4003010B101200090D2
:100DF00001E0002000900098012843D123480068BA
:100E000040F01000214908600846006820F0030007
:100E100008600846006840F0020008601A48406810
:100E2000194948600846406848600846406840F4F0
:100E3000806048600846406820F47C10486008469E
:100E4000406840F4E81048600846006840F0807050
:100E5000086000BF0C48006800F000700028F9D05E
:100E60000948406820F00300074948600846406888
:100E700040F00200486000BF0348406800F00C00EA
:100E80000828F9D10CBD00000010024000200240EB
:100E9000042808D14FF0E021096941F004014FF026
:100EA000E022116107E04FF0E021096921F004011F
:100EB0004FF0E022116170477047000010B51348F1
:100EC000006840F001001149086008464068104978
:100ED00008400E494860084600680E4908400B4922
:100EE00008600846006820F48020086008464068D2
:100EF00020F4FE0048604FF41F008860FFF754FFA5
:100F00004FF000600449086010BD0000001002406E
:100F10000000FFF8FFFFF6FE08ED00E0F0B50C461C
:100F2000154600220021068C4FF6FE773E400684CF
:100F3000028B018C4FF60C7632407E1C06EA0316BB
:100F40002E433243104EB0420ED0104EB0420BD062
:100F5000B0F1804F08D00E4EB04205D00D4EB042D9
:100F600002D00D4EB04206D14FF6FD76314044F02E
:100F70000106314305E04FF6F576314044F00106B5
:100F8000314302830184F0BD002C01400034014054
:100F90000004004000080040000C0040F0B50C4682
:100FA0001546002200210026078C4FF6EF7C07EA49
:100FB0000C070784028B018C4FF6FF7707EA0416B3
:100FC00040F6FF473A404FF6FF7707EA03373A43C8
:100FD0004FF6FF7707EA05273A43114FB8420ED084
:100FE000104FB8420BD0B0F1804F08D00E4FB8422E
:100FF00005D00E4FB84202D00D4FB84206D14FF681
:10100000DF77394046F01007394305E04FF65F7748
:10101000394044F01007394302830184F0BD0000D9
:10102000002C014000340140000400400008004052
:10103000000C0040F0B50C461546002200210026A9
:10104000078C4FF6FF6C07EA0C070784828B018C34
:101050004FF6FF7707EA04264FF60C773A404FF633
:10106000FF7707EA03172F433A43114FB8420ED0D8
:10107000104FB8420BD0B0F1804F08D00E4FB8429D
:1010800005D00E4FB84202D00D4FB84206D14FF6F0
:10109000FF57394046F48077394305E04FF2FF5758
:1010A000394044F48077394382830184F0BD0000E5
:1010B000002C0140003401400004004000080040C2
:1010C000000C0040F0B50C46154600220021002619
:1010D000078C4EF6FF7C07EA0C070784828B018C95
:1010E0004FF6FF7707EA043640F6FF473A404FF6DF
:1010F000FF7707EA05273A434FF6FF7707EA0337FA
:101100003A43114FB8420ED0104FB8420BD0B0F155
:10111000804F08D00E4FB84205D00E4FB84202D0D3
:101120000D4FB84206D14DF6FF77394046F480574F
:10113000394305E047F6FF57394044F480573943B7
:1011400082830184F0BD0000002C01400034014086
:101150000004004000080040000C00404FF08040B8
:10116000008A4FF08040008A20F001004FF080415B
:1011700008827047044800880348008820F0010076
:1011800001490880704700001004004004480088AE
:101190000348008820F001000149088070470000E2
:1011A00010080040044800880348008820F001002F
:1011B0000149088070470000100C004010B5012163
:1011C000044800F057F818B10121024800F013F864
:1011D00010BD00000010004021B1028842F08002E2
:1011E000028004E002884FF67F731A400280704745
:1011F000CA4302827047CA430282704721B1028803
:1012000042F00102028004E002884FF6FE731A40A9
:101210000280704731B1B0F8442042F40042A0F897
:10122000442005E0B0F84420C2F30E02A0F84420A8
:101230007047F0B50C4615461E46002100220023DB
:101240000189028B038C4FF6F877394021434FF622
:10125000FC473A4040F201173A434FF6DD773B40F6
:101260004FF6FF7707EA06172F433B4301810283BE
:101270000384F0BD30B50246002000230024158A07
:1012800005EA0103958905EA010413B10CB10120B7
:1012900000E0002030BD000070B505460C46244833
:1012A00085420ED0234885420BD0B5F1804F08D03F
:1012B0002148854205D02148854202D020488542F8
:1012C00000D100E000BF208850B92389A28861883E
:1012D0002846FFF723FEE188284600F0ABF925E019
:1012E000208804280AD12389A28861882846FFF72C
:1012F00055FEE188284600F0A6F917E02088082866
:101300000AD12389A28861882846FFF793FEE188E5
:10131000284600F0A5F909E02389A28861882846BB
:10132000FFF7D0FEE188284600F0A3F970BD000069
:10133000002C01400034014000040040000800403F
:10134000000C0040002101804180012181800021AA
:10135000C180018170471AB183890B43838102E008
:1013600083898B438381704770B50024002200235A
:10137000058C4FF6FE7635400584028C8388048BFD
:101380004FF68F752C40B51E2C400D882C43751ED2
:101390002A400D892A434D882A43144DA8420BD078
:1013A000134DA84208D0134DA84205D0124DA842B3
:1013B00002D0124DA84213D14FF6F7752A404D893D
:1013C0002A434FF6FB752A408D882A434FF6FF6566
:1013D0002B404FF6FF552B408D892B43CD892B4356
:1013E00083800483CD888586028470BD002C0140F3
:1013F00000340140004001400044014000480140E9
:101400000A460021018B4FF6F773194011430183FF
:101410007047000070B5002400220023058C4FF6B1
:10142000EF7635400584028C8388048B48F6FF757F
:101430002C404FF6FF452C400D884FF6FF7606EA0C
:1014400005252C434FF6DF752A400D8906EA051560
:101450002A434D8806EA05152A43154DA84202D0B5
:10146000144DA8421DD14FF67F752A404D894FF685
:10147000FF7606EA05152A434FF6BF752A408D8888
:1014800006EA05152A434FF6FF352B404FF2FF754C
:101490002B408D8906EA85052B43CD8906EA850513
:1014A0002B4383800483CD880587028470BD0000B0
:1014B000002C0140003401400A460021018B4FF20C
:1014C000FF7319404FF6FF7303EA022319430183A8
:1014D0007047000070B5002400220023058C4FF6F1
:1014E000FF6635400584028C8388848B4FF68F75A8
:1014F0002C404FF6FC752C400D882C434FF6FF55C1
:101500002A400D894FF6FF7606EA05252A434D88C5
:1015100006EA05252A43154DA84202D0144DA842DB
:101520001DD14FF2FF752A404D894FF6FF7606EA2E
:1015300005252A434FF6FF352A408D8806EA052502
:101540002A434EF6FF752B404DF6FF752B408D89D3
:1015500006EA05152B43CD8906EA05152B43838042
:101560008483CD888587028470BD0000002C0140F3
:10157000003401400A460021818B4FF6F773194071
:10158000114381837047000070B5002200230024BE
:10159000058C4EF6FF7635400584038C8488828B5B
:1015A00048F6FF752A404FF6FF452A400D884FF652
:1015B000FF7606EA05252A434DF6FF752B400D8977
:1015C00006EA05352B434D8806EA05352B430B4DBE
:1015D000A84202D00A4DA84208D14BF6FF752C4014
:1015E0008D894FF6FF7606EA85152C438480828329
:1015F000CD88A0F84050038470BD0000002C01404D
:10160000003401400A460021818B4FF2FF731940DC
:101610004FF6FF7303EA02231943818370478186E3
:1016200070470187704781877047A0F84010704766
:1016300081847047028B4FF6F3731A400283028B4A
:101640000A4302837047028B4FF2FF331A40028332
:10165000028B4FF6FF7303EA01231A43028370479C
:10166000828B4FF6F3731A408283828B0A43828304
:101670007047828B4FF2FF331A408283828B4FF682
:10168000FF7303EA01231A43828370470022028812
:101690001D4B98420ED01D4B98420BD0B0F1804F9D
:1016A00008D01B4B984205D01A4B984202D01A4BD7
:1016B000984204D14FF68F731A404B881A43174B48
:1016C000984207D0164B984204D04FF6FF431A4079
:1016D000CB881A4302808B8883850B8803850A4B4D
:1016E00098420BD0094B984208D00E4B984205D037
:1016F0000D4B984202D00D4B984201D10B7A0386D4
:101700000123838270470000002C01400034014017
:101710000004004000080040000C004000100040A1
:1017200000140040004001400044014000480140D6
:101730004FF6FF71818000210180C18041800172DC
:101740007047000010B540F22551054800F025F81B
:1017500020B140F22551024800F004F810BD00000D
:101760000044004010B50022002340F66A14A14254
:1017700000D100BF0A1201249440A3B2DC430480CC
:1017800010BD21B1828942F40052828104E0828935
:101790004DF6FF731A408281704770B502460024EF
:1017A00000230025002040F66A16B14200D100BF98
:1017B000C1F3421501F01F03012606FA03F3012DC0
:1017C00002D19689334006E0022D02D1168A3340B9
:1017D00001E0968A33400C12012606FA04F41688BA
:1017E000344013B10CB1012000E0002070BDF0B511
:1017F0000346002400260025002040F66A17B9425F
:1018000000D100BF1846C1F3421401F01F060127A2
:1018100007FA06F5012C01D10C3004E0022C01D1AD
:10182000103000E014301AB107682F43076002E05F
:101830000768AF430760F0BD2DE9F04786B0054665
:101840000E460024A24600BFA1460027B08900B181
:1018500000BF2F462C8A4CF6FF700440F0880443EA
:101860002C82AC894EF6F3100440B08831890843CD
:10187000718908430443AC81AC8A4FF6FF400440B1
:10188000B0890443AC8201A8FFF7D8F91F4887420A
:1018900002D1DDF810A001E0DDF80CA0A88900F469
:1018A000004040B10AEBCA0000EB0A103168490061
:1018B000B0FBF1F807E00AEBCA0000EB0A10316850
:1018C0008900B0FBF1F86420B8FBF0F004012009B6
:1018D000642101FB1089A88900F4004040B1322046
:1018E00000EBC900B0FBF1F000F00700044308E092
:1018F000322000EB09106421B0FBF1F000F00F0082
:1019000004432C8106B0BDE8F08700000038014098
:1019100000BFFEE702E008C8121F08C1002AFAD182
:1019200070477047002001E001C1121F002AFBD15F
:10193000704700000EB501210846FFF75FF901214D
:101940000420FFF76BF901210820FFF767F9012157
:101950000846FFF763F901219348FEF787FD4FF42E
:101960000040ADF8080004208DF80B0002A98F4854
:10197000FEF7F0FC0820ADF8080002A98C48FEF73D
:10198000E9FC01218B48FEF771FD6846FFF7D0FEA8
:101990000020ADF800004FF6FF70ADF80400002005
:1019A000ADF80600ADF8020069464FF08040FFF741
:1019B0006DFE00231A4603214FF08040FFF739FCEB
:1019C0006846FFF7BFFC0A20ADF8080069464007EB
:1019D000FFF762FC01218807FFF70AFC012211468C
:1019E0009007FFF7B8FC00214FF08040FFF720FE82
:1019F00001218807FFF702FC01210220FFF7FEF812
:101A000001210820FFF70AF93020ADF80800042072
:101A10008DF80B0002A96648FEF79CFC0121664880
:101A2000FEF724FD6846FFF783FE0020ADF80000B6
:101A30004FF6FF70ADF804000020ADF80600ADF8D9
:101A4000020069465D48FFF721FE00231A46032184
:101A50005A48FFF7EEFB6846FFF774FC0A20ADF822
:101A6000080069465548FFF717FC01215348FFF766
:101A7000BFFB012211465148FFF76DFC00214F4882
:101A8000FFF7D6FD01214D48FFF7B8FB01210420E7
:101A9000FFF7B4F801210820FFF7C0F8C020ADF827
:101AA000080004208DF80B0002A94148FEF752FC03
:101AB0006846FFF73DFE0020ADF800004FF6FF70CE
:101AC000ADF804000020ADF80600ADF8020069464C
:101AD0003B48FFF7DBFD00231A4603213848FFF798
:101AE000A8FB6846FFF72EFC0A20ADF808006946FF
:101AF0003348FFF7D1FB01213148FFF779FB012281
:101B000011462F48FFF727FC00212D48FFF790FDD5
:101B100001212B48FFF772FB01210820FFF76EF827
:101B200001210420FFF77AF80320ADF80800042013
:101B30008DF80B0002A91D48FEF70CFC6846FFF764
:101B4000F7FD0020ADF800004FF6FF70ADF804007F
:101B50000020ADF80600ADF8020069461948FFF70D
:101B600095FD00231A4603211648FFF762FB6846DD
:101B7000FFF7E8FB0A20ADF8080069461148FFF7B7
:101B80008BFB01210F48FFF733FB012211460D4863
:101B9000FFF7E1FB00210B48FFF74AFD012109484F
:101BA000FFF72CFB0EBD00000002300000080140D2
:101BB000000C01400001180000081A000004004059
:101BC00000080040000C004008B501212020FFF76C
:101BD00025F801211020FFF721F801210820FFF747
:101BE0001DF80420ADF8000048208DF80300694678
:101BF0000948FEF7AFFB41F60740ADF80000694623
:101C00000648FEF7A7FB4FF48050ADF80000694688
:101C10000348FEF79FFB08BD00140140001001407F
:101C2000000C014008B501210420FEF7F7FF012157
:101C30001020FEF7F3FF4FF40050ADF80000102025
:101C40008DF8030003208DF8020069460148FEF775
:101C500081FB08BD0010014010B501214FF4E15097
:101C600000F004F8FFF766FE10BD000030B589B043
:101C700005460C460121C802FEF7D0FF01210420D1
:101C8000FEF7CCFF4FF47060ADF8200018208DF8FF
:101C9000230003208DF8220008A95848FEF75AFBBC
:101CA00005A8FFF745FD681E80B2ADF81800601E5C
:101CB00080B2ADF814000020ADF81A00ADF816009F
:101CC0008DF81C0005A94E48FFF7E0FC6020ADF838
:101CD00004000120ADF806000020ADF80A00ADF8C0
:101CE0000C0001A94648FFF73FFB01A94448FFF754
:101CF00091FB01A94248FFF7EDFB01A94048FFF71E
:101D000043FC01213E48FFF785FA08213C48FFF7D4
:101D100077FB08213A48FFF7CFFB08213848FFF747
:101D200029FC08213648FFF76DFC01213448FFF7F4
:101D300053FA01213248FFF761FA01214803FEF707
:101D40006DFF01211020FEF769FF4FF47070ADF8B0
:101D5000200018208DF8230003208DF8220008A908
:101D60002848FEF7F7FA681E80B2ADF81800601E2A
:101D700080B2ADF814000020ADF81A00ADF81600DE
:101D800005A92148FFF782FC6020ADF8040001207E
:101D9000ADF806000020ADF80A00ADF80C0001A96E
:101DA0001948FFF7E1FA01A91748FFF733FB01A92A
:101DB0001548FFF78FFB01A91348FFF7E5FB012149
:101DC0001148FFF727FA08210F48FFF719FB0821F0
:101DD0000D48FFF771FB08210B48FFF7CBFB0821EB
:101DE0000948FFF70FFC01210748FFF7F5F901212A
:101DF0000548FFF703FA09B030BD000000080140B4
:101E0000002C014000100140003401401FB5044681
:101E100001214804FEF7F2FE01210420FEF7FEFE38
:101E20000420ADF80C0003208DF80E0018208DF86A
:101E30000F0003A91B48FEF78DFA0820ADF80C002F
:101E400004208DF80F0003A91648FEF783FA262018
:101E50008DF80C0003208DF80D008DF80E00012088
:101E60008DF80F0003A8FEF78FFD00940020ADF859
:101E70000400ADF80600ADF80800ADF80C000C2029
:101E8000ADF80A0069460848FFF7D6FC012240F287
:101E900025510548FFF7ABFC01210348FFF771FC12
:101EA0001FBD0000000801400044004010B56FF065
:101EB0000400FEF7EDFF0A4800680A49B0FBF1F0A4
:101EC000094908700846007800EB4001C1EBC010DA
:101ED0004FF6FF7101EAC0000449088010BD000000
:101EE0000000002000127A00280000202A000020B4
:101EF0000146114A12884A434FF0E0235A610022FA
:101F00009A611A46126942F001021A6100BF4FF04D
:101F1000E022106900F001021AB100F48032002AB8
:101F2000F5D04FF0E022126922F001024FF0E023D9
:101F30001A6100229A6170472A0000200146114A66
:101F400012784A434FF0E0235A6100229A611A4600
:101F5000126942F001021A6100BF4FF0E0221069DD
:101F600000F001021AB100F48032002AF5D04FF0DF
:101F7000E022126922F001024FF0E0231A610022F0
:101F80009A6170472800002010B540F6B8331A4611
:101F900019464FF47A7000F03FF84FF47A70FFF76B
:101FA000A7FF10BD4FF4A060FEF726FD4FF4E1300F
:101FB000FFF72CFFFFF77AFFFFF734FEFFF704FE71
:101FC000FFF74AFEFEF7F8FBFEF738FD01E0FFF7EA
:101FD000DBFFFCE770B50446B4F90000FEF7C4F877
:101FE000054600220A4BFEF7E9F803D24FF4B4503D
:101FF00020800CE0B4F90000FEF7B6F80546002298
:10200000044BFEF7C3F802D24EF68010208070BD5C
:102010000080B6400080B6C01FB56846FFF7DAFF03
:1020200001A8FFF7D7FF02A8FFF7D4FF03A8FFF727
:10203000D1FFBDF9000000280ADDBDF8000081B223
:102040003048FFF7ECFA00212E48FFF7EAFA0AE0E1
:1020500000212C48FFF7E3FABDF80000404281B2AE
:102060002848FFF7DEFABDF9040000280ADDBDF8B4
:10207000040081B22448FFF7D6FA00212248FFF776
:10208000D4FA0AE000212048FFF7CDFABDF8040099
:10209000404281B21C48FFF7C8FABDF90800002889
:1020A0000ADDBDF8080081B21648FFF7BCFA00212E
:1020B0001448FFF7BAFA0AE000211248FFF7B3FA12
:1020C000BDF80800404281B20E48FFF7AEFABDF9F4
:1020D0000C0000280ADDBDF80C0081B20A48FFF7A9
:1020E0009EFA00210848FFF79CFA0AE00021064802
:1020F000FFF795FABDF80C00404281B20248FFF7A5
:1021000090FA1FBD002C0140003401402C21000832
:10211000000000203C00000014190008682100089D
:102120003C000020840800002419000800A24A0492
:102130000000000000000000010203040607080977
:10214000000000000102030401020304060708095D
:10215000020406080000000000000000000000006B
:08216000000000000000000077
:0400000508000131BD
:00000001FF
