:020000040800F2
:10000000C88F0020DD0100085F0D0008DD08000832
:100010005B0D0008E1060008D71E00080000000084
:100020000000000000000000000000004501000882
:10003000E5060008000000008901000821140008FE
:10004000F7010008F7010008F7010008F7010008B0
:10005000F7010008F7010008F7010008F7010008A0
:10006000F7010008F7010008F7010008F701000890
:10007000F7010008F7010008F7010008F701000880
:10008000F7010008F7010008F7010008F701000870
:10009000F7010008F7010008F7010008E70600086B
:1000A000F7010008F7010008F7010008F701000850
:1000B000D1160008E916000801170008F70100082A
:1000C000F7010008F7010008F7010008F701000830
:1000D000F7010008B91C0008E91C0008F701000836
:1000E000F7010008F7010008F7010008F701000810
:1000F000F7010008F7010008F7010008F701000800
:10010000F7010008F701000819170008F7010008B7
:10011000F7010008F701000831170008F70100088F
:10012000F7010008F7010008F7010008F7010008CF
:10013000DFF80CD000F0C2FA00480047F5290008AB
:10014000C88F0020224B19680868B0E8F00F80F3D0
:100150000988BFF36F8F4FF0000080F311884EF0D5
:100160000D0E70470000000006480068006880F32C
:10017000088862B661B6BFF34F8FBFF36F8F00DFA1
:1001800000BF00BF08ED00E0EFF30980BFF36F8F01
:100190000F4B1A6820E9F00F106008B54FF05000BF
:1001A00080F31188BFF34F8FBFF36F8F03F08EFF83
:1001B0004FF0000080F31188BDE808401968086816
:1001C000B0E8F00F80F30988BFF36F8F704700BF6E
:1001D0005C000020EFF30580704700000648804770
:1001E00006480047FEE7FEE7FEE7FEE7FEE7FEE71C
:1001F000FEE7FEE7FEE7FEE73114000831010008E4
:1002000040EA01039B0703D009E008C9121F08C098
:10021000042AFAD203E011F8013B00F8013B521E18
:10022000F9D27047D2B201E000F8012B491EFBD28F
:1002300070470022F6E710B513460A4604461946F1
:10024000FFF7F0FF204610BDF0B480EA0102D40FA2
:100250004200B2EB410F02D20246084611464A0064
:1002600042D0C30DDDB2C1F3C752AD1A202D35DA2D
:10027000C1F3160141F4000204B15242C5F1200657
:1002800002FA06F12A411044B3EBD05F23D0C4B187
:10029000012DA0EBC35009DCF0BC4FF0004202EA94
:1002A000C352DBB200F5000000F07CB9400000F161
:1002B000807000EBC350A0F1807040EAD17049001B
:1002C00009E0490841EAC071A0EBC35000F5000005
:1002D000400800EBC350F0BC00F05BB96142012262
:1002E00002EB4101001BF6E7F0BC704781F00041D2
:1002F000AAE780F00040A7E780EA010210B502F00B
:100300000043400022D04A001FD0010E01EB1261D1
:10031000C0F35600C2F3560240F4000042F400025B
:10032000A0FB022000047F39140400D0401C50EAD6
:10033000124001D44000491EC2B20C0604EBD0109A
:10034000401C4008802A02D003E0002010BD20F0AD
:100350000100002900DA0020184310BD2DE9F04DFE
:1003600081EA030404F0004B21F0004514464FF0ED
:10037000000A23F0004150EA050220D054EA0102AD
:100380001DD0C5F30A570246C5F31303C1F313008A
:10039000C1F30A5640F4801543F48013A7EB060816
:1003A000101BD64608F2FD3873EB050002D308F1A6
:1003B000010801E092185B41B8F1000F03DA002058
:1003C0000146BDE8F08D00204FF4801106468446BA
:1003D0000EE0171B73EB050705D3121B63EB050338
:1003E00006434CEA010C49084FEA300092185B4181
:1003F00050EA0107EDD152EA030012D082EA04006C
:1004000083EA0501084305D0101BAB4106D2012247
:10041000002306E000224FF0004302E06FF00102EB
:1004200053101AEB06004CEB085110EB0A0041EB9D
:100430000B01BDE8F04D00F0E3B8C10F80EAE070B9
:100440000844CA079623002100F0ACB80EB5C10FCE
:1004500080EAE0700844CA07002140F233438DE887
:100460000E000A460B4600F0DAF803B000BD00F0BB
:10047000004220F00040C10DC0F3160040F400001F
:100480007F2901DA00207047962903DCC1F196012B
:10049000C84001E096398840002AF4D040427047B5
:1004A00070B5C1F30A5201F000450024C1F31301F5
:1004B00040F2FF3341F480119A4201DA002070BD0E
:1004C00040F233439A42A2F2334203DC524200F03C
:1004D00050F800E090402C43F1D0404270BD000045
:1004E00030B5041E71F1000404DB4FF000444042BB
:1004F00064EB0101141E73F1000405DB1C464FF090
:100500000043524263EB04038B4208BF824230BD7A
:1005100030B5041E71F1000404DB4FF0004440428A
:1005200064EB0101141E73F1000405DB1C464FF05F
:100530000043524263EB0403994208BF904230BD2E
:10054000002801DBC0F10040002901DBC1F10041BE
:1005500088427047202A04DB203A00FA02F100208A
:1005600070479140C2F1200320FA03F319439040F1
:100570007047202A04DB203A21FA02F0002170475C
:1005800021FA02F3D040C2F12002914008431946FB
:1005900070470029A8BF7047401C490008BF20F0E1
:1005A0000100704710B4B0FA80FC00FA0CF050EA79
:1005B000010404BF10BC704749B1CCF1200421FAFA
:1005C00004F411FA0CF118BF012121430843A3EBF5
:1005D0000C01CB1D4FEA00614FEA102042BF002002
:1005E00010BC704700EBC35010440029A4BF10BCDE
:1005F0007047401C490008BF20F0010010BC704744
:1006000010B5141E73F1000408DA401C41F100011A
:1006100092185B411A4301D120F0010010BD2DE971
:10062000F04D92469B4611B1B1FA81F202E0B0FA68
:1006300080F220329046FFF78DFF04460F4640EAD5
:100640000A0041EA0B0153465A46084313D01146AB
:1006500053EA010019D0C8F140025046FFF789FF64
:1006600005460E46504659464246FFF773FF08437B
:1006700005D0012004E020463946BDE8F08D002079
:10068000054346EAE0762C4337430A986305E40ABB
:10069000A0EB08000022FD0A44EA47540A3002D5C4
:1006A00000200146E9E7010510196941DDE9084527
:1006B00000196941BDE8F04DA2E70000064C074D66
:1006C00006E0E06840F0010394E807009847103422
:1006D000AC42F6D3FFF730FD004E0008204E000874
:1006E00000BFFEE7704710B5202000F00BF8202077
:1006F00000F002F810BD00000149086070470000DA
:1007000014040140014600200022074B1B6803EA45
:100710000102054B14331B680B4013B10AB10120D1
:1007200000E0002070470000000401402DE9F04186
:10073000024600250026002000230024002791F80F
:1007400003C00CF00F0591F803C00CF0100CBCF1C5
:10075000000F03D091F802C04CEA050591F800C0E3
:10076000BCF1000F31D0146800202BE04FF0010CD9
:100770000CFA00F3B1F800C00CEA03069E4220D147
:1007800083004FF00F0C0CFA03F7BC4305FA03FC8F
:100790004CEA040491F803C0BCF1280F06D14FF0D5
:1007A000010C0CFA00FCC2F814C00AE091F803C076
:1007B000BCF1480F05D14FF0010C0CFA00FCC2F857
:1007C00010C0401C0828D1D31460B1F800C0BCF19F
:1007D000FF0F34DD546800202EE000F1080C4FF0CC
:1007E000010808FA0CF3B1F800C00CEA03069E42B7
:1007F00021D183004FF00F0C0CFA03F7BC4305FA2C
:1008000003FC4CEA040491F803C0BCF1280F05D1A5
:1008100000F1080C08FA0CF8C2F8148091F803C033
:10082000BCF1480F07D100F1080C4FF0010808FA9D
:100830000CF8C2F81080401C0828CED35460BDE8E4
:10084000F0810000F0B50A460023002400210025B5
:1008500000F00046B6F1004F02D11D4EF16901E0F3
:100860001B4E7168C0F3034583B200F44016B6F521
:10087000401F08D121F07061154E766826F0706631
:10088000134F7E6012E000F48016B6F5801F06D18B
:10089000032606FA05F4A14341F0706106E0460D17
:1008A000360103FA06F6B14341F0706122B1460DFC
:1008B000360103FA06F6314300F00046B6F1004F68
:1008C00002D1034EF16101E0014E7160F0BD000004
:1008D00000000140416170470161704700BFFEE7C1
:1008E00010B580210A48FFF7F7FF20210848FFF7DD
:1008F000F3FF00F011F980210548FFF7EBFF00F04E
:100900000BF920210248FFF7E5FF00F005F910BDC3
:100910000008014010B580210648FFF7DBFF2021C9
:100920000448FFF7D9FF00F0F7F880210148FFF7EE
:10093000D3FF10BD0008014010B580210848FFF723
:10094000CBFF00F0E9F820210548FFF7C5FF00F0D4
:10095000E3F820210248FFF7BDFF00F0DDF810BDED
:100960000008014010B500200949086000F098FC1B
:1009700000200849C1F8AC0100F0D6F80120044974
:10098000086000F0D1F800200249C1F8A80110BDAC
:10099000A88121420080214210B500200949086049
:1009A00000F07EFC01200849C1F8AC0100F0BCF861
:1009B00001200449086000F0B7F800200249C1F89E
:1009C000A80110BDA88121420080214270B50546D2
:1009D000002400F053FC002614E000200E490860BB
:1009E00000F0A2F801200D49C1F8A8016006040E2C
:1009F00009487C38006808B1601CC4B200F094F863
:100A0000701CC6B2082EE8DB15B9FFF7C5FF01E080
:100A1000FFF7A8FF204670BDA88121420080214237
:100A200070B5044600F03CFC00200D49086000252C
:100A300012E0E0090A49091D08606006040E012061
:100A40000849C1F8A80100F06FF8002004490860C7
:100A500000F06AF8681CC5B2082DEADB70BD000022
:100A6000A88121420080214210B500F019FC01202C
:100A7000084908600849C1F8A80100F055F80020AD
:100A80000449086000F050F800200349C1F8A801AB
:100A900010BD0000AC8121420080214210B500F061
:100AA000FFFB0020074908600749C1F8AC0100F0CE
:100AB0003BF80120034908600349C1F8AC0100F08C
:100AC00033F810BDA88121420080214210B50024D6
:100AD00000F0D4FB01200E49086000F025F8012049
:100AE0000C49C1F8A80100F01FF807E0601CC4B26F
:100AF000FA2C03DDFFF7D2FF012010BD0448803837
:100B000000680028F2D10249091F086000BFF4E71D
:100B1000AC81214200802142032000BF011EA0F1D0
:100B20000102D0B2FAD1704710B5022001F03EFFA9
:100B300010BD000008B50121082000F025FB4FF48E
:100B40008060ADF8000003208DF8020014208DF8BD
:100B5000030069460B48FFF7E9FD4FF40060ADF86C
:100B6000000003208DF8020014208DF80300694670
:100B70000448FFF7DBFD0120034908600349C1F881
:100B8000AC0108BD000C0140A88121420080214237
:100B900010B5FFF7CFFF80226B21682000F0B7F877
:100BA000642001F0E1FE00226B21682000F0AFF824
:100BB000032000F065F8002000F059F8C82000F08C
:100BC00088F801223821682000F0A1F800226A216B
:100BD000682000F09CF800222321682000F097F89C
:100BE0009C223721682000F092F87521682000F0DF
:100BF00019F80B4908700846007868280CD10122C2
:100C00006B2100F084F800226C21682000F07FF84E
:100C1000C82000F05EF801E0012010BD0020FCE7D4
:100C20003800002070B504460D460026FFF71CFF73
:100C3000002141EA4401C8B2FFF7F2FEFFF746FF88
:100C40002846FFF7EDFEFFF741FFFFF70DFF0121FB
:100C500001EB4401C8B2FFF7E3FEFFF737FF0020C6
:100C6000FFF7B4FE0646FFF719FF304670BD10B51A
:100C70000446E006020E1C21682000F048F810BD72
:100C800010B50446032000EBC400C2B21B2168204B
:100C900000F03DF810BD70B504460025BC2C01DB0A
:100CA000012510E0622C01DB02250CE02A2C01DB7F
:100CB000032508E0142C01DB042504E00A2C01DBE9
:100CC000052500E006252A461A21682000F01FF8B5
:100CD00070BD70B50446B4F57A7F01DD4FF47A74C7
:100CE000042C00DA04244FF47A7090FBF4F0401ED8
:100CF000C5B22A461921682000F009F805462646A3
:100D000004EBD671C1F34F00FFF7C5FF70BD70B59E
:100D100004460D461646FFF7A7FE002141EA4401AE
:100D2000C8B2FFF77DFEFFF7D1FE18B1FFF7B6FEA0
:100D3000012070BD2846FFF773FEFFF7C7FE30465F
:100D4000FFF76EFEFFF7C2FE18B1FFF7A7FE012006
:100D5000EFE7FFF7A3FE0020EBE700BFFEE77047D9
:100D600070B5002100230F22C47804B3154C246809
:100D700004F4E064C4F5E064210AC1F10403CA404C
:100D8000447804FA03F184781440214309010E4C9D
:100D90000678A155047804F01F050124AC400578BD
:100DA0006D11AD0005F1E025C5F8004109E00478BA
:100DB00004F01F050124AC40044D0678761145F877
:100DC000264070BD0CED00E000E400E080E100E0B2
:100DD00002490143024A1160704700000000FA0511
:100DE0000CED00E070B500240CE0002506E00020CA
:100DF000074901EBC5010855681CC5B2802DF6DB1B
:100E0000601CC4B2082CF0DB00F092F870BD00004A
:100E1000DC00002008B50121042000F0B5F92020F5
:100E2000ADF8000014208DF8030003208DF80200B7
:100E300069463E48FFF77AFC20213C48FFF74CFD0D
:100E40008020ADF8000069463848FFF76FFC80212C
:100E50003648FFF741FD0021AE2000F09DF800214B
:100E6000084600F099F80021102000F095F80021C4
:100E7000402000F091F80021812000F08DF8002141
:100E8000CF2000F089F80021A12000F085F8002192
:100E9000C82000F081F80021A62000F07DF8002194
:100EA000A82000F079F800213F2000F075F800211B
:100EB000D32000F071F80021084600F06DF8002101
:100EC000D52000F069F80021802000F065F80021AD
:100ED000D92000F061F80021F12000F05DF8002138
:100EE000DA2000F059F80021122000F055F8002116
:100EF000DB2000F051F80021302000F04DF80021F7
:100F0000202000F049F80021022000F045F80021DF
:100F10008D2000F041F80021142000F03DF8FFF78B
:100F200061FF0021AF2000F037F808BD0008014044
:100F300070B500242BE004F1B001C8B2002100F02C
:100F40002BF80021084600F027F80021102000F0BF
:100F500023F8FFF7C5FC782000F0B4F9FFF7ECFCAC
:100F6000402000F0AFF9FFF7E7FC002509E0094950
:100F700001EBC501085D00F0A5F9FFF7DDFC681C79
:100F8000C5B2802DF3DBFFF7C5FC601CC4B2082C92
:100F9000D1DB70BDDC00002070B505460C46FFF7C4
:100FA0009FFC782000F08EF9FFF7C6FC1CB14020B2
:100FB00000F088F902E0002000F084F9FFF7BCFCA3
:100FC000284600F07FF9FFF7B7FCFFF7A3FC70BDE0
:100FD0002DE9F04104460E46154614B90020BDE83F
:100FE000F081216C6164E16B2164A561E6613146A9
:100FF0002846FFF77BF9E063207800284DD1E16BAC
:101000006068FFF779F96062E16BA068FFF774F937
:101010000746A16AFFF718F9A062616BA163216B13
:101020006163D4E90F01FFF761F92063216BE06888
:10103000FFF762F9E0626169A06AFFF781FA02D204
:101040006069A0620BE0606980F000473846A16AE1
:10105000FFF776FA03D2606980F00040A062D4E91D
:101060000901FFF7F1F80746E16AFFF7EDF82062A2
:101070002169206AFFF764FA02D22069206255E0F4
:10108000206980F000473846216AFFF759FA4DD2AF
:10109000206980F00040206248E02078012845D196
:1010A000D4E90F01FFF722F907466168FFF724F939
:1010B0006062E16BA068FFF71FF9A062616BA1633A
:1010C000216B61634FF08040216CFFF715F980467A
:1010D000E16BFFF70EF90746616CFFF7B5F8206387
:1010E000216BE068FFF708F9E062D4E90901FFF736
:1010F000ABF88046E16AFFF7A7F80746216AFFF7D9
:10110000A3F820622169206AFFF71AFA02D2206947
:1011100020620BE0206980F000473846216AFFF723
:101120000FFA03D2206980F000402062206A56E75F
:1011300070B5049C00B102B970BD017015684560BE
:10114000556885609568C5600361446100268663C3
:10115000466306630662C662866246624664066449
:10116000C66300BFE8E7000029B1064AD26902431E
:10117000044BDA6104E0034AD2698243014BDA612D
:10118000704700000010024029B1064A92690243EC
:10119000044B9A6104E0034A92698243014B9A61CD
:1011A000704700000010024030B5002100220024EA
:1011B00000232D4D6D6805F00C0121B1042905D0E7
:1011C000082923D105E0294D056022E0274D05605F
:1011D0001FE0254D6D6805F47012234D6D6805F410
:1011E0008034022505EB92421CB9214D5543056020
:1011F0000BE01D4D6D6805F400351DB11C4D5543C8
:10120000056002E0194D5543056002E0174D056089
:1012100000BF00BF144D6D6805F0F0010909154DC0
:101220006B5C0568DD4045600F4D6D6805F4E0615D
:10123000090A104D6B5C4568DD4085600A4D6D689C
:1012400005F46051C90A0B4D6B5C4568DD40C56013
:10125000054D6D6805F44041890B074D6B5CC56811
:10126000B5FBF3F5056130BD0010024000127A00B5
:1012700000093D00140000202400002008B54FF4B0
:101280000060ADF8000003208DF8020048208DF8C2
:10129000030069460148FFF749FA08BD000C014008
:1012A00008B54FF40060ADF8000003208DF802008F
:1012B00014208DF8030069460148FFF737FA08BD8E
:1012C000000C014070B5044600251BE004F08000CE
:1012D00020B180210D48FFF7FFFA03E080210B4881
:1012E000FFF7F8FAFFF718FC20210848FFF7F4FA97
:1012F000FFF712FC20210548FFF7ECFA6006040E08
:10130000681CC5B2082DE1DB70BD0000000801407B
:1013100010B500F001F810BD0CB500200190009050
:101320003348006840F480303149086000BF3048DD
:10133000006800F4003000900198401C0190009873
:1013400018B90198B0F5A06FF1D12948006800F4F0
:10135000003010B10120009001E0002000900098C2
:10136000012843D12348006840F01000214908605B
:101370000846006820F0030008600846006840F056
:10138000020008601A4840681949486008464068E9
:1013900048600846406840F48060486008464068FD
:1013A00020F47C1048600846406840F4E81048602B
:1013B0000846006840F08070086000BF0C48006874
:1013C00000F000700028F9D00948406820F00300C0
:1013D000074948600846406840F00200486000BF86
:1013E0000348406800F00C000828F9D10CBD00004B
:1013F0000010024000200240042808D14FF0E021F4
:10140000096941F004014FF0E022116107E04FF05B
:10141000E021096921F004014FF0E02211617047D9
:1014200010B503F081FA012801D002F011FF10BDC0
:1014300010B51348006840F00100114908600846E3
:101440004068104908400E494860084600680E4947
:1014500008400B4908600846006820F480200860B6
:101460000846406820F4FE0048604FF41F00886082
:10147000FFF74EFF4FF000600449086010BD000008
:10148000001002400000FFF8FFFFF6FE08ED00E04C
:10149000F0B50C46154600220021068C4FF6FE776B
:1014A0003E400684028B018C4FF60C7632407E1C47
:1014B00006EA03162E433243104EB0420ED0104EB1
:1014C000B0420BD0B0F1804F08D00E4EB04205D0E4
:1014D0000D4EB04202D00D4EB04206D14FF6FD7611
:1014E000314044F00106314305E04FF6F5763140D6
:1014F00044F00106314302830184F0BD002C014019
:10150000003401400004004000080040000C00408E
:10151000F0B50C461546002200210026078C4FF638
:10152000EF7C07EA0C070784028B018C4FF6FF77EC
:1015300007EA041640F6FF473A404FF6FF7707EAFE
:1015400003373A434FF6FF7707EA05273A43114F2F
:10155000B8420ED0104FB8420BD0B0F1804F08D037
:101560000E4FB84205D00E4FB84202D00D4FB842D0
:1015700006D14FF6DF77394046F01007394305E0D2
:101580004FF65F77394044F01007394302830184F6
:10159000F0BD0000002C0140003401400004004078
:1015A00000080040000C0040F0B50C461546002233
:1015B00000210026078C4FF6FF6C07EA0C07078412
:1015C000828B018C4FF6FF7707EA04264FF60C77E3
:1015D0003A404FF6FF7707EA03172F433A43114F7C
:1015E000B8420ED0104FB8420BD0B0F1804F08D0A7
:1015F0000E4FB84205D00E4FB84202D00D4FB84240
:1016000006D14FF6FF57394046F48077394305E05D
:101610004FF2FF57394044F4807739438283018485
:10162000F0BD0000002C01400034014000040040E7
:1016300000080040000C0040F0B50C4615460022A2
:1016400000210026078C4EF6FF7C07EA0C07078472
:10165000828B018C4FF6FF7707EA043640F6FF478E
:101660003A404FF6FF7707EA05273A434FF6FF77F0
:1016700007EA03373A43114FB8420ED0104FB84231
:101680000BD0B0F1804F08D00E4FB84205D00E4FAE
:10169000B84202D00D4FB84206D14DF6FF7739401F
:1016A00046F48057394305E047F6FF57394044F484
:1016B0008057394382830184F0BD0000002C014033
:1016C000003401400004004000080040000C0040CD
:1016D0004FF08040008A4FF08040008A20F00100E7
:1016E0004FF0804108827047044800880348008812
:1016F00020F00100014908807047000010040040FC
:10170000044800880348008820F00100014908804F
:101710007047000010080040044800880348008813
:1017200020F001000149088070470000100C0040C3
:1017300010B50121044800F057F818B10121024802
:1017400000F013F810BD00000010004021B1028825
:1017500042F08002028004E002884FF67F731A4054
:1017600002807047CA4302827047CA4302827047B0
:1017700021B1028842F00102028004E002884FF6A3
:10178000FE731A400280704731B1B0F8442042F431
:101790000042A0F8442005E0B0F84420C2F30E0255
:1017A000A0F844207047F0B50C4615461E460021AF
:1017B000002200230189028B038C4FF6F877394011
:1017C00021434FF6FC473A4040F201173A434FF6A7
:1017D000DD773B404FF6FF7707EA06172F433B4381
:1017E000018102830384F0BD30B50246002000234E
:1017F0000024158A05EA0103958905EA010413B15D
:101800000CB1012000E0002030BD000070B505469D
:101810000C46244885420ED0234885420BD0B5F1B2
:10182000804F08D02148854205D02148854202D00A
:101830002048854200D100E000BF208850B92389AC
:10184000A28861882846FFF723FEE188284600F039
:10185000ABF925E0208804280AD12389A288618871
:101860002846FFF755FEE188284600F0A6F917E064
:10187000208808280AD12389A28861882846FFF792
:1018800093FEE188284600F0A5F909E02389A288A3
:1018900061882846FFF7D0FEE188284600F0A3F9CA
:1018A00070BD0000002C01400034014000040040E5
:1018B00000080040000C004000210180418001210F
:1018C00081800021C180018170471AB183890B4357
:1018D000838102E083898B438381704770B5002444
:1018E00000220023058C4FF6FE7635400584028CDD
:1018F0008388048B4FF68F752C40B51E2C400D88C5
:101900002C43751E2A400D892A434D882A43144DC5
:10191000A8420BD0134DA84208D0134DA84205D0C1
:10192000124DA84202D0124DA84213D14FF6F775BE
:101930002A404D892A434FF6FB752A408D882A4359
:101940004FF6FF652B404FF6FF552B408D892B43FB
:10195000CD892B4383800483CD888586028470BD26
:10196000002C01400034014000400140004401408F
:10197000004801400A460021018B4FF6F7731940D9
:10198000114301837047000070B50024002200233A
:10199000058C4FF6EF7635400584028C8388048BE6
:1019A00048F6FF752C404FF6FF452C400D884FF64A
:1019B000FF7606EA05252C434FF6DF752A400D8990
:1019C00006EA05152A434D8806EA05152A43154DF2
:1019D000A84202D0144DA8421DD14FF67F752A406F
:1019E0004D894FF6FF7606EA05152A434FF6BF7577
:1019F0002A408D8806EA05152A434FF6FF352B400D
:101A00004FF2FF752B408D8906EA85052B43CD8962
:101A100006EA85052B4383800483CD8805870284ED
:101A200070BD0000002C0140003401400A46002136
:101A3000018B4FF2FF7319404FF6FF7303EA022345
:101A4000194301837047000070B500240022002371
:101A5000058C4FF6FF6635400584028C8388848BA5
:101A60004FF68F752C404FF6FC752C400D882C439B
:101A70004FF6FF552A400D894FF6FF7606EA0525F9
:101A80002A434D8806EA05252A43154DA84202D06F
:101A9000144DA8421DD14FF2FF752A404D894FF6D3
:101AA000FF7606EA05252A434FF6FF352A408D8842
:101AB00006EA05252A434EF6FF752B404DF6FF75C5
:101AC0002B408D8906EA05152B43CD8906EA0515BD
:101AD0002B4383808483CD888587028470BD00007A
:101AE000002C0140003401400A460021818B4FF652
:101AF000F7731940114381837047000070B50022CD
:101B000000230024058C4EF6FF7635400584038CB7
:101B10008488828B48F6FF752A404FF6FF452A409D
:101B20000D884FF6FF7606EA05252A434DF6FF7528
:101B30002B400D8906EA05352B434D8806EA05350D
:101B40002B430B4DA84202D00A4DA84208D14BF6B8
:101B5000FF752C408D894FF6FF7606EA85152C43DC
:101B600084808283CD88A0F84050038470BD00003B
:101B7000002C0140003401400A460021818B4FF2C5
:101B8000FF7319404FF6FF7303EA02231943818361
:101B90007047818670470187704781877047A0F83A
:101BA0004010704781847047028B4FF6F3731A40E0
:101BB0000283028B0A4302837047028B4FF2FF338A
:101BC0001A400283028B4FF6FF7303EA01231A4384
:101BD00002837047828B4FF6F3731A408283828BA5
:101BE0000A4382837047828B4FF2FF331A4082830D
:101BF000828B4FF6FF7303EA01231A4382837047F7
:101C0000002202881D4B98420ED01D4B98420BD0EB
:101C1000B0F1804F08D01B4B984205D01A4B984228
:101C200002D01A4B984204D14FF68F731A404B885A
:101C30001A43174B984207D0164B984204D04FF6E0
:101C4000FF431A40CB881A4302808B8883850B8818
:101C500003850A4B98420BD0094B984208D00E4B93
:101C6000984205D00D4B984202D00D4B984201D1BD
:101C70000B7A03860123838270470000002C014009
:101C8000003401400004004000080040000C004007
:101C9000001000400014004000400140004401409A
:101CA000004801404FF6FF71818000210180C18012
:101CB000418001727047000010B5002440F22551A8
:101CC000084800F044F860B1064800F0FBF8C4B2E0
:101CD0002146044800F0FBF840F22551014800F08D
:101CE0001BF810BD0038014010B5002440F225510A
:101CF000084800F02CF858B1064800F0E3F8C4B2E8
:101D0000204601F04DFE40F22551024800F004F853
:101D100010BD00000044004010B50022002340F632
:101D20006A14A14200D100BF0A1201249440A3B258
:101D3000DC43048010BD21B1828942F400528281CB
:101D400004E082894DF6FF731A408281704770B5B6
:101D50000246002400230025002040F66A16B14206
:101D600000D100BFC1F3421501F01F03012606FA9E
:101D700003F3012D02D19689334006E0022D02D1F2
:101D8000168A334001E0968A33400C12012606FA87
:101D900004F41688344013B10CB1012000E0002097
:101DA00070BDF0B50346002400260025002040F653
:101DB0006A17B94200D100BF1846C1F3421401F0BE
:101DC0001F06012707FA06F5012C01D10C3004E0AB
:101DD000022C01D1103000E014301AB107682F43F3
:101DE000076002E00768AF430760F0BD2DE9F047E8
:101DF00086B005460E460024A24600BFA146002735
:101E0000B08900B100BF2F462C8A4CF6FF70044009
:101E1000F08804432C82AC894EF6F3100440B0885D
:101E200031890843718908430443AC81AC8A4FF679
:101E3000FF400440B0890443AC8201A8FFF7B4F925
:101E40001F48874202D1DDF810A001E0DDF80CA0A8
:101E5000A88900F4004040B10AEBCA0000EB0A1068
:101E600031684900B0FBF1F807E00AEBCA0000EB6B
:101E70000A1031688900B0FBF1F86420B8FBF0F07B
:101E800004012009642101FB1089A88900F40040A5
:101E900040B1322000EBC900B0FBF1F000F00700C8
:101EA000044308E0322000EB09106421B0FBF1F09C
:101EB00000F00F0004432C8106B0BDE8F08700005D
:101EC0000038014001468888C0F308007047C1F31C
:101ED00008028280704700BFFEE702E008C8121FB8
:101EE00008C1002AFAD170477047002001E001C103
:101EF000121F002AFBD170470EB501210846FFF7DB
:101F000033F901210420FFF73FF901210820FFF7F1
:101F10003BF901210846FFF737F901219348FEF705
:101F200091FC4FF40040ADF8080004208DF80B0040
:101F300002A98F48FEF7FAFB0820ADF8080002A9B5
:101F40008C48FEF7F3FB01218B48FEF77BFC6846CB
:101F5000FFF7A8FE0020ADF800004FF6FF70ADF8C7
:101F600004000020ADF80600ADF8020069464FF00D
:101F70008040FFF745FE00231A4603214FF08040C2
:101F8000FFF711FC6846FFF797FC0A20ADF8080040
:101F900069464007FFF73AFC01218807FFF7E2FB9B
:101FA000012211469007FFF790FC00214FF080407E
:101FB000FFF7F8FD01218807FFF7DAFB0121022076
:101FC000FFF7D2F801210820FFF7DEF83020ADF846
:101FD000080004208DF80B0002A96648FEF7A6FB56
:101FE00001216648FEF72EFC6846FFF75BFE0020E5
:101FF000ADF800004FF6FF70ADF804000020ADF81A
:102000000600ADF8020069465D48FFF7F9FD0023C0
:102010001A4603215A48FFF7C6FB6846FFF74CFCF7
:102020000A20ADF8080069465548FFF7EFFB01218B
:102030005348FFF797FB012211465148FFF745FC33
:1020400000214F48FFF7AEFD01214D48FFF790FBFF
:1020500001210420FFF788F801210820FFF794F8F8
:10206000C020ADF8080004208DF80B0002A94148FB
:10207000FEF75CFB6846FFF715FE0020ADF8000098
:102080004FF6FF70ADF804000020ADF80600ADF883
:10209000020069463B48FFF7B3FD00231A460321BF
:1020A0003848FFF780FB6846FFF706FC0A20ADF8CA
:1020B000080069463348FFF7A9FB01213148FFF7C3
:1020C00051FB012211462F48FFF7FFFB00212D484D
:1020D000FFF768FD01212B48FFF74AFB012108208B
:1020E000FFF742F801210420FFF74EF80320ADF876
:1020F000080004208DF80B0002A91D48FEF716FB0E
:102100006846FFF7CFFD0020ADF800004FF6FF70E6
:10211000ADF804000020ADF80600ADF802006946F5
:102120001948FFF76DFD00231A4603211648FFF7F3
:102130003AFB6846FFF7C0FB0A20ADF80800694685
:102140001148FFF763FB01210F48FFF70BFB01224A
:1021500011460D48FFF7B9FB00210B48FFF722FDA0
:1021600001210948FFF704FB0EBD0000000230000A
:1021700000080140000C01400001180000081A008E
:102180000004004000080040000C004008B5012198
:102190002020FEF7F9FF01211020FEF7F5FF0121B5
:1021A0000820FEF7F1FF0420ADF8000048208DF86C
:1021B000030069460948FEF7B9FA41F60740ADF851
:1021C000000069460648FEF7B1FA4FF48050ADF8BA
:1021D000000069460348FEF7A9FA08BD0014014053
:1021E00000100140000C014008B501210420FEF759
:1021F000CBFF01211020FEF7C7FF4FF40050ADF8D0
:10220000000010208DF8030003208DF802006946BD
:102210000148FEF78BFA08BD0010014008B5012106
:102220000820FEF7B1FF4FF46340ADF80000102026
:102230008DF8030003208DF8020069460548FEF77B
:1022400075FA4FF4C850ADF8000069460248FEF731
:102250006DFA08BD000C01400008014010B5FFF701
:10226000DDFF01214FF4E15000F004F8FFF744FED8
:1022700010BD000030B589B005460C460121480369
:10228000FEF782FF01211020FEF77EFF4FF47070F1
:10229000ADF8200018208DF8230003208DF82200CF
:1022A00008A92648FEF742FA681E80B2ADF8180069
:1022B000601E80B2ADF814000020ADF81A00ADF831
:1022C000160005A91E48FFF79BFC6020ADF804002E
:1022D0000120ADF806000020ADF80A00ADF80C00B2
:1022E00001A91748FFF7FAFA01A91548FFF74CFBB7
:1022F00001A91348FFF7A8FB01A91148FFF7FEFB4E
:1023000001210F48FFF740FA08210D48FFF732FB83
:1023100008210B48FFF78AFB08210948FFF7E4FB77
:1023200008210748FFF728FC01210548FFF70EFAAE
:1023300001210348FFF71CFA09B030BD001001402D
:10234000003401403EB505460C4601211020FEF741
:102350000BFF681E80B2ADF80400601E80B2ADF8BD
:1023600000000020ADF80600ADF8020069460E48F6
:10237000FFF746FC36208DF8080005208DF809008F
:1023800000208DF80A0001208DF80B0002A8FEF74E
:10239000E7FC012211460448FFF797FA01210248A1
:1023A000FFF7E6F93EBD0000001000401FB50446EF
:1023B00001218803FEF7E8FE01210420FEF7E4FE78
:1023C0004FF40070ADF80C0003208DF80E001820BB
:1023D0008DF80F0003A91C48FEF7A8F94FF48060A0
:1023E000ADF80C0004208DF80F0003A91648FEF785
:1023F0009DF925208DF80C0003208DF80D0000209C
:102400008DF80E0001208DF80F0003A8FEF7A8FC40
:1024100000940020ADF80400ADF80600ADF8080007
:10242000ADF80C000C20ADF80A0069460748FFF72C
:10243000DDFC012240F225510448FFF7B2FC0121E6
:102440000248FFF778FC1FBD00080140003801403A
:102450001FB5044601214804FEF786FE0121042031
:10246000FEF792FE0420ADF80C0003208DF80E005C
:1024700018208DF80F0003A91B48FEF757F9082014
:10248000ADF80C0004208DF80F0003A91648FEF7E4
:102490004DF926208DF80C0003208DF80D0000204A
:1024A0008DF80E0001208DF80F0003A8FEF758FCF0
:1024B00000940020ADF80400ADF80600ADF8080067
:1024C000ADF80C000C20ADF80A0069460748FFF78C
:1024D0008DFC012240F225510448FFF762FC0121E6
:1024E0000248FFF728FC1FBD0008014000440040DF
:1024F00070B50446B4F93C31B4F93621B4F9301161
:10250000B4F92A0100F0BCFA70BD0146002001E0D8
:10251000421C10B20428FBDB704700002DE9F04795
:102520000446042001F0A6F900B2A4F82601022016
:1025300001F0A0F9404201B24FF49670015303201C
:1025400001F098F9404201B24FF49970015305200F
:1025500001F090F901B24FF49C7001534E48807D18
:10256000012807D14C48C07D012803D1022084F8FE
:102570003E011EE04848807D38B94748C07D0128AB
:1025800003D1002084F83E0113E04348807D0128F8
:1025900006D14148C07D18B9032084F83E0108E007
:1025A0003D48807D28B93C48C07D10B9012084F8A1
:1025B0003E0194F83E0102280BD13848C088A4F8A7
:1025C000200136488088A4F822010020A4F82401C4
:1025D0005FE094F83E0100BB2F480088A0F2FF7036
:1025E000642190FBF1F000B2A4F820012A48408851
:1025F00040F2FF71081A642190FBF1F000B2A4F8D8
:1026000022012548C08840F2FF71081A642190FB1E
:10261000F1F000B2A4F824013BE094F83E01032855
:102620002CD11D498869FDF722FF0FFA80F9484631
:10263000FDF70CFF07460022194BFDF78FFE0546FC
:10264000FDF72EFF00B2A4F820011349C869FDF779
:102650000EFF00B2C0F100094846FDF7F7FE07463D
:1026600000220F4BFDF77AFE0546FDF719FF00B279
:10267000A4F822010020A4F824010AE094F83E0105
:10268000012806D10020A4F82001A4F82201A4F812
:102690002401BDE8F08700008C0700205C050020C5
:1026A0000000044010B58EB004461D4A07CA0BABAB
:1026B00007C31B4A0C3207CA08AB07C3184A1832B3
:1026C00007CA05AB07C3164A243207CA02AB07C3C1
:1026D0001448154B0BAA002100902046FEF728FD58
:1026E0001048114B08AA0021009004F14800FEF7A1
:1026F0001FFD0C480C4B05AA0021009004F190002E
:10270000FEF716FD0748084B02AA0021009004F1CD
:10271000D800FEF70DFD022084F83E010EB010BD7A
:10272000D04D00080000C84300C0DA452DE9F04153
:102730000546002428E004EB440205F5937101EB03
:102740004201B1F90200FDF778FE074604EB4402AE
:1027500005F5937131F91200FDF76FFE804604EB29
:10276000C40105EBC1003A464146FEF731FC06467E
:10277000FDF77DFE01B204EB440205F5937000EB1A
:1027800042008180601C04B2042CD4DBBDE8F081DF
:1027900090F83E1181BBB0F82011B0F8222111440D
:1027A000B0F8242111440AB24FF494710A52B0F8DF
:1027B0002011B0F82221891AB0F82421891A0AB20E
:1027C0004FF497710A52B0F82011B0F82221114449
:1027D000B0F82421891A0AB24FF49A710A52B0F85B
:1027E0002011B0F82221891AB0F8242111440AB22C
:1027F0004FF49D710A527AE0FFE790F83E110229EA
:1028000024D1B0F82011B0F8222111440AB24FF4BB
:1028100094710A52B0F82011B0F82221891A0AB234
:102820004FF497710A52B0F82011B0F82221891A9A
:102830000AB24FF49A710A52B0F82011B0F822216E
:1028400011440AB24FF49D710A5250E090F83E11C3
:10285000032924D1B0F82011B0F8222111440AB282
:102860004FF494710A52B0F82011B0F82221891A5D
:102870000AB24FF497710A52B0F82011B0F8222131
:10288000891A0AB24FF49A710A52B0F82011B0F8BE
:10289000222111440AB24FF49D710A5227E090F8A8
:1028A0003E11012923D1B0F82011B0F822211144A2
:1028B0000AB24FF494710A52B0F82011B0F82221F4
:1028C000891A0AB24FF497710A52B0F82011B0F881
:1028D0002221891A0AB24FF49A710A52B0F82011D3
:1028E000B0F8222111440AB24FF49D710A52704788
:1028F0000B48FFF7D7FE11E00948FFF706FE08482E
:10290000FFF70CFE0648FFF743FF0548FFF70EFFF1
:102910000348FFF7EDFD052001F08CFAECE700001D
:102920004C06002010B50420FEF766FD48200C4937
:10293000087048244FF47A70444301200949088004
:102940004FF0E020006940F002004FF0E021086104
:1029500008464461006940F00100086110BD0000B4
:10296000280000202A00002070B5044601F0DCFF9A
:10297000012811D00C480088844206DB0A480088F0
:1029800094FBF0F5284601F055FA0748008894FBBF
:10299000F0F100FB114084B24FF47A7104FB01F0B6
:1029A00000F004F870BD00002A00002070B5034656
:1029B00000224FF0E02675690D4E367803FB06F4D1
:1029C0004FF0E026B16910E04FF0E026B069884290
:1029D0000BD0884202D20E1A324402E02E1A0E4464
:1029E00032440146A24200D300E0EDE700BF70BDD3
:1029F000280000204FF44070FEF7EAF94FF4E13070
:102A0000FFF7D4FC4FF4E130FFF722FDFFF78AFF18
:102A1000FFF7EAFB482141F28830FFF793FCFFF70C
:102A2000B5FBFFF71BFCFEF7B3F8FEF7F3F900F078
:102A300053FF01F0F5FA00BFFEE7000070B5044651
:102A4000B4F90000FDF702FD054600220A4BFDF730
:102A50005FFD03D24FF4B45020800CE0B4F90000C5
:102A6000FDF7F4FC05460022044BFDF739FD02D2C8
:102A70004EF68010208070BD0080B6400080B6C049
:102A80001FB56846FFF7DAFF01A8FFF7D7FF02A8D6
:102A9000FFF7D4FF03A8FFF7D1FFBDF9000000281E
:102AA0000DDD01203F49086000203F49C1F8A00129
:102AB000BDF8000081B23D48FFF76FF80DE000203F
:102AC0003849086001203849C1F8A001BDF800006C
:102AD000404281B23548FFF760F8BDF90400002894
:102AE0000EDD01202F491831086000203049C1F85F
:102AF000A001BDF8040081B22C48FFF74CF80EE0AD
:102B0000002028491831086001202949C1F8A00196
:102B1000BDF80400404281B22448FFF73CF8BDF9FB
:102B2000080000280EDD00201E4910310860012039
:102B30001D49C1F8B801BDF8080081B21B48FFF774
:102B400028F80EE0012017491031086000201649CE
:102B5000C1F8B801BDF80800404281B21348FFF740
:102B600018F8BDF90C0000280DDD0020114908609F
:102B700001200F49C1F8B001BDF80C0081B20B482B
:102B8000FFF70DF80DE001200A4908600020084910
:102B9000C1F8B001BDF80C00404281B20348FEF715
:102BA000FEFF1FBDA481214200802142003401406C
:102BB00000002142AC01214240F2FF700949088027
:102BC00048808880C8800020088148818881C88129
:102BD00008824882087548758875C8758861C8611B
:102BE000086270478C070020FFF7E6FF1BE000F04B
:102BF00001FF0D480078012802D100200B49087020
:102C00000948007860B909480078401C07490870F5
:102C100008460078052803DD00200870FFF7CCFF88
:102C2000142001F007F9E2E75800002059000020C5
:102C30002DE9F04105460E461C4807681C4800680F
:102C4000001D00F086FF50B91948006890F82C105C
:102C50000120884017490968814316480160681CB3
:102C600038B936B112480168091D134800F0AFFFAA
:102C70001AE07C190E4800684460BC4207D20C4838
:102C80000168091D0D48006800F087FF0CE0084846
:102C90000168091D0A48006800F07FFF09480068C4
:102CA000844201D207480460BDE8F0817000002032
:102CB0005C00002074000020880B002064000020CD
:102CC000600000208C00002010B5044600F08CFF4E
:102CD00024480068401C234908602348006840B924
:102CE000214804600846006801280DD100F0D8F999
:102CF0000AE01E48006838B91B480068C06AE16AEB
:102D0000884201D81848046019480068401C1849D6
:102D1000086008460068606494F82C100120884020
:102D200014490968084313490860E16A01EB81010D
:102D3000114A02EB8100211D00F049FF00F07EFFE7
:102D40000A48006868B108480068C06AE16A8842B9
:102D500007D24FF0805009490860BFF34F8FBFF38F
:102D60006F8F10BD6C0000205C00002078000020F8
:102D70008800002074000020B808002004ED00E066
:102D800010B500F031FF10480068D0B90F4800F0CE
:102D9000F4FE0F4800F0F1FE0C480E4908600C48A4
:102DA0000D49086000221021052001F06BFA064948
:102DB00008600846006820B108A10348006800F0D8
:102DC000FDFF00F03BFF10BDA40000209C0B002085
:102DD000B00B00209C000020A0000020546D725118
:102DE0000000000010B516E000F0FEFE0C48C068C0
:102DF000C468201D00F0ADFE0A480068401E094965
:102E0000086009480068401E0749086000F016FF86
:102E1000204600F05FF8044800680028E4D110BDA7
:102E2000740B00206C0000206800002070B5044680
:102E30000D46206C70B1216CE0680144E160D4E97A
:102E40000210884201D32168E1602846226CE168C3
:102E5000FDF7D6F970BD2DE9F04104460F46154641
:102E60004FF00008A66B206C48B9206800282CD1D0
:102E7000A06801F013FE80460020A06025E07DB927
:102E80003946226C6068FDF7BBF9216C6068084424
:102E90006060D4E90101884217D32068606014E0C3
:102EA0003946226CE068FDF7ABF9216CE068411A05
:102EB000E1602168E068884203D2216CA068411A71
:102EC000E160022D01D106B1761E701CA063404660
:102ED000BDE8F08110B50446206B00F0CDFE204621
:102EE00000F0CAFE10BD00000146084A12681268D0
:102EF0000AB9012200E000220A600A6822B9034AE6
:102F00001268D268106800E0002070479C00002022
:102F100030B54FF40043174800F007042CB1C01D32
:102F200020F00700134C041B1B1B0246124C2260AE
:102F30000024114D6C60D018083820F007000F4CA9
:102F4000206000240D4D2D686C600C4D2D682C60A8
:102F50001146441A4C60094C24680C60084D4C68BA
:102F60002C60084D4C682C604FF00044064D2C60DE
:102F700030BD0000C40B0020B0000020B8000020CD
:102F8000C0000020BC000020CC00002000BFFFF7E4
:102F900029FF064800680128F9D94FF080500449FC
:102FA0000860BFF34F8FBFF36F8FF0E7B8080020C2
:102FB00004ED00E02DE9F04106460D46174698461F
:102FC000069C0DB9246000E02760E66325640121BA
:102FD000204601F0A9F984F850800020A064BDE8E3
:102FE000F0812DE9F05F82460E4690469B460A9F8F
:102FF0000C9C4FEA8801A522206BFDF713F9A8F17C
:103000000100216B01EB800929F0070909F0070095
:1030100008B9012000E0002050B900BF502080F323
:103020001188BFF34F8FBFF36F8F00BF00BFFEE764
:1030300086B1002507E0715D04F134004155705DF3
:1030400000B902E06D1C102DF5D300BF0021432014
:10305000015502E0002084F83400202F00D31F2700
:10306000E762E76400202065201D00F093FD04F175
:10307000180000F08FFD2461C7F12000A061646298
:103080000020606584F858005A465146484600F0D2
:10309000DFFB20600B9808B10B980460BDE8F09F3F
:1030A00010B5002407E004EB84010F4A02EB810015
:1030B00000F063FD641C202CF5D30C4800F05DFD8E
:1030C0000B4800F05AFD0B4800F057FD0A4800F08D
:1030D00054FD0A4800F051FD0448094908600448BD
:1030E0000849086010BD0000B8080020380B002017
:1030F0004C0B0020600B0020740B0020880B00207C
:10310000600000206400002010B50146164800E071
:10311000006803688B42FBD30246436813448B422A
:1031200004D143684C682344436001460A464B6817
:1031300013440468A34211D10C4C03682468A342D1
:1031400008D04B680468646823444B6003681B68BC
:103150000B6005E0054B1B680B6001E003680B602A
:10316000884200D0016010BDB0000020B8000020EF
:103170002DE9F04104460D4616461F464FF0000863
:1031800065602461B5420CD8F01BA169884202D366
:103190004FF0010811E0211D0948006800F0FDFC16
:1031A0000BE0BE4204D2BD4202D34FF0010804E05E
:1031B000211D0448006800F0F0FC4046BDE8F081A5
:1031C000A00000209C00002070B5054600F00CFD1A
:1031D000A86B08B9012400E0002400F02FFD204670
:1031E00070BD70B5054600F0FFFCA86BE96B884226
:1031F00001D1012400E0002400F020FD204670BD34
:10320000F1B50098846C002654B900BF502080F3BB
:103210001188BFF34F8FBFF36F8F00BF00BFFEE772
:10322000A06BE16B884201D2012000E0002050B980
:1032300000BF502080F31188BFF34F8FBFF36F8F13
:1032400000BF00BFFEE7A06BE16B88422CD294F96F
:103250004550002269462046FFF7FDFD0646681CE2
:1032600060B9606A08B9012000E00020D8B904F113
:10327000240001F071FCB0B1012614E07F2D01D0D3
:10328000012000E0002050B900BF502080F31188D9
:10329000BFF34F8FBFF36F8F00BF00BFFEE7681C07
:1032A00040B284F8450000BF3046F8BDF8B5054689
:1032B0000F461A480068C068C468201D00F049FC29
:1032C00094F8280000F00400E8B1A06941192B46E9
:1032D0003A462046FFF74CFFD8B1002003462A4665
:1032E00001460090204601F031FD064656B900BF68
:1032F000502080F31188BFF34F8FBFF36F8F00BF53
:1033000000BFFEE705E094F8280020F0010084F8F3
:1033100028002046216A8847F8BD00009C00002054
:10332000F0B587B0A0E00398002811DA04AE56B9D2
:1033300000BF502080F31188BFF34F8FBFF36F8F12
:1033400000BF00BFFEE7D6E90020B168904700BF8C
:1033500003980028E6DB059C606908B9012000E0BD
:10336000002010B9201D00F0F4FB02A800F0DCF8EA
:10337000054603980A2875D2DFE800F009050739E9
:10338000416306083A4200BF00BF00BF00BF94F887
:10339000280040F0010084F828000498A2698118F0
:1033A00003462A462046FFF7E3FEF8B12046216A8D
:1033B000884794F8280000F00400B8B1002000907D
:1033C0000498A169421800231946204601F0BEFC6A
:1033D000074657B900BF502080F31188BFF34F8FC5
:1033E000BFF36F8F00BF00BFFEE700BF3BE000BF31
:1033F00094F8280020F0010084F8280033E000BF92
:1034000094F8280040F0010084F828000498A06196
:10341000A06908B1012000E0002050B900BF502091
:1034200080F31188BFF34F8FBFF36F8F00BF00BFD2
:10343000FEE7A06941192B462A462046FFF798FE71
:1034400011E094F8280000F0020018B9204600F0BE
:1034500013FC05E094F8280020F0010084F828000F
:1034600001E0FFE700BF00BF002203A90448006895
:1034700001F02EF900287FF456AF07B0F0BD000030
:10348000A4000020F8B505460C4600F017FE68467B
:1034900000F04AF80646009820BB44B9B54206D869
:1034A00001F0A6FB31462846FFF700FF1CE03CB1C7
:1034B0000E480068006808B9012000E000200446BA
:1034C000A91B22460A48006800F08EFC01F090FB20
:1034D00050B94FF0805007490860BFF34F8FBFF3DA
:1034E0006F8F01E001F084FBF8BD0000A000002018
:1034F000A400002004ED00E009480068006808B955
:10350000012000E0002020B14FF0FF3005490860A5
:1035100005E003480068C068006802490860704719
:10352000600000208C00002070B5044601F00CFA09
:10353000054607480068854204D200F00BF80120D8
:10354000206001E00020206001480560284670BD31
:10355000AC0000202DE9F84334E025480068C0683D
:10356000056823480068C068C468201D00F0F1FAAF
:103570002046216A884794F8280000F0040008B328
:10358000A0694619AE4207D966602461211D18481A
:10359000006800F002FB15E0002003462A460146C1
:1035A0000090204601F0D2FB074657B900BF5020DB
:1035B00080F31188BFF34F8FBFF36F8F00BF00BF41
:1035C000FEE700BF0A480068006808B9012000E073
:1035D00000200028C1D00648D0F8008005480068C7
:1035E000034908600348C0F80080BDE8F883000084
:1035F0009C000020A00000200E480068401C08B974
:10360000012000E0002050B900BF502080F3118855
:10361000BFF34F8FBFF36F8F00BF00BFFEE700BF48
:10362000502080F31188BFF34F8FBFF36F8F00BF1F
:1036300000BFFEE7D000002008B500BF6846FFF7D6
:1036400053FC044620460099FFF71CFFFFF768FE75
:10365000F4E770B5044600F0C7FA94F9455019E054
:10366000A06C30B12046FFF7CBFD88B100F096FC8E
:103670000EE0606A08B9012000E0002038B904F1CA
:10368000240001F069FA18B100F088FC00E003E0C2
:10369000681E45B2002DE3DC00BFFF2084F8450022
:1036A00000F0CCFA00F0A0FA94F9445010E0206940
:1036B00008B9012000E0002048B904F1100001F031
:1036C0004BFA08B100F06AFC681E45B200E001E068
:1036D000002DECDC00BFFF2084F8440000F0AEFABF
:1036E00070BD00002DE9F04104464FF0000800F0E5
:1036F000E5FC5148006808B9FFF70AFC4F4800682C
:10370000204000287ED13CB304F10800A04223D918
:10371000083404F0070000B304F00700C0F108000B
:103720002044A04216D904F00700C0F10800044468
:1037300004F0070008B9012000E0002068B900BFCC
:10374000502080F31188BFF34F8FBFF36F8F00BFFE
:1037500000BFFEE7002400E00024002C54D03848CD
:103760000068844250D8374E3046056801E02E4646
:103770002D686868A04202D228680028F7D12E4838
:103780000068854240D0306800F108082868306041
:103790006868001B102819D92F1907F0070008B90D
:1037A000012000E0002050B900BF502080F31188B4
:1037B000BFF34F8FBFF36F8F00BF00BFFEE7686896
:1037C000001B78606C603846FFF79EFC1C496868F7
:1037D0000968081A1A490860084600681A49096801
:1037E000884203D216480068174908601349686880
:1037F0000968084368600020286014480068401C7D
:10380000124900E000E0086001F0F2F908F007005A
:1038100008B9012000E0002050B900BF502080F31B
:103820001188BFF34F8FBFF36F8F00BF00BFFEE75C
:103830004046BDE8F0810000B8000020CC00002028
:10384000BC000020B0000020C0000020C400002008
:10385000001F4FF080730360001F21F0010303601D
:10386000001F034B036014380260203870470000CB
:10387000F93500080146022906D003290DD0042994
:1038800012D005291ED116E04FF08042928C10B262
:1038900000224FF080439A8416E00C4A128810B23E
:1038A00000220A4B1A800FE0094A128810B2002247
:1038B000074B1A8008E0074A128810B20022054B15
:1038C0001A8001E0002000BF00BF704724040040C0
:1038D00024080040240C00401CB5054801210023A9
:1038E0008022CDE9001003A1054800F0EDFF1CBDCA
:1038F0004400002073746172745F7461736B000024
:10390000053900081CB5044600F06EF9134804217F
:103910000023CA01CDE9001011A1144800F0D4FF22
:103920001348052100234FF40072CDE9001011A1C6
:10393000134800F0C9FF1348062100234FF400721A
:10394000CDE9001010A1144800F0BEFF1348006834
:1039500000F09EFA00F072F91CBD00004800002043
:10396000757365725F7461736B000000493B0008FA
:10397000500000206E72665F7461736B000000007F
:10398000E92B000854000020636861737369735F5A
:103990007461736B00000000F128000844000020EF
:1039A0001249098801F40041F9B93A280CD10F49AC
:1039B000098841F400410D4A118011460988C1F37C
:1039C0000D010B4A505410E008490988C1F30D015C
:1039D000074A505405490988491C044A1180114678
:1039E0000988C72901DD0021118070475A00002095
:1039F000B007002010B54F48008800F400400028B0
:103A00007ED04D480078A3287BD14B48007F3A28D0
:103A1000FAD10120494908704748807846494978D9
:103A200000EB012046490880434800794249C978A3
:103A300000EB0120424948803F4880793E4949795E
:103A400000EB01203E4988803B48007A3A49C97919
:103A500000EB01203A49C8803748807A3649497AD4
:103A600000EB012000B2364908813348007B32491F
:103A7000C97A00EB012000B2314948812E48807B91
:103A80002D49497B00EB012000B22D4988812A484D
:103A9000C07BC0F3C00008752748C07BC0F380001E
:103AA00048752548C07BC0F3400088752248C07B1C
:103AB00000F00100C8752048007C224908701E48AB
:103AC000407C48701C48807C88701B48C07CC87053
:103AD000084600681A4988611748007D194908702E
:103AE0001548407D48701448807D88701248C07D1C
:103AF000C870084600681249C8610F48007E01E09E
:103B000016E00EE00F4908700B48407E48700A48E6
:103B1000807E88700848C07EC870084600680849E2
:103B20000862C8210448FCF784FB00200149088092
:103B300010BD00005A000020B007002058000020EF
:103B40008C0700203C00002002E0642000F072F9A5
:103B5000FBE701460A69D1E901309860D1E9010328
:103B600058605068884201D1886850600020086120
:103B70001068401E10601068704700F10801416035
:103B80004FF0FF31816000F10801C1600161002147
:103B90000160704700210161704710B502460B6853
:103BA0005C1C0CB9106907E002F1080000E04068F5
:103BB000446824689C42FAD944684C604C68A1600F
:103BC000886041600A611468641C146010BD42681A
:103BD0004A6093688B6093685960916008610368DC
:103BE0005B1C03607047000000BF502080F3118809
:103BF000BFF34F8FBFF36F8F00BF0E480068401CAC
:103C00000C49086008460068012812D10A4800687B
:103C1000C0B208B9012000E0002050B900BF502018
:103C200080F31188BFF34F8FBFF36F8F00BF00BFCA
:103C3000FEE77047D000002004ED00E00D4800686A
:103C400050B900BF502080F31188BFF34F8FBFF3EE
:103C50006F8F00BF00BFFEE706480068401E0549A1
:103C600008600846006820B9002080F3118800BF72
:103C700000BF7047D000002070B506463546002EC4
:103C800044D0083D2C46224960680968084008B1C4
:103C9000012000E0002050B900BF502080F31188BF
:103CA000BFF34F8FBFF36F8F00BF00BFFEE72068E9
:103CB00008B9012000E0002050B900BF502080F377
:103CC0001188BFF34F8FBFF36F8F00BF00BFFEE7B8
:103CD0000F49606809680840C0B12068B0B90C4954
:103CE000606809688843606000F0E8F90949606825
:103CF00009680844074908602046FFF705FA0648A6
:103D00000068401C0449086000F072FF70BD0000AC
:103D1000CC000020BC000020C800002000204FF094
:103D2000E02108618861064800684FF47A71B0FBB1
:103D3000F1F0401E4FF0E021486107200861704714
:103D40000000002070B5FCF745FA0446102C16D38D
:103D500004F1E02090F8F05315480078854201DB2B
:103D6000012000E0002050B900BF502080F31188EE
:103D7000BFF34F8FBFF36F8F00BF00BFFEE70D484B
:103D8000006800F4E0600C490968884201D801200D
:103D900000E0002050B900BF502080F31188BFF32D
:103DA0004F8FBFF36F8F00BF00BFFEE770BD0000F5
:103DB000D40000200CED00E0D800002002460020D6
:103DC0000BE0084B53F8303033B9064B43F8301052
:103DD00003EBC0035A6002E0401C0828F1D300BF87
:103DE00070470000780800202DE9F04105460E4696
:103DF00017462C46FFF7F8FE94F94400401C10B912
:103E0000002084F8440094F94500401C10B90020BB
:103E100084F84500FFF712FFA06B28B93A463146F7
:103E200004F1240000F0DCF82046FFF712FCBDE8A6
:103E3000F081000070B504460025D4B11248006836
:103E400008B9012000E0002050B900BF502080F3E5
:103E50001188BFF34F8FBFF36F8F00BF00BFFEE726
:103E600000F02CF900212046FEF7E2FE00F0C0FE33
:103E700005463DB94FF0805004490860BFF34F8FAD
:103E8000BFF36F8F70BD00009800002004ED00E0CC
:103E900070B50546FFF7A8FE15B93048006800E088
:103EA00028460446201DFFF754FE78B9E06A00EB6F
:103EB00080002B4951F8200040B994F82C100120C3
:103EC000884028490968814326480160A06A18B1E2
:103ED00004F11800FFF73DFE23480068401C22490A
:103EE00008601E480068844209D1211D1F48FFF761
:103EF0006EFE1F480068401C1D49086009E01D480F
:103F00000068401E1B4908602046FEF7E3FFFFF7EC
:103F1000F3FAFFF793FE18480068E8B10F4800680D
:103F2000844219D11548006808B9012000E000203A
:103F300050B900BF502080F31188BFF34F8FBFF3FB
:103F40006F8F00BF00BFFEE74FF080500C49086044
:103F5000BFF34F8FBFF36F8F70BD00005C00002078
:103F6000B80800207400002088000020740B002096
:103F7000680000206C0000207800002098000020DD
:103F800004ED00E0034909680160034909684160E4
:103F900070470000840000207000002001200149CB
:103FA000086070478000002070B504460D4654B983
:103FB00000BF502080F31188BFF34F8FBFF36F8F86
:103FC00000BF00BFFEE70548016818312046FFF733
:103FD000E4FD01212846FEF72BFE70BD5C000020A9
:103FE00070B505460E46144655B900BF502080F303
:103FF0001188BFF34F8FBFF36F8F00BF00BFFEE785
:104000000648016818312846FFF7E1FD0CB14FF072
:10401000FF3621463046FEF70BFE70BD5C000020E7
:104020001CB51E4800210B468222CDE900101CA1C0
:104030001D4800F049FC0446012C02D100F05AFE54
:104040000446012C15D100BF502080F31188BFF326
:104050004F8FBFF36F8F00BF4FF0FF3013490860E1
:1040600001201349086000201249086000F074F82C
:1040700010E0601C08B1012000E0002050B900BF32
:10408000502080F31188BFF34F8FBFF36F8F00BFB5
:1040900000BFFEE7084800681CBD0000900000203B
:1040A00049444C45000000008D2F00088C00002082
:1040B0007800002070000020940000200248006872
:1040C000401C014908607047980000201D480068A6
:1040D00018B101201C49086032E000201A4908602C
:1040E0001A480068B0FA80F0C0F11F0101EB8100AE
:1040F000174A52F8200008B1012000E0002050B912
:1041000000BF502080F31188BFF34F8FBFF36F8F34
:1041100000BF00BFFEE701EB81020D4B03EB820005
:1041200042685268426000F108024368934202D13B
:104130004268526842604268D268064B1A6000BF0B
:1041400070470000980000208000002074000020CC
:10415000B80800205C0000201CB5384908460078EB
:104160000190FF200A4610700846007800909DF8E4
:10417000000000F0F0009DF80020904201D10120E5
:1041800000E0002050B900BF502080F31188BFF339
:104190004F8FBFF36F8F00BF00BFFEE79DF8000099
:1041A00000F05000264A10700720264A106009E0EF
:1041B00024480068401E234A10609DF80000400615
:1041C000000E00909DF8000000F080008028EFD0E5
:1041D0001C480068C0F10700042801D1012000E05C
:1041E000002050B900BF502080F31188BFF34F8FDB
:1041F000BFF36F8F00BF00BFFEE7124800680002E8
:10420000104A10601046008800F4E06010600B4A0D
:10421000019810700C48006840F470000A4908606A
:104220000846006840F070400860FFF777FD002006
:1042300006490860FBF798FF00201CBD00E400E081
:10424000D4000020D800002020ED00E0D0000020A5
:1042500010B500BF502080F31188BFF34F8FBFF31C
:104260006F8F00BF00F076FB18B14FF0805004490B
:10427000086000BF002080F3118800BF10BD00005F
:1042800004ED00E02DE9F84306460F4690460EB1D6
:10429000012000E0002050B900BF502080F31188B9
:1042A000BFF34F8FBFF36F8F00BF00BFFEE706FB6A
:1042B00007F51FB1B5FBF7F0B04201D1012000E0D6
:1042C000002050B900BF502080F31188BFF34F8FFA
:1042D000BFF36F8F00BF00BFFEE705F15400A84297
:1042E00001D9012000E0002050B900BF502080F328
:1042F0001188BFF34F8FBFF36F8F00BF00BFFEE782
:1043000005F15400FFF7EEF904464CB1A14609F15E
:10431000540943464A46394630460094FEF74AFE61
:104320002046BDE8F883000070B505460E462C46D1
:1043300054B900BF502080F31188BFF34F8FBFF3F3
:104340006F8F00BF00BFFEE7FFF74EFCD4E90F12EE
:10435000206801FB0200A0600020A063206860606C
:10436000E06B401E226C216800FB0211E160FF201F
:1043700084F8440084F845009EB9206908B90120FA
:1043800000E00020A8B904F1100000F0E5FB80B1C6
:104390004FF0805009490860BFF34F8FBFF36F8F14
:1043A00007E004F11000FFF7E8FB04F12400FFF739
:1043B000E4FBFFF743FC012070BD000004ED00E0CA
:1043C0002DE9FF4782B0064688461D464FF000099A
:1043D000344654B900BF502080F31188BFF34F8F8B
:1043E000BFF36F8F00BF00BFFEE7B8F1000F01D130
:1043F000206C08B9012000E0002050B900BF502017
:1044000080F31188BFF34F8FBFF36F8F00BF00BFE2
:10441000FEE7022D02D1E06B012801D1012000E06E
:10442000002050B900BF502080F31188BFF34F8F98
:10443000BFF36F8F00BF00BFFEE700F075FA08B949
:10444000049808B9012000E0002050B900BF5020B6
:1044500080F31188BFF34F8FBFF36F8F00BF00BF92
:10446000FEE700BFFFF7C0FBA06BE16B884201D302
:10447000022D3ED1D4F838A02A4641462046FEF708
:10448000EAFC0746A06C88B1022D02D1BAF1000FF8
:1044900029D12046FEF7B4FE28B34FF080503D49A5
:1044A0000860BFF34F8FBFF36F8F1CE0606A08B9DD
:1044B000012000E0002068B904F1240000F04CFB6A
:1044C00088B14FF0805033490860BFF34F8FBFF37E
:1044D0006F8F08E03FB14FF080502E490860BFF366
:1044E0004F8FBFF36F8FFFF7A9FB012006B0BDE828
:1044F000F087049818B9FFF7A1FB0020F6E7B9F19F
:10450000000F04D16846FFF73DFD4FF00109FFF7AA
:1045100095FBFFF7D3FDFFF767FB94F94400401CC0
:1045200010B9002084F8440094F94500401C10B9EB
:10453000002084F84500FFF781FB04A9684600F0DD
:104540007BF9F8B92046FEF74CFEA8B104F1100043
:104550000499FFF729FD2046FFF77BF800F048FBA0
:1045600000287FF47FAF4FF080500A490860BFF306
:104570004F8FBFF36F8F75E72046FFF76AF800F0A3
:1045800037FB6FE72046FFF764F800F031FB0020AF
:10459000ACE7000004ED00E02DE9F84F80468B46C3
:1045A00015461E46444654B900BF502080F311887A
:1045B000BFF34F8FBFF36F8F00BF00BFFEE7BBF1AC
:1045C000000F01D1206C08B9012000E0002050B993
:1045D00000BF502080F31188BFF34F8FBFF36F8F60
:1045E00000BF00BFFEE7022E02D1E06B012801D11F
:1045F000012000E0002050B900BF502080F3118856
:10460000BFF34F8FBFF36F8F00BF00BFFEE7FFF711
:1046100099FB00BF5021EFF3118081F31188BFF3A4
:104620004F8FBFF36F8F00BF0746A06BE16B8842CF
:1046300001D3022E42D194F945A0A06B00903246DE
:1046400059462046FEF707FC0AF10100E0B9A06CCC
:1046500058B1022E01D1009868BB2046FEF7D0FD6C
:1046600048B345B30120286025E0606A08B90120FD
:1046700000E00020F8B904F1240000F06DFAD0B198
:10468000CDB10120286016E0BAF17F0F01D00120E2
:1046900000E0002050B900BF502080F31188BFF324
:1046A0004F8FBFF36F8F00BF00BFFEE70AF101001D
:1046B00040B284F845004FF0010901E04FF00009D5
:1046C00000BF87F3118800BF4846BDE8F88F00009F
:1046D0002DE9F74183B005460E464FF000082C4601
:1046E00054B900BF502080F31188BFF34F8FBFF340
:1046F0006F8F00BF00BFFEE70EB9206C08B9012024
:1047000000E0002050B900BF502080F31188BFF3B3
:104710004F8FBFF36F8F00BF00BFFEE700F004F9BB
:1047200008B9059808B9012000E0002050B900BF81
:10473000502080F31188BFF34F8FBFF36F8F00BFFE
:1047400000BFFEE700BFFFF74FFAA76BF7B1314696
:104750002046FEF76BFB781EA063206908B9012094
:1047600000E0002060B904F1100000F0F5F938B164
:104770004FF080502F490860BFF34F8FBFF36F8F0A
:10478000FFF75CFA012006B0BDE8F081059818B982
:10479000FFF754FA0020F6E7B8F1000F04D101A8A2
:1047A000FFF7F0FB4FF00108FFF748FAFFF786FC30
:1047B000FFF71AFA94F94400401C10B9002084F85D
:1047C000440094F94500401C10B9002084F84500CD
:1047D000FFF734FA05A901A800F02EF8F0B9204639
:1047E000FEF7F2FCA0B104F124000599FFF7DCFB11
:1047F0002046FEF72EFF00F0FBF90028A3D14FF072
:1048000080500C490860BFF34F8FBFF36F8F9AE75A
:104810002046FEF71EFF00F0EBF994E72046FEF776
:1048200018FF00F0E5F92046FEF7CEFC00288AD0FC
:104830000020A8E704ED00E070B505460C4655B928
:1048400000BF502080F31188BFF34F8FBFF36F8FED
:1048500000BF00BFFEE754B900BF502080F31188AD
:10486000BFF34F8FBFF36F8F00BF00BFFEE7FFF7AF
:10487000BBF9134802686868131A2068401C08B91D
:10488000002619E00F4928680968884206D0686840
:10489000904203D80126002020600DE02068984255
:1048A00007D92068C01A20602846FFF76BFB002656
:1048B00002E0002020600126FFF7C0F9304670BDFD
:1048C00070000020840000202DE9FF4F85B0804655
:1048D00089461746DDE912ABB800FEF703FF06462E
:1048E00056B15C20FEF7FEFE04460CB1266304E0E0
:1048F0003046FFF7C1F900E000247CB10020CDE98B
:1049000000ABCDE902403A4649464046089BFEF7D7
:1049100068FB2046FEF7D8F9012501E04FF0FF358E
:10492000284609B0BDE8F08F0549096809B901209A
:1049300005E00449096809B9022000E00020704739
:1049400078000020980000200149086870470000A6
:10495000700000202DE9F0414FF000084448006845
:1049600000287CD143480068451C4248056015BBBF
:1049700041480068006808B9012000E0002050B9F3
:1049800000BF502080F31188BFF34F8FBFF36F8FAC
:1049900000BF00BFFEE7384807683848006836495E
:1049A00008603648076036480068401C3449086093
:1049B000FEF7A2FD00BF3348006885423CD300BF2C
:1049C0002D480068006808B9012000E0002020B1EF
:1049D0004FF0FF302B4908602DE027480068C06881
:1049E000C4686668B54202D22648066023E0201DEE
:1049F000FFF7AFF8A06A18B104F11800FFF7A9F8A3
:104A000094F82C10012088401F49096808431E496A
:104A10000860E16A01EB81011C4A02EB8100211D63
:104A2000FFF7D5F81A49E06A0968C96A8842C7D30E
:104A30004FF00108C4E700BF15480068C06A00EBEA
:104A40008000124951F82000012801D94FF00108D7
:104A50001048006808B14FF0010805E0FFE70E4874
:104A60000068401C0C4908604046BDE8F081000029
:104A700098000020700000206000002064000020EA
:104A8000840000208C00002074000020B808002062
:104A90005C000020800000207C00002070B50546EE
:104AA0002C460026002D4ED028480068844201D1B3
:104AB000012000E0002050B900BF502080F3118891
:104AC000BFF34F8FBFF36F8F00BF00BFFEE7206DB6
:104AD00050B900BF502080F31188BFF34F8FBFF350
:104AE0006F8F00BF00BFFEE7206D401E2065E16CA8
:104AF000E06A884227D0206D28BB201DFFF729F8E7
:104B000040B994F82C10012088401149096881436C
:104B10000F480160E06CE062E06AC0F12000A06133
:104B200094F82C1001208840094909680843084975
:104B30000860E16A01EB8101064A02EB8100211D58
:104B4000FFF745F80126304670BD00005C000020EC
:104B500074000020B808002070B50646F068C468EC
:104B600054B900BF502080F31188BFF34F8FBFF3BB
:104B70006F8F00BF00BFFEE704F11800FEF7E9FFEA
:104B800015480068A8B9201DFEF7E3FF94F82C1023
:104B90000120884011490968084310490860E16A0A
:104BA00001EB81010E4A02EB8100211DFFF70FF896
:104BB00004E004F118010B48FFF709F80A49E06A1C
:104BC0000968C96A884204D901250120074908609B
:104BD00000E00025284670BD9800002074000020E9
:104BE000B8080020600B00205C000020800000203E
:104BF00070B5002400263648006850B900BF502028
:104C000080F31188BFF34F8FBFF36F8F00BF00BFDA
:104C1000FEE7FEF7E9FF2E480068401E2C490860B9
:104C20000846006800284FD12A48006800284BD069
:104C300024E02948C068C46804F11800FEF789FF21
:104C4000201DFEF786FF94F82C1001208840234990
:104C50000968084321490860E16A01EB8101204AA3
:104C600002EB8100211DFEF7B2FF1E49E06A0968D0
:104C7000C96A884202D301201B49086016480068AF
:104C800008B9012000E000200028D2D00CB1FEF7C6
:104C900033FC1648056865B100BFFFF75BFE10B135
:104CA0000120114908606D1E002DF6D100200F492A
:104CB00008600D48006838B1012630070C490860CB
:104CC000BFF34F8FBFF36F8FFEF7B8FF304670BD55
:104CD000980000206C000020600B00207400002071
:104CE000B80800205C000020800000207C0000202C
:104CF00004ED00E01CB50024FEF742F80E48006801
:104D000058B10E481F2100234FF48272CDE90010E4
:104D10000BA10D48FFF7D8FD044654B900BF502041
:104D200080F31188BFF34F8FBFF36F8F00BF00BFB9
:104D3000FEE720461CBD0000A4000020A8000020C3
:104D4000546D722053766300393600082DE9FF4711
:104D500004460D4616461F46DDF830804FF0000928
:104D600054B900BF502080F31188BFF34F8FBFF3B9
:104D70006F8F00BF00BFFEE71448006810B30095B6
:104D800001960294062D15DAFFF7CEFD022808D110
:104D90000023424669460D480068FFF711FB814633
:104DA00010E000231A46694608480068FFF708FB30
:104DB000814607E000233A46694604480068FFF749
:104DC000EBFB8146484604B0BDE8F087A400002014
:104DD0000000C84300000040000000000000C8437D
:104DE00000000040000000000000C8430000004038
:104DF000000000000000C843000000400000000068
:104E0000204E000800000020DC000000DA1E000830
:104E1000FC4E0008DC000020EC8E0000EA1E0008BA
:104E200000A24A0400000000000000000102030488
:104E30000607080900000000010203040102030440
:104E40000607080902040608000000000000000030
:104E50000000000000000000000000000000000052
:104E60000000000000000000000000000000000042
:104E70000000000000000000000000000000000032
:104E80000000000000000000000000000000000022
:104E90000000000000000000000000000000000012
:104EA0000000000000000000000000000000000002
:104EB000000000001F0000000000000000000000D3
:104EC00000000000000000000000000000000000E2
:104ED00000000000000000000000000000000000D2
:104EE00000000000000000000000000000000000C2
:0C4EF000AAAAAAAA00000000000000000E
:0400000508000131BD
:00000001FF
